:020000040800F2
:10000000A02000206502000877220008571C000885
:1000100075220008AF040008A925000800000000B0
:10002000000000000000000000000000CD010008FA
:10003000BD0400080000000011020008D5220008DD
:100040007F0200087F0200087F0200087F0200088C
:100050007F0200087F0200087F0200087F0200087C
:100060007F0200087F0200087F0200087F0200086C
:100070007F0200087F0200087F0200087F0200085C
:100080007F020008B10400087F0200087F02000818
:100090007F0200087F0200087F0200087F0200083C
:1000A0007F0200087F0200087F0200087F0200082C
:1000B0007F0200087F0200087F0200087F0200081C
:1000C0007F0200087F0200087F0200087F0200080C
:1000D0007F0200089D2500087F0200087F020008BB
:1000E0007F0200087F0200087F0200087F020008EC
:1000F0007F0200087F0200087F0200087F020008DC
:100100007F0200087F0200087F0200087F020008CB
:100110007F0200087F0200087F0200087F020008BB
:100120007F0200087F0200087F0200087F020008AB
:1001300000F002F800F03AF80AA090E8000C8244BF
:100140008344AAF10107DA4501D100F02FF8AFF29C
:10015000090EBAE80F0013F0010F18BFFB1A43F0A5
:1001600001031847AC3C0000CC3C0000103A24BF0F
:1001700078C878C1FAD8520724BF30C830C144BF0C
:1001800004680C607047000000230024002500264E
:10019000103A28BF78C1FBD8520728BF30C148BFEA
:1001A0000B6070471FB51FBD10B510BD00F045F9BD
:1001B0001146FFF7F7FF02F009FA00F063F903B404
:1001C000FFF7F2FF03BC00F06BF90000224B196847
:1001D0000868B0E8F00F80F30988BFF36F8F4FF025
:1001E000000080F311884EF00D0E704700000000F3
:1001F00006480068006880F3088862B661B6BFF3FD
:100200004F8FBFF36F8F00DF00BF00BF08ED00E02E
:10021000EFF30980BFF36F8F0F4B1A6820E9F00FDF
:10022000106008B54FF0500080F31188BFF34F8F76
:10023000BFF36F8F03F0B8F84FF0000080F3118820
:10024000BDE8084019680868B0E8F00F80F3098835
:10025000BFF36F8F704700BF14000020EFF30580DD
:10026000704700000948804709480047FEE7FEE75D
:10027000FEE7FEE7FEE7FEE7FEE7FEE7FEE7FEE756
:1002800004480549054A064B704700004B23000807
:1002900031010008A01A0020A0200020A01C00208E
:1002A000A01C0020032A40F2308010F0030C00F064
:1002B000158011F8013BBCF1020F624498BF11F8A0
:1002C00001CB00F8013B38BF11F8013BA2F1040259
:1002D00098BF00F801CB38BF00F8013B11F00303D1
:1002E00000F05780083AC0F0088051F8043B083A03
:1002F00051F804CBA0E80810F5E7121D5CBF51F8D7
:10030000043B40F8043BAFF30080D20724BF11F850
:10031000013B11F801CB48BF11F8012B24BF00F8B5
:10032000013B00F801CB48BF00F8012B704702F0F9
:10033000FF0343EA032242EA024200F05EB84FF0B4
:10034000000200B5134694469646203922BFA0E825
:100350000C50A0E80C50B1F12001BFF4F7AF090731
:1003600028BFA0E80C5048BF0CC05DF804EB890022
:1003700028BF40F8042B08BF704748BF20F8022B65
:1003800011F0804F18BF00F8012B7047704770477D
:10039000704710B5203AC0F00B80B1E81850203AF1
:1003A000A0E81850B1E81850A0E81850BFF4F5AF15
:1003B0005FEA027C24BFB1E81850A0E8185044BF9F
:1003C00018C918C0BDE810405FEA827C24BF51F80C
:1003D000043B40F8043B08BF7047D20728BF31F800
:1003E000023B48BF11F8012B28BF20F8023B48BF51
:1003F00000F8012B70474FF000020429C0F0128072
:1004000010F0030C3FF49DAFCCF1040CBCF1020FD3
:1004100018BF00F8012BA8BF20F8022BA1EB0C019C
:10042000FFF78FBF5FEAC17C24BF00F8012B00F803
:10043000012B48BF00F8012B7047754600F02CF8DF
:10044000AE4605006946534620F00700854618B0C1
:1004500020B5FFF715FFBDE820404FF000064FF034
:1004600000074FF000084FF0000B21F00701AC46E9
:10047000ACE8C009ACE8C009ACE8C009ACE8C00908
:100480008D46704710B50446AFF300802046BDE8A6
:100490001040FFF794BE000000487047401A00204B
:1004A00001491820ABBEFEE7260002007047FEE7B8
:1004B000014800F0C1B80000E0000020704772B6AB
:1004C000FEE710B590F821100022022905D0042182
:1004D000816380F82020012010BD01680B6823F0A3
:1004E0000E030B6001680B6823F001030B6090F8AA
:1004F0004030C46B012101FA03F3636080F82110DE
:1005000080F82020104610BD2DE9F05F90F82110F2
:100510000024022903D004218163012485E00168BD
:100520000A6822F00E020A6001680A6822F00102DD
:100530000A603F4E3E4FB215DFF8F4C0DFF8F0908E
:10054000DFF8ECA0DFF8E8B0DFF8E4E00168783F1E
:1005500013011502ACF1640CA9F15009AAF13C0A8F
:10056000ABF1280BAEF1140E4FF48018B14227D92D
:10057000B9420ED0614512D049451DD0514518D021
:10058000594518D0714501D1424615E0294EB14276
:1005900001D1012210E0274E1436B14201D11022C0
:1005A0000AE0244E2836B14206D0224A3C3291421B
:1005B00001D11A4600E02A461E49091F0A602BE0B5
:1005C000B94213D0614517D0494522D051451DD0BD
:1005D00059451DD0714501D142461AE0B14202D1C0
:1005E0004FF0807215E0134EB14201D1012210E0AC
:1005F000104E1436B14201D110220AE00D4E2836B9
:10060000B14206D00B4A3C32914201D11A4600E079
:100610002A46074980394A60012180F821100021CB
:1006200080F82010416B01B188472046BDE8F09F5B
:1006300080000240080402402DE9F05FC16B0A68A7
:1006400001680B68046C4FF0040808FA04F8844D44
:10065000844E854FDFF814C2DFF81492DFF814A23D
:10066000DFF814B2DFF814E218EA020F65D05FEA8F
:10067000437862D50A68920603D40A6822F004021D
:100680000A60DFF8F0814FF48062016808F1140815
:1006900013011402414524D9A9420DD0B1420FD013
:1006A000B9421AD0614515D0494515D0514501D1FF
:1006B000120312E0594501D104220EE0714501D127
:1006C00040220AE06D4D1435A94206D06B4A28320B
:1006D000914201D11A4600E022466749091F0A608B
:1006E00029E0A94213D0B14215D0B94220D06145CA
:1006F0001BD049451BD0514502D14FF4800217E071
:10070000414502D14FF0806212E0594501D10422E7
:100710000EE0714501D140220AE0584D1435A9423E
:1007200006D0564A2832914201D11A4600E02246AC
:100730004B4908394A60C16A71E04FF0020808FA73
:1007400004F818EA020F70D05FEA83786DD50A6862
:10075000920606D40A6822F00A020A60012180F893
:100760002110DFF810814FF40072016808F11408BD
:1007700013011402414524D9A9420DD0B1420FD032
:10078000B9421AD0614515D0494515D0514501D11E
:10079000120312E0594501D102220EE0714501D148
:1007A00020220AE0354D1435A94206D0334A2832BA
:1007B000914201D11A4600E022462F49091F0A60E2
:1007C00029E0A94213D0B14215D0B94220D06145E9
:1007D0001BD049451BD0514502D14FF4001217E000
:1007E000414502D14FF0007212E0594501D1022279
:1007F0000EE0714501D120220AE0204D1435A942B6
:1008000006D01E4A2832914201D11A4600E0224603
:10081000134908394A60002180F82010816A0029B4
:100820001CD0BDE8F05F0847FFE70825A54015424A
:1008300014D01A0712D50A6822F00E020A6090F846
:100840004020C36B012101FA02F25A60816380F8F3
:100850002110002180F82010016BE0E7BDE8F09F37
:10086000080002401C0002403000024044000240E8
:10087000580002406C000240080402401C04024080
:1008800030B560B11A4B026814219A4209D2194B53
:100890001344B3FBF1F18900016417490AE0012018
:1008A00030BD134B5B421344B3FBF1F1890001648B
:1008B0000F490839C163022180F82110136843F6FB
:1008C000F0718B43F0E901142143D0E902452C4338
:1008D0002143046921434469214384692143194325
:1008E000116000214163012242770177084630BD43
:1008F00008040240F8FFFDBF0000024070B5044646
:1009000000F010F90546601C02D004480078044449
:1009100000F008F9401BA042FAD370BD040000208B
:100920002DE9F84FDFF8C8910024A9F1040B234604
:100930000F2709F1040AABF1040ED1E00125A5400F
:1009400006EA0502AA4276D1DFF8A8C14E68A6EBF6
:100950000C0866452BD00DDC032E34D005DC36B3F5
:10096000012E19D0022E2FD11BE0112E16D0122EDF
:100970002AD119E0B8F5881F19D006DCB8F5803FF8
:1009800015D0B8F5801F1FD111E0B8F5001F0ED0AB
:10099000B8F5041F18D10AE0CB6815E0CB681B1D21
:1009A00012E0CB6808330FE0CB680C330CE08B68A7
:1009B0002BB1012B4FF0080303D0456104E0042361
:1009C00002E0056100E00023FF2A01D8064601E0AD
:1009D00000F104064FEA840501D9A5F12005D6F8F7
:1009E000008007FA05FC28EA0C0803FA05F548EA36
:1009F0000508C6F800804D68ED0070D53E4DAE6923
:100A000046F00106AE61AD6924F0030605F001056C
:100A100000953A4D06EB050CDCF80850A607360F9A
:100A200007FA06F825EA0805DFF8D480404503D127
:100A30004FF0000825E052E0DFF8C880404502D1C1
:100A40004FF001081DE0DFF8C080404502D14FF0B3
:100A5000020816E0DFF8B480404502D14FF00308E9
:100A60000FE0DFF8AC80404502D14FF0040808E009
:100A7000DFF8A080404502D14FF0050801E04FF0BB
:100A8000060808FA06F848EA0508CCF808804D6818
:100A9000D9F80060ED024D4601D5164300E09643BB
:100AA0002E604D68DAF80060AD02554601D5164358
:100AB00000E096432E604D68DBF80060AD035D46B4
:100AC00001D5164300E096432E604D68DEF80060C5
:100AD000ED03754601D5164300E096432E60641C75
:100AE0000A681646E2407FF429AFBDE8F88F00009F
:100AF00008040140000011100010024000000140F5
:100B000000080140000C01400010014000140140A9
:100B100000180140001C01400AB10161704709043E
:100B2000FBE70000014880687047000004000020D7
:100B300090F83D007047000070B5040025D094F88F
:100B40003D00002520B984F83C50204600F02EFBE3
:100B5000242084F83D002068016821F00101016033
:100B60002068016841F4004101602068016821F4B7
:100B70000041016000F08CFC4D4A6168914201D84F
:100B80004C4900E04C49884201D2012070BD4B49DC
:100B90002368B0FBF1F15E6826F03F060E435E600D
:100BA0006368934206D94FF4967359434FF47A73AE
:100BB000B1FBF3F12368491C1E6A26F03F0631435E
:100BC00019626168914210D84900401EB0FBF1F2F1
:100BD000521CC2F30B02042A01D2042022E0B0FB13
:100BE000F1F0401CC0F30B001CE0A268F2B301EB73
:100BF000C10303EB0116431EB3FBF6F35B1C43F486
:100C000080431B0549D092B301EBC10202EB0111F5
:100C1000401EB0FBF1F0401CC0F30B0040F48040DC
:100C200040F400402168CA694CF6FF739A431043B0
:100C3000C861D4E9071001432068026822F0C002AD
:100C400011430160D4E9030101432068826848F23E
:100C5000FF339A4311438160D4E9050108432168B9
:100C6000CA6822F0FF021043C86001E00EE016E0FF
:100C70002068016841F0010101602564202084F8AA
:100C80003D00256384F83E50002070BD01EB410615
:100C9000431EB3FBF6F35B1CB3E70120C2E701EB95
:100CA0004101401EB0FBF1F0401CC0F30B00B7E760
:100CB000A086010080841E0000093D0040420F0014
:100CC0002DE9FF4F81B089460446FFF72BFF05460B
:100CD00094F83D004FF0000820287DD1192301220F
:100CE00050492046009501F009F9002874D194F884
:100CF0003C00012870D0012084F83C002068016885
:100D0000C90703D1016841F0010101602068016851
:100D100021F400610160242084F83D00002626644F
:100D20004148E0624FF0011B20272068016841F430
:100D3000807101600095002259462046049B01F015
:100D4000DDF850B120680068C00502D54FF400708E
:100D50002064032005B0BDE8F08F216809F0FE0093
:100D60000861FFF7DFFE2168054648694969C0F35D
:100D70004000C1F380214FF0A00A0FE0FFF7D2FE40
:100D8000411B0498814200D808B984F83DA021682D
:100D900048694969C0F34000C1F3802194F83D20BF
:100DA000A02A02D008B90029E8D084F83D70206854
:100DB0004169C943890716D4016841F40071016093
:100DC000206841698069192301221649204600954F
:100DD00001F094F8B8B900E021E084F83D7084F89F
:100DE0003C600020B6E7016841F4007101602168B1
:100DF0006FF480604861192301220A49204600955A
:100E000001F07CF808B10120A4E7039808F101087B
:100E100080458AD384F83D7084F83C60F3E7022073
:100E200098E70000020010000000FFFF2DE9FF4FCF
:100E300083B00025DDE910799A4693460446DDF833
:100E400048800095FFF76EFE064694F83D00202886
:100E50007CD11923012285492046009601F04EF8E5
:100E60000028F5D194F83C0001286FD0012084F8C7
:100E70003C0020680168C90703D1016841F0010105
:100E800001602068016821F400610160222084F87B
:100E90003D00402084F83E0025646762A4F82A9053
:100EA000608D20857248E062CDE9008653465A463F
:100EB0002046049900F024FF00287DD1208DDFF822
:100EC000B491202768B1012814D002282068016855
:100ED0001ED041F480610160206841698069009002
:100EE000B6E02068416981690091016841F40071B0
:100EF0000160ADE02068016821F48061016072B694
:100F00002068416981690091016841F400710AE03B
:100F100041F40061016072B6206841698169009105
:100F2000016821F48061016062B691E0032868D80D
:100F300001280CD0022843464FF0000249462046C3
:100F400000960FD000F0DAFFB0BB10E08BE0324625
:100F50004146204601F078F870BB20680069616A5C
:100F600008706CE000F0CAFF30BB72B634E0206855
:100F7000016821F48061016072B620680069616ACD
:100F80000870606A401C6062208D401E2085608D64
:100F9000401E6085384846F2A8110068B0FBF1F0A9
:100FA000C0EBC00000EB80000090401E009008D015
:100FB00020684069C04300E029E040070CD5009854
:100FC000F3E744F8305F6773A573206940F02000B1
:100FD000206162B625731AE02068016841F400714F
:100FE000016020680069616A0870606A401C606284
:100FF000218D491E2185618D491E618562B621685A
:101000001BE032464146204601F01EF818B101208F
:1010100007B0BDE8F08F20680069616A0870606AF7
:10102000401C6062218D491E2185618D491E6185AC
:1010300021684A69D24352070AD409690170606A7B
:10104000401C6062208D401E2085608D401E6085A2
:10105000208D00287FF46AAF84F83D7084F83E50FC
:1010600084F83C50D4E70220D2E7000002001000D0
:101070000000FFFF04000100100000202DE9FF4FD9
:1010800083B09A46DDE9119793460446DDF8408027
:10109000FFF748FD054694F83D0020287FD119232D
:1010A000012240492046009500F028FF002876D113
:1010B00094F83C00012872D0012084F83C0020689C
:1010C0000168C90703D1016841F00101016020688E
:1010D000016821F400610160212084F83D00402076
:1010E00084F83E0000262664C4F82480A4F82A90E0
:1010F000608D20852C48E062CDE9007553465A4644
:101100002046049900F07AFE70B930E02A4639464C
:10111000204600F0D1FF58B1206C042804D120688B
:10112000016841F400710160012007B0BDE8F08F53
:10113000606A216800780861606A401C6062218DE5
:10114000491E89B22185628D521E628522685369CB
:10115000DB435B070BD469B100781061606A401C07
:101160006062208D401E2085608D401E6085208D30
:101170000028CBD12A463946204600F093FE0028AD
:10118000CAD154F83D0B016841F400710160202080
:1011900004F81E09E67766770020C6E7FFE702201D
:1011A000C3E70000020010000000FFFF70B586B02A
:1011B00000250646009501950295039500681A4999
:1011C00088422FD1194CA06940F00800A061A069A5
:1011D000694600F008000490C020009012200190A1
:1011E000032003901248FFF79BFBE06940F40010D6
:1011F000E061E069104C00F4001004900D48C4E96F
:1012000000058020C4E9025020202561C4E9055072
:101210000002E0612046FFF733FB08B1FFF74FF90A
:10122000B463666206B070BD005400400010024016
:10123000000C014080000240E0000020024881686C
:10124000027811448160704704000020074810B5FF
:10125000016841F010010160032000F071F80F20D7
:1012600000F006F800F024F8002010BD0020024035
:1012700070B50D4D04464FF47A712878B1FBF0F04B
:101280000A490968B1FBF0F000F0D8FA48B9102C0F
:1012900007D200222146501E00F032F800206C6078
:1012A00070BD012070BD000004000020100000206F
:1012B0000B4882B0816941F001018161816901F0CF
:1012C00001010091C16941F08051C161C0690022F2
:1012D00000F0805000900F21901E02B000F010B876
:1012E00000100240002809DB00F01F02012191409C
:1012F0004009800000F1E020C0F8001170470000B4
:10130000F0B40E4B1B680C46C3F30223C3F1070570
:10131000042D00D90425191D072901D2002300E05E
:10132000DB1E012606FA05F1491E214099409E4028
:10133000761E16403143F0BC01F037B90CED00E0E9
:10134000064900F0070208684FF6FF03184040EA1C
:101350000220034A10430860704700000CED00E0D3
:101360000000FA052DE9F0470F46050061D0434E15
:10137000306800F00700B84209D2306820F007005A
:1013800038433060306800F00700B84251D1286817
:101390003B4C810712D5400703D5606840F4E060FC
:1013A00060602878000703D5606840F46050606092
:1013B0006068A96820F0F000084360602878C007E2
:1013C00028D06868012810D02168022810D0890729
:1013D00000292EDA616821F0030101436160FFF703
:1013E000A1FB804641F288390DE021688903EFE7CF
:1013F0008901EDE7FFF796FBA0EB0801494502D90B
:101400000320BDE8F0876068696800F00C00B0EB6D
:10141000810FEFD1306800F00700B8420BD9306877
:1014200020F0070038433060306800F00700B84211
:1014300001D00120E5E72878400705D56068E96814
:1014400020F4E060084360602878000706D56068F3
:10145000296920F4605040EAC100606000F038F86B
:101460006168084AC1F30311515CC840064908602D
:1014700006480068FFF7FCFE0020C2E7002002409B
:1014800000100240EA3D0008100000200800002083
:101490000448054900684968044AC1F30221515CC7
:1014A000C84070471000002000100240FA3D0008BC
:1014B0000448054900684968044AC1F3C221515CE7
:1014C000C84070471000002000100240FA3D00089C
:1014D0000E4A51680E4801F00C03042B11D0082B62
:1014E0000FD10C48C1F38343C903C05C0AD55168CE
:1014F000084AC1F34041921E515C054A5043B0FB7B
:10150000F1F0704704494843704700000010024062
:1015100000127A00DA3D000800093D002DE9F84F7D
:10152000040070D02078C04DC00749D06868C0F36F
:101530008100012807D06868C0F38100022809D122
:101540006868C00306D52868800339D5606800281C
:10155000E7D035E06068B0F5803F0BD010B1B0F552
:10156000A02F11D0286820F480302860286820F44B
:10157000802002E0286840F480302860606890B1E4
:10158000FFF7D0FA06460AE0286840F48020286079
:10159000F0E700BFFFF7C6FA801B642873D82868FD
:1015A0008003F7D50CE0FFF7BDFA064605E000BF63
:1015B000FFF7B8FA801B6428F0D828688003F7D4B6
:1015C00020789A4E80074FF001094FF0000839D576
:1015D000686810F00C0F07D06868C0F3810002281B
:1015E00009D16868C00306D42868800714D520692B
:1015F000012808D110E02069B0B1C6F80090FFF7CB
:1016000091FA074605E00AE1FFF78CFAC01B0228B1
:10161000C4D828688007F7D52868616920F0F800E9
:1016200040EAC10028600DE0C6F80080FFF77AFAB2
:10163000074604E0FFF776FAC01B022823D8286883
:101640008007F7D4207800072CD57948A169D9B153
:10165000C0F80090FFF766FA074604E0FFF762FA69
:10166000C01B02280FD8686A8007F7D571484FF46D
:10167000FA510068B0FBF1F0009000BF0098411EE5
:101680000091FAD20EE080E0C0F80080FFF74AFA3D
:10169000074604E0FFF746FAC01B022875D8686ABF
:1016A0008007F7D42078400760D5E8690027C0009C
:1016B00008D4E86940F08050E861E869012700F04B
:1016C000805000905C480168C90513D401688346C6
:1016D00041F480710160FFF725FA824606E000BF01
:1016E000FFF720FAA0EB0A0064284ED8DBF80000D0
:1016F000C005F5D5E06801280AD008B1052813D047
:10170000286A20F001002862286A20F0040002E024
:10171000286A40F001002862E06841F2883B98B1F5
:10172000FFF700FA82460BE0286A40F004002862C6
:10173000EEE700BFFFF7F6F9A0EB0A0159455AD8CA
:10174000286A8007F6D50CE0FFF7ECF9824605E041
:10175000FFF7E8F9A0EB0A0159454CD8286A800741
:10176000F6D41FB1E86920F08050E861E06988B3E1
:101770006968C1F38101022944D00228C6F860805B
:1017800004D0FFF7CFF9044638E034E0FFF7CAF998
:10179000074604E0FFF7C6F9C01B02282BD82868CB
:1017A0008001F7D4206AB0F5803F05D16868A16850
:1017B00020F4003008436860D4E9080108436968F0
:1017C00021F4741108436860C6F86090FFF7AAF925
:1017D000044606E025E000BFFFF7A4F9001B02283D
:1017E00009D828688001F7D51BE000BFFFF79AF9F8
:1017F000001B022802D90320BDE8F88F2868800169
:10180000F4D40EE00128F7D06868226A00F4803131
:10181000914204D1616A00F47010884201D0012025
:10182000EAE70020E8E70000001002400000424222
:1018300080044242100000200070004010B5401E9D
:10184000B0F1807F01D3012010BD4FF0E024606132
:101850000F21601700F0A9FE0020A0610720206181
:10186000002010BD70477047F8B50168044608684D
:10187000CA684B6910F00F0F4FF0000559D003F004
:10188000010602F49077374365D0C10705D0D10532
:1018900003D5616C41F001016164410705D5D907A9
:1018A00003D0616C41F002016164810705D5D9075D
:1018B00003D0616C41F004016164010707D502F0B7
:1018C0002001314303D0616C41F008016164616C17
:1018D00000293AD0800604D5900602D5204600F0B3
:1018E00064FD20684069616CC0F38010090700D472
:1018F00060B3204600F032FD20684069400621D5E3
:101900002068143050E8001F21F0400140E8001228
:10191000002AF5D1E06BA8B16D494163E06BFEF799
:10192000F3FD002811D0E06B416B01B0BDE8F04041
:10193000084783060FD593060DD52046BDE8F8402D
:1019400000F033BD2046FFF78EFFF8BD2046FFF7BD
:101950008AFF6564F8BD266B2023012E7CD1C60664
:101960007AD5D60678D508684868009048694FF05F
:101970000206400640D5E16B086840680004000C90
:10198000E8D0A28D8242E5D9E085886920282DD053
:1019900020680C3050E8001F21F4807140E80012EC
:1019A000002AF5D12068143050E8001F21F0010111
:1019B00040E80012002AF5D12068143050E8001FDA
:1019C00021F0400140E80012002AF5D184F84230AD
:1019D000256320680C3050E8001F21F0100140E81A
:1019E0000012002AF5D1E06BFEF76BFD6663A08D57
:1019F000E18D401A81B22AE0A08DE18D401A81B2BA
:101A0000E08D0028A6D00029A4D022680C3252E82C
:101A1000000F20F4907042E80007002FF5D12068F5
:101A2000143050E8002F22F0010240E80027002F78
:101A3000F5D184F84230256320680C3050E8002F3F
:101A400022F0100240E80023002BF5D16663204607
:101A5000FFF708FFF8BDFFE705062BD5150629D5CA
:101A600094F841002128F5D1A068B0F5805F01D13C
:101A70002069B0B1206A411C216221680078486069
:101A8000E08C401E0004000CE084E3D12068C168B3
:101A900021F08001C1602068C16841F04001C1604F
:101AA000D8E7206A0088C0F308004860206A801CDC
:101AB0002062E5E74006CDD55006CBD5CA68204662
:101AC00022F04002CA6084F8413000F0C3F8C1E758
:101AD0004D23000870B5040004D094F8410000259F
:101AE00010B106E0012070BD84F84050204600F09F
:101AF00023F8242084F841002068C16821F40051B3
:101B0000C160204600F0B2FC2068016921F49041D8
:101B100001612068416921F02A0141612068C168A2
:101B200041F40051C1606564202084F8410084F8CC
:101B300042006563002070BD30B585B0002400947C
:101B40000194029403940068184988422CD11848E3
:101B5000816941F480418161816901F4804104918E
:101B6000816941F0040181618069124D00F0040037
:101B700004904FF400700090022001900320039025
:101B800069462846FEF7CCFE2815CDE900046946D3
:101B900028460294FEF7C4FE002205212520FFF707
:101BA000AFFB2520FFF79EFB05B030BD003801409C
:101BB000001002400008014070472DE9F843044638
:101BC00090F841001F4616460D46202802D00220FC
:101BD000BDE8F8837DB176B100206064212084F8EF
:101BE0004100FEF79FFFA6848046E684A068B0F51A
:101BF000805F02D003E00120EAE7206910B12E46A1
:101C000000250EE000260CE08021204600F08AFC32
:101C1000A0B9AEB116F8010B21684860E08C401EF7
:101C2000E084E08C43464FF0000200970028EBD19F
:101C30004FF04001204600F075FC30B10320C7E7AB
:101C400035F8020BC0F30800E6E7202084F84100D5
:101C50000020BDE77047FEE70EB54FF47A738DE8BC
:101C60000D000A460123A0210148FFF7DFF80EBD51
:101C70008C0000203EB501224FF47A758DE82500D6
:101C800013460A46A0211048FFF7F8F9040005D0D2
:101C900001462B460D220D48FFF78FFF0A48FEF73D
:101CA00047FF2028FAD14FF4967564232A46A021D5
:101CB0000548FFF705F80328F7D00348FEF738FF7B
:101CC0002028FAD120463EBD8C00002024010020AF
:101CD00001684A69D24352050FD46FF480624A61A9
:101CE000002140F8301F202242738173026942F0C4
:101CF0000402026101730120704700207047000058
:101D00002DE9F84F0446006889460B9D0168984606
:101D1000174641F4806101602068016841F48071D8
:101D2000016000954FF0011B0022594620460A9B96
:101D300000F0E4F84FF4007A40B120680068C00574
:101D400001D5C4F840A00320BDE8F88F216809F050
:101D5000FE0008612B46284920460A9A00F016F931
:101D6000F0BB20684169806900902A4620460A99A4
:101D700000F0A2F940B1206C04283AD12068016833
:101D800041F40071016034E0FEB2B8F1010F09D0F6
:101D90002168380A08612A4620460A9900F08CF921
:101DA0000028E8D1206806612A4620460A9900F0FA
:101DB00083F90028DFD12068016841F48071016057
:101DC00000950022594620460A9B00F097F800280B
:101DD000B3D1216809F0FF0040F00100086100E084
:101DE00007E02B46044920460A9A00F0CFF8002865
:101DF000AAD00120A8E70000020001002DE9F84365
:101E0000044600680D46DDE90897016898461646C5
:101E100041F4807101604B4600224FF001112046D1
:101E2000009700F06BF848B120680068C00502D543
:101E30004FF4007020640320BDE8F883216805F0AA
:101E4000FE0008613B464A461549204600F09EF8D0
:101E500088B920684169806900903A464946204621
:101E600000F02AF948B1206C042804D120680168E8
:101E700041F4007101600120DEE7F5B2B8F1010F15
:101E800009D02168300A08613A464946204600F0E8
:101E900013F90028E7D1206805610020CCE7000095
:101EA0000200010070B516460D4604461EE02046AD
:101EB000FFF70EFF08B1012070BD681C16D0FEF7B9
:101EC00031FE801BA84200D885B920684069C04314
:101ED00040070BD5002044F8300F20216173A07318
:101EE000216941F0200121612073E4E72068406905
:101EF000C0434007DBD4002070BD00002DE9F0474F
:101F0000984617460D460446C1F30746DDF8209073
:101F10002AE000BFB8F1FF3F26D0FEF703FEA0EB9A
:101F20000901414502D8B8F1000F1DD12068012EEA
:101F300016D0806925EA00000004000C12D00020B1
:101F4000B84211D1002044F8300F20216173A073F2
:101F5000216941F02001216120730120BDE8F08753
:101F60004069E7E70120EBE72068012E0AD080698D
:101F700025EA00000004000C06D00020B842C9D0B9
:101F80000020EBE74069F3E70120F7E72DE9F04790
:101F9000984616460D4604464FF000094FF0200AB9
:101FA000C1F3074723E020684069C043400515D4CA
:101FB0002068016841F40071016021686FF480605D
:101FC0004861C4F8309084F83DA084F83E90216CBC
:101FD00041F00401216484F83C9021E0701C06D09B
:101FE000FEF7A0FDA0EB0800B04203D816B1012F08
:101FF0001FD021E02068012F15D0806925EA00005C
:102000000004000C18D000BF44F8309F84F80DA0E5
:1020100084F80E90216941F02001216184F80C9030
:102020000120BDE8F087406925EA00000004000CAB
:10203000EAD12068406901E02068806925EA000053
:102040000004000CAFD1ECE72DE9F04100259046EB
:102050000E460446202728E04069C043C0060CD441
:1020600054F8301B6FF01000486144F8105967773E
:10207000A577206A2062257714E0FEF753FDA0EBD8
:102080000800B04200D886B920684069C0434006C5
:102090000BD544F8305F6773A573206940F02000CA
:1020A000206125730120BDE8F08120684169C943A2
:1020B0004906D1D40020F6E770B516460D46044611
:1020C0001EE02046FFF704FE08B1012070BD681C29
:1020D00016D0FEF727FD801BA84200D885B92068DE
:1020E0004069C04300060BD5002044F8300F202182
:1020F0006173A073216941F0200121612073E4E73D
:1021000020684069C0430006DBD4002070BD000099
:10211000094808B5416941F0010141614069002267
:1021200000F00100009005211120FFF7E9F8BDE85B
:1021300008401120FFF7D6B8001002400EB50D4A36
:1021400000210D4800F0DAFA0C49002380220860D3
:1021500002A91920CDE9000109A10B4801F01CFCDE
:10216000012806D14FF47A73082208A10A48FFF724
:1021700024FD0EBDB43D00087922000800000020B7
:102180006D795461736B00006126000870645041E2
:1021900053530D0A000000002401002030B585B023
:1021A000002414480094019402940394816941F03E
:1021B00008018161816901F008010491816941F0A0
:1021C0000401816180690C4D00F00400049001223B
:1021D00023212846FEF7A0FC232000900120CDE912
:1021E00001040320039069462846FEF799FB05B0D9
:1021F00030BD000000100240000C01400D4810B539
:102200000B4901600C49416000214FF4804281601C
:10221000C0E9031241618161C1610162FEF78CFC7A
:10222000002803D0BDE81040FEF749B910BD0000FA
:10223000005400408C000020801A06000C4810B5A5
:102240000A4901604FF4E1314160002181600C22B4
:10225000C160C0E904128161C161FFF73BFC002845
:1022600003D0BDE81040FEF72AB910BD0038014088
:1022700024010020FEE7FEE7104E4FF47A7440F68A
:10228000B835002220213046FEF746FC23460522C1
:102290000BA10D48FFF791FC2846FEF72FFB2346C4
:1022A00005220AA10848FFF788FC012220213046B8
:1022B000FEF732FC2846FEF721FBE2E7000C014066
:1022C0003132330D0A000000240100203435360D70
:1022D0000A00000010B5FEF7B1FF01F0B5FB0128C0
:1022E00003D0BDE8104001F0E5B810BD30B58FB0A7
:1022F00028216846FEF723F814210AA8FEF71FF8E4
:1023000001210804CDE90010002402940225049163
:10231000CDE907504FF4E01009906846FFF7FEF84A
:1023200008B172B6FEE70F20CDE90A054FF48060D0
:10233000CDE90C4002210AA80E94FFF713F80028FB
:1023400001D072B6FEE70FB030BD704710B5406ADD
:102350000021C185C184FFF786FA10BD01680C31E8
:1023600051E8002F22F4907241E80023002BF5D1B0
:102370000168143151E8002F22F0010241E80023E6
:10238000002BF5D1016B012909D101680C3151E80D
:10239000002F22F0100241E80023002BF5D120216C
:1023A00080F8421000210163704708B590F8421090
:1023B000222901D0022008BD82684FF480539A423E
:1023C00001D1016921B1816A9A421BD04AB10AE068
:1023D0000268816A5268C2F308020A80816A891C15
:1023E00008E0026972B10268526802F07F020A7066
:1023F000816A491C8162C18D491E0904090CC1858D
:1024000003D01BE002685268F1E70168CA6822F055
:102410002002CA600168CA6822F48072CA6001683A
:102420004A6922F001024A61202180F8421000210D
:102430004163026B012A03D0FFF7BEFB002008BDF9
:10244000016301680C3151E8002F22F0100241E8CD
:102450000023002BF5D101680A68D20602D50A686C
:1024600049680091818DFFF7FDF9E7E770B50446F3
:1024700000680169E26821F440511143016121695A
:10248000A0680843616908432168CA6841F20C6387
:102490009A430243CA6020684169A26921F44071ED
:1024A000114341611E492068884202D1FFF700F8BC
:1024B00001E0FEF7EDFF00EBC00101EB00126068E8
:1024C00064218000B2FBF0F3B3FBF1F36FF0180668
:1024D0007343B2FBF0F5B2FBF0F605EB8305322354
:1024E00003EB0515B5FBF1F5B6FBF1F605F0F005CC
:1024F00005EB0615B2FBF0F6B2FBF0F0B0FBF1F025
:102500006FF01802504306EB800003EB0010B0FBA5
:10251000F1F0216800F00F002844886070BD0000D1
:10252000003801402DE9F041984617460E46044612
:10253000069D27E0681C25D02DB1FEF7F3FAA0EB2D
:102540000800A8421ED920680C3050E8001F21F472
:10255000D07140E80012002AF5D12068143050E80C
:10256000001F21F0010140E80012002AF5D12020CF
:1025700084F8410084F84200002084F840000320E1
:10258000BDE8F0812068006836EA000004D0002031
:10259000B842CFD00020F3E70120F9E70148FFF768
:1025A00063B9000024010020FEE70907090E002896
:1025B00004DB00F1E02080F80014704700F00F0009
:1025C00000F1E02080F8141D70470000C2B0FEF753
:1025D0003DFEFFF78BFEFFF7E1FDFFF799FDFFF7EB
:1025E0000DFEFFF72BFE902000248DF80001214600
:1025F00040A8FFF73FFB4FF4807221466846FFF783
:102600002BFB9DF800004FF47A74902805D12346E7
:1026100009220CA10E48FFF7D0FA012220210D4813
:10262000FEF77AFA00F02EF8FFF788FD00F046F882
:102630002346082208A10648FFF7BFFA2046FEF706
:102640005DF9F5E7737563636573730D0A00000048
:1026500024010020000C014068656C6C6F0D0A00BD
:102660004FF47A742346052203A10548FFF7A5FA23
:10267000204600F0E5FDF5E77777770D0A000000CA
:1026800024010020EFF3058058B9EFF3108040B922
:1026900009490868022801D030B109E0EFF3118040
:1026A00030B16FF0050070470120086000207047CE
:1026B0004FF0FF30704700006400002010B5EFF3CA
:1026C000058060B9EFF3108048B90B49086802280B
:1026D00002D0012806D00BE0EFF3118040B16FF07B
:1026E000050010BD0220086000F012FE002010BDA1
:1026F0004FF0FF3010BD000064000020F0B585B041
:102700004FEA01034FF00004EFF305810394A1BBEE
:10271000EFF3108189BB21490968022902D1EFF347
:10272000118151BB48B3802618218DF8104004ADAB
:1027300042B3176807B13D4697691FB139467F1EFE
:10274000382F02D21779FF0702D0002005B0F0BD64
:10275000576907B1BE08D2F808C0BCF1000F0DD010
:10276000D4685C2C18D312693AB137B18DE80610E1
:102770003246294601F03DF903900DE0D7685FB974
:1027800012694AB903AACDE90012B2B2294601F092
:1027900003F9012800D003940398D7E764000020D0
:1027A0002DE9F041134C0F46054666692068001D6F
:1027B00000F016FC681C07D137B12168BDE8F04174
:1027C0000D48091D00F05CBC20683544B5424560E9
:1027D000216805D2A068BDE8F041091D00F038BCB1
:1027E0006068091D00F034FC206B854200D225632F
:1027F000BDE8F081140000205C0600202DE9F041C6
:10280000054600F049FC2D4C2069401C20612068E1
:102810002B4F10B1E06930B32BE02560206901280F
:1028200027D1002606EB860007EB800000F002FCB3
:10283000761C382EF6D3234800F0FCFB21481430D8
:1028400000F0F8FB1F48283000F0F4FB1D483C3036
:1028500000F0F0FB1B48503000F0ECFB19486060C2
:102860001430A06005E02068E96AC06A884200D898
:102870002560E06A401CE0626864E86AA1698842F9
:1028800000D9A06100EB800007EB8000291D00F05B
:10289000F7FB00F021FCE06900280CD02068E96A11
:1028A000C06A884207D208494FF080500860BFF3E1
:1028B0004F8FBFF36F8FBDE8F08100001400002040
:1028C000AC0100200C06002004ED00E038B500F05B
:1028D000E3FB104CA068C8B90F4800F0ABFB0E48F2
:1028E000143000F0A7FB0C482060143060600A4BE5
:1028F00000202833009003F1500210210A2000F03C
:10290000EFFDA06010B105A100F064FCBDE8384007
:1029100000F0E2BB5000002070060020546D7251A0
:102920000000000030B4026C0B46002A0BD0C168D6
:102930001144C1604468A14201D30168C16030BC48
:102940001846FDF7AFBC30BC70472DE9F041856BF0
:10295000174604460026026C82B1C7B1E068FDF755
:10296000A1FCE168206C091AE1602268914202D260
:102970006168081AE060022F16D017E02068A8B935
:10298000606801F0D9F80646002060600EE0A0689B
:10299000FDF788FC216CA0680844A060616888424B
:1029A00004D32068A06001E005B16D1E6D1CA56315
:1029B0003046BDE8F08110B5044690F8590058B192
:1029C00001280CD002280FD0502080F31188BFF3CB
:1029D0004F8FBFF36F8FFEE7206B00F091FB204617
:1029E000BDE8104000F08CBB10BD000010484FF453
:1029F0004061420706D0C01D0D4920F00700411A72
:102A0000C1F540610B4A00230144C2E900030839C3
:102A1000103A21F0070111604B600B600B1AC0E9FE
:102A2000001393604FF000405360D0607047000087
:102A3000400E002078000020144E154CA6F29C4752
:102A40004FF08058DFF84C9012E000BF00F024FBFC
:102A5000F068C568281D00F0C3FA2069401E206197
:102A6000E068401EE06000F037FB2846FFF7A3FF58
:102A7000E0680028EAD138680128F9D9C9F800804F
:102A8000BFF34F8FBFF36F8FF2E7000048060020BF
:102A90001400002004ED00E070B51D46049C51B107
:102AA000C4F80020C4E90F010121204600F04CFDCC
:102AB00084F84C5070BD2460F4E72DE9F0470E46D1
:102AC000DDE909841746824691009946089DA522B2
:102AD000206BFDF72CFC6FF00301206B01EB8701ED
:102AE000084420F00707780707D0502080F31188AA
:102AF000BFF34F8FBFF36F8FFEE72218315C82F870
:102B00003410315C11B1401C1028F6D3002684F833
:102B10004360382D00D33725E562C4E91356201DE4
:102B200000F093FA04F1180000F08FFA2461C5F167
:102B300038006462A061666584F858604A46514670
:102B4000384600F03BFA2060B8F1000F01D0C8F819
:102B50000040BDE8F087000030B5114900E01146A3
:102B60000A688242FBD34B685C18844203D14068F8
:102B700018444860084643681C18944209D1084C20
:102B8000103C2468A24209D052681A4442600A6884
:102B900012680260814200D0086030BD0460F9E72D
:102BA0007800002070B5002441600B4D0061914217
:102BB00006D8D11A8269914206D2011D686807E0E1
:102BC0009A4203D2994201D3012403E0011D2868EF
:102BD00000F03EFA204670BD5000002010B50446BB
:102BE00000F05AFAA06B28B15FF0000400F074FA0C
:102BF000204610BD0124F9E730B589B0304D55E0CD
:102C00000498002806DADDE90601059A9047049841
:102C100000284BDB069C606910B1201D00F0E0F934
:102C200002A800F0B9F8024604980A283ED2DFE86C
:102C300000F00505053D263705053D260598A169E7
:102C4000034601442046FFF7ADFF00B3616A20460A
:102C50008847E069012829D1002000900598A169E2
:102C6000002342181946204601F070F878B9502028
:102C700080F31188BFF34F8FBFF36F8FFEE7059886
:102C8000A06128B1811813462046FFF78BFF0DE0A5
:102C9000502080F31188BFF34F8FBFF36F8FFEE793
:102CA00094F82C0010B9204600F02AFA002204A95A
:102CB000A86800F09BFD0028A2D109B030BD00003B
:102CC000500000202DE9FC410F46054600F064FB52
:102CD00001A800F061F80446019818B100F0A4FFC3
:102CE000BDE8FC81224EAFB170680068A8B3002730
:102CF000291B3A46B06800F081FA00F095FF0028E1
:102D0000EED11C494FF080500860BFF34F8FBFF3E6
:102D10006F8FE5E7A542EBD800F086FF30682746C5
:102D2000C068C468201D00F05BF9E069012810D17B
:102D3000A0692B4641193A462046FFF733FF40B1C0
:102D400000200346014600902A46204600F0FEFF80
:102D500020B1616A20468847C2E707E0502080F32F
:102D60001188BFF34F8FBFF36F8FFEE70127BFE7D7
:102D70005000002004ED00E006484168096829B1D0
:102D80004168C968C9684968016370474FF0FF31FD
:102D9000FAE700001400002070B5054600F062FE5E
:102DA000064E04463069844203D200F009F801203F
:102DB00000E0002028602046346170BD50000020F3
:102DC000F8B5194D1FE0C068C4680668201D00F002
:102DD00007F9616A20468847E069012813D1A06994
:102DE0003044B04206D924616060211D286800F09B
:102DF0002FF908E0002003460146009032462046A5
:102E000000F0A4FF38B1286801680029DBD16968A7
:102E1000C5E90010F8BD502080F31188BFF34F8F33
:102E2000BFF36F8FFEE700005000002008484068A5
:102E3000401C4FF0500080F3118804D0BFF34F8F37
:102E4000BFF36F8FFEE7BFF34F8FBFF36F8FFEE7C8
:102E500080000020074C2068016841B1C068002153
:102E6000D0F80000FFF72EFFFFF7C6FEF3E70121C1
:102E70000020F7E7500000202DE9F041044600F063
:102E80000BF994F9455004F1240609E0606A48B151
:102E9000304600F091FE08B100F000FA6D1E6DB2F0
:102EA000002DF3DC4FF0FF3684F8456000F014F994
:102EB00000F0F2F894F9445004F1100709E0206999
:102EC00048B1384600F078FE08B100F0E7F96D1E11
:102ED0006DB2002DF3DC84F84460BDE8F04100F0F1
:102EE000FBB800002DE9F0410546002700F054FA38
:102EF000314E306808B9FFF779FDF06805424BD1D3
:102F0000C5B3083568070ED005F00700C0F108000A
:102F10000544680707D0502080F31188BFF34F8F16
:102F2000BFF36F8FFEE72DB37068854234D8224817
:102F3000103001460C6801E020460C466168A94249
:102F400002D221680029F7D131688C4224D0076869
:102F50002168016060680837411B10290FD960198A
:102F6000420708D0502080F31188BFF34F8FBFF382
:102F70006F8FFEE710E041606560FFF7EDFD61686F
:102F80007068401A7060B268904200D2B060F06819
:102F900001430020C4E9000100F046FE780707D095
:102FA000502080F31188BFF34F8FBFF36F8FFEE780
:102FB0003846BDE8F08100006800002010B5031F0E
:102FC0004FF080741C601B1F21F001011960191F54
:102FD000024B0B60143940380A6010BD2D2E0008DA
:102FE000D0E9013201699A60D0E901235A604A6848
:102FF000824201D182684A60002202610868401E54
:103000000860086870470000034B036003F15C0030
:10301000086080201060704788070020044B036020
:1030200003F15C0008604FF480701060704700008E
:10303000E409002000F108014FF0FF32C0E901125D
:10304000C16001610021016070470021016170478A
:1030500030B50B685A1C02D000F1080202E0026988
:1030600004E02246546825689D42FAD953684B60B3
:1030700099608A60516008610168491C016030BD37
:1030800042684A6093688B609368596091600861F8
:103090000168491C01607047502080F31188BFF31C
:1030A0004F8FBFF36F8F0A494868401C4860012862
:1030B0000CD10848006810F0FF0F07D0502080F3B3
:1030C0001188BFF34F8FBFF36F8FFEE7704700008B
:1030D0008000002004ED00E00849486828B1401E47
:1030E000486001D180F311887047502080F3118827
:1030F000BFF34F8FBFF36F8FFEE70000800000200B
:1031000070B5002827D0144DA0F108046168E86864
:10311000014207D1502080F31188BFF34F8FBFF3D6
:103120006F8FFEE722683AB1502080F31188BFF319
:103130004F8FBFF36F8FFEE78143616000F02CF982
:1031400060686968084468602046FFF705FDBDE8CF
:10315000704000F069BD70BD680000204FF0E020B5
:1031600000210161816105494FF47A720968B1FB60
:10317000F2F1491E416107210161704710000020F2
:1031800010B5FDF76BF8114910280ED300F1E020BF
:1031900090F8F0030A78904207D2502080F311880B
:1031A000BFF34F8FBFF36F8FFEE709480068896850
:1031B00000F4E060884207D9502080F31188BFF303
:1031C0004F8FBFF36F8FFEE710BD0000800000201F
:1031D0000CED00E010B5084B002200BF53F8324060
:1031E0001CB1521C082AF9D310BD43F8321003EB6E
:1031F000C201486010BD00006C01002070B515468A
:103200000E460446FFF748FF94F944100020491C7D
:1032100001D184F8440094F94510491C01D184F887
:103220004500FFF759FFA06B28B92A46314604F143
:10323000240000F051F82046BDE87040FFF71CBEA6
:1032400010B5020014D00F48806B38B1502080F3C5
:103250001188BFF34F8FBFF36F8FFEE700F09CF82C
:1032600000211046FFF79CFA00F0DEFC002807D191
:1032700005494FF080500860BFF34F8FBFF36F8F49
:1032800010BD00001400002004ED00E002498A6A2D
:103290000260496941607047140000200149012023
:1032A000486270471400002010B50C4650B109491F
:1032B00009681831FFF7CCFE2046BDE81040012117
:1032C000FFF76EBA502080F31188BFF34F8FBFF322
:1032D0006F8FFEE71400002070B514460D4668B1EC
:1032E0000A4909681831FFF7CBFE0CB14FF0FF35E2
:1032F00021462846BDE87040FFF752BA502080F3BF
:103300001188BFF34F8FBFF36F8FFEE714000020CB
:1033100030B587B00024039405AA04A903A8049437
:10332000FFF772FEDDE903010094CDE901100023EF
:1033300015A11748059A00F05CFB164D002868633C
:103340001FD000F0D3FC012809D0401C19D1502017
:1033500080F31188BFF34F8FBFF36F8FFEE75020CC
:1033600080F31188BFF34F8FBFF36F8F4FF0FF30A3
:1033700028630120E8616C6107B0BDE8304000F0CF
:1033800045B807B030BD000049444C45000000007E
:10339000392A0008140000200248816B491C81630F
:1033A0007047000014000020164810B5816B11B161
:1033B0000121416210BD002141628169124A01E090
:1033C000B9B1491E01EB810352F82330002BF7D02D
:1033D00001EB810302EB830202F1080453685B688E
:1033E0005360A34201D15B685360DA680260816177
:1033F00010BD502080F31188BFF34F8FBFF36F8F44
:10340000FEE7000014000020AC0100201CB5264996
:1034100008780190FF20087008788DF800009DF86A
:1034200000009DF8002000F0F000904207D05020EE
:1034300080F31188BFF34F8FBFF36F8FFEE79DF8C6
:1034400000001A4B00F0500018700720986005E04B
:103450009DF8002052008DF80020401E9DF80020AD
:103460001206F5D49860032807D0502080F3118805
:10347000BFF34F8FBFF36F8FFEE74FF4407098603C
:10348000019808700A48016841F470010160016800
:1034900041F070410160FFF761FE00205860FCF7C9
:1034A000A7FE00201CBD000000E400E0800000201A
:1034B00020ED00E010B5502080F31188BFF34F8F4E
:1034C000BFF36F8F00F0D4FA18B104494FF0805069
:1034D0000860002080F3118810BD000004ED00E0BA
:1034E00038B5049D18B153B1CAB181B120E0502064
:1034F00080F31188BFF34F8FBFF36F8FFEE750202B
:1035000080F31188BFF34F8FBFF36F8FFEE750201A
:1035100080F31188BFF34F8FBFF36F8FFEE739B190
:10352000502080F31188BFF34F8FBFF36F8FFEE7FA
:1035300050241C46012384F846302B460094FFF7A4
:10354000ABFA204638BD000070B50D46040025D00A
:10355000FFF7A2FDD4E90F20216802FB0011616092
:103560000021A1632168A1600A46D4E90F01401E31
:1035700000FB0121E16021464FF0FF3001F8440FCC
:10358000487004F110008DB1FFF754FD04F12400E0
:10359000FFF750FDFFF7A0FD012070BD502080F324
:1035A0001188BFF34F8FBFF36F8FFEE721690029AA
:1035B000F0D000F001FB0028ECD004494FF080501F
:1035C0000860BFF34F8FBFF36F8FE3E704ED00E0B8
:1035D0002DE9FF4782B01D468A464FF000080400DF
:1035E00003D0BAF1000F08D011E0502080F3118809
:1035F000BFF34F8FBFF36F8FFEE7206C38B15020C1
:1036000080F31188BFF34F8FBFF36F8FFEE7022D5A
:103610000AD1E06B012807D0502080F31188BFF356
:103620004F8FBFF36F8FFEE700F00EFA3F4F4FF062
:1036300000094FF0805648B9049838B1502080F303
:103640001188BFF34F8FBFF36F8FFEE7FFF724FDA5
:10365000A06BE16B884207D3022D05D00498D0B14E
:10366000B8F1000F1AD01EE02A4651462046FFF757
:103670006CF9616A19B104F1240000F09DFA20B1DF
:103680003E60BFF34F8FBFF36F8FFFF725FD012023
:1036900006B0BDE8F087FFF71FFD22E06846FFF7A0
:1036A000F5FD4FF00108FFF717FDFFF775FEFFF777
:1036B000F3FC94F94400401C01D184F8449094F93F
:1036C0004500401C01D184F84590FFF705FD04A991
:1036D000684600F027F930B12046FFF7CDFB00F037
:1036E000A3FA0020D4E7FFF7D7FCA06BE16B884278
:1036F00013D1FFF7F1FC04F110000499FFF7D4FD9A
:103700002046FFF7B9FB00F08FFA00289ED13E60FB
:10371000BFF34F8FBFF36F8F98E7FFF7DDFC2046B5
:10372000FFF7AAFB00F080FA90E7000004ED00E04C
:103730002DE9F0471F4690468946040003D0B9F1B1
:10374000000F08D011E0502080F31188BFF34F8F95
:10375000BFF36F8FFEE7206C38B1502080F31188E3
:10376000BFF34F8FBFF36F8FFEE7022F0AD1E06BDD
:10377000012807D0502080F31188BFF34F8FBFF38B
:103780006F8FFEE7FFF7FCFC5020EFF3118680F30C
:103790001188BFF34F8FBFF36F8FA06BE16B88422F
:1037A00006D3022F04D0002086F31188BDE8F087ED
:1037B00094F945503A4649462046FFF7C6F8681C3A
:1037C00004D06D1C84F845500120EDE7606A0028A4
:1037D000FAD004F1240000F0EFF90028F4D0B8F199
:1037E000000FF1D00121C8F80010EDE72DE9F747EF
:1037F000002683B08A46040003D0BAF1000F08D037
:1038000011E0502080F31188BFF34F8FBFF36F8F0B
:10381000FEE7206C38B1502080F31188BFF34F8F42
:10382000BFF36F8FFEE700F00FF9DFF8F4804FF081
:1038300000094FF0805748B9059838B1502080F3FF
:103840001188BFF34F8FBFF36F8FFEE7FFF724FCA4
:10385000A56BC5B151462046FFF764F86D1EA56300
:10386000206950B104F1100000F0A6F928B1C8F8A1
:103870000070BFF34F8FBFF36F8FFFF72DFC012058
:1038800006B0BDE8F087059808B11EB106E0FFF765
:1038900023FC27E06846FFF7F9FC0126FFF71CFC34
:1038A000FFF77AFDFFF7F8FB94F94400401C01D1C3
:1038B00084F8449094F94500401C01D184F8459067
:1038C000FFF70AFC05A9684600F02CF800282046FE
:1038D0000AD0FFF7D1FA00F0A7F92046FFF77EF9EA
:1038E0000028B3D00020CBE7FFF778F990B104F1BE
:1038F00024000599FFF7D8FC2046FFF7BDFA00F039
:1039000093F90028A2D1C8F80070BFF34F8FBFF31E
:103910006F8F9BE72046FFF7AFFA00F085F995E738
:1039200004ED00E02DE9F0410C46050011D0C4B1D2
:10393000FFF7B2FB174B5A696E682068911B471C52
:1039400017D02F689B6A9F4219D0964217D801243E
:1039500010E0502080F31188BFF34F8FBFF36F8FBB
:10396000FEE7502080F31188BFF34F8FBFF36F8FB6
:10397000FEE70024FFF7B0FB2046BDE8F081884257
:1039800005D9401A20602846FFF780FCF1E70020A7
:103990002060DCE7140000202DE9FF5F8346DDE9AD
:1039A0000E87994616468A469000FFF79BFA050057
:1039B0001CD05C20FFF796FA040014D00020256389
:1039C00084F85900CDE90240CDE900874B463246E4
:1039D00051465846FFF771F82046FEF70FFF0120C9
:1039E00004B0BDE8F09F2846FFF78AFB4FF0FF3098
:1039F000F6E7F0B585B0DDE90B640A9DA6B1DCB150
:103A00005C2700972663022684F85960002604AFDD
:103A1000CDE90246CDE90057FFF74FF82046FEF703
:103A2000EDFE049805B0F0BD502080F31188BFF37F
:103A30004F8FBFF36F8FFEE7502080F31188BFF3E5
:103A40004F8FBFF36F8FFEE70548C16919B1806BD7
:103A500018B1002070470120704702207047000015
:103A60001400002001484069704700001400002045
:103A70002DE9F0412E4C0027A06B40B1206A401C7C
:103A80002062606A00B101273846BDE8F0816669AE
:103A9000761C666113D16068006838B1502080F3ED
:103AA0001188BFF34F8FBFF36F8FFEE76068A16887
:103AB0006160A060A06A401CA062FFF75DF9206B06
:103AC000DFF87080864209D36068006880B1606862
:103AD000C068C568686886420DD220632068C06AE5
:103AE00000EB800158F821000128CAD90127C8E756
:103AF0004FF0FF30F1E7281DFFF772FAA86A18B1FE
:103B000005F11800FFF76CFAE86AA169884200D94C
:103B1000A06100EB800108EB8100291DFFF7B0FADE
:103B2000E86A2168C96A8842CED30127CCE7000041
:103B300014000020AC01002070B504004FF000011B
:103B400033D01B4D2868844207D0502080F3118861
:103B5000BFF34F8FBFF36F8FFEE7206D38B1401E6C
:103B60002065E36CE26A9A421FD040B11DE050200C
:103B700080F31188BFF34F8FBFF36F8FFEE7201DD7
:103B8000FFF72EFAE06CE062C0F13800A061E06A55
:103B9000A969884200D9A861064900EB800001EBC1
:103BA0008000211DFFF76CFA0121084670BD00005E
:103BB00014000020AC01002070B5C068C46854B186
:103BC00004F118000646FFF70BFA144DA86B50B12C
:103BD0003146134815E0502080F31188BFF34F8F12
:103BE000BFF36F8FFEE7201DFFF7FAF9E06AA969BE
:103BF000884200D9A8610B4900EB800001EB8000EE
:103C0000211DFFF73DFAE06A2968C96A884202D996
:103C10000120686270BD002070BD0000140000200B
:103C200034060020AC0100202DE9F0472C4D002483
:103C30002746A86B38B1FFF72FFAA86B401EA86380
:103C4000A86B40B146E0502080F31188BFF34F8F3E
:103C5000BFF36F8FFEE72969224E0120D1B3A6F58D
:103C6000916980463068E0B1F068C46804F11800DA
:103C7000FFF7B6F9201DFFF7B3F9E06AA96988429A
:103C800000D9A86100EB800109EB8100211DFFF73D
:103C9000F7F9E06A2968C96A8842E3D3C5F8248045
:103CA000E0E70CB1FFF768F82C6A4CB14FEA080660
:103CB000FFF7DEFE00B16E62641EF9D100202862BB
:103CC000686A38B10849012738070860BFF34F8F89
:103CD000BFF36F8FFFF700FA3846BDE8F0870000AA
:103CE000140000203406002004ED00E010B586B07A
:103CF000FEF7ECFD114CA068B8B1002003900490D1
:103D000005AA04A903A8FFF789F9DDE90321022028
:103D10008DE8070000230AA10B48059AFFF769FE0A
:103D2000E06010B106B0012010BD502080F3118872
:103D3000BFF34F8FBFF36F8FFEE7000050000020EE
:103D4000546D722053766300552E00082DE9FF4113
:103D50001E46134602000A9D4FF0000016D0144C78
:103D6000A768002F0FD0CDE900130292062917DAB9
:103D7000FFF76AFE02284FF000030FD000226946C9
:103D8000A068FFF725FC04B0BDE8F081502080F367
:103D90001188BFF34F8FBFF36F8FFEE72A46EEE720
:103DA0000023324669463846FFF7C2FCEBE70000C5
:103DB00050000020043E0008000000000000000049
:103DC00000000000000000000002000018000000D9
:103DD00000000000000000000102020304050607C5
:103DE00008090A0B0C0D0E0F101000000000000057
:103DF0000000010203040607080900000000010298
:103E00000304000064656661756C745461736B0033
:103E1000303E0008000000208C0000006C0100080B
:103E2000BC3E00088C00002014200000880100081F
:103E30000000000001000000100000000000000071
:103E40000024F4000000000000000000000000005A
:103E50000000000000000000000000000000000062
:103E60000000000000000000000000000000000052
:103E70000000000000000000000000000000000042
:103E80000000000000000000000000000000000032
:103E90000000000000000000000000000000000022
:103EA0000000000000000000000000000000000012
:0C3EB00000000000AAAAAAAA000000005E
:0400000508000131BD
:00000001FF
