:1000000010910020ED07010099F400009BF400001E
:10001000A3F40000A5F40000A7F400000000000015
:10002000000000000000000000000000A9F4000033
:10003000ABF4000000000000ADF40000AFF40000DD
:10004000690901006D0901007109010075090100CC
:10005000790901007D090100BF4E000085090100FA
:1000600089090100DB4E000091090100950901009A
:10007000990901009D090100A1090100A5090100DC
:10008000A9090100AD090100B1090100B50901008C
:10009000516F0000BD090100C1090100D56A0000CF
:1000A000C9090100CD090100D1090100D5090100EC
:1000B00089810000DD090100ED890000E5090100EA
:1000C000E9090100ED090100F1090100F50901004C
:1000D000F9090100C763000097640000176600007B
:1000E000476B00000D0A0100110A0100000000002A
:1000F0000000000000000000000000000000000000
:100100000000000000000000194A0000190A010068
:10011000A168000051690000250A0100290A0100B8
:100120002D0A0100310A0100350A0100390A0100D7
:100130003D0A0100410A0100450A0100490A010087
:10014000E7710000510A0100550A0100590A010037
:1001500038B505000C0002F0C8FF002808D1DFF810
:100160002C2BDFF82C1B200004F049FB002071E051
:10017000DFF8201B280004F0AAFA002808D0DFF8D6
:10018000141B280004F0A3FA4069DFF82C1D086056
:10019000DFF8041B280004F09AFA002808D0DFF8E2
:1001A000F81A280004F093FA4069DFF8F01A0860A2
:1001B000DFF8EC1A280004F08AFA002808D0DFF8EB
:1001C000E01A280004F083FA4069DFF8D81A0860C2
:1001D000DFF8E40C0068643842F2AD61884208D36D
:1001E000DFF8C42ADFF8A81A200004F008FB00207A
:1001F00030E0DFF8A80A006814280BD3DFF8A40A5F
:10020000006800280FD0DFF8940A006840F6B93182
:10021000884208D3DFF8942ADFF8741A200004F02B
:10022000EEFA002016E0DFF87C0A0068002808D00B
:10023000DFF8680A0168DFF8800C006802F0D1FF7F
:1002400007E0DFF8580A0168DFF86C0C006803F07B
:100250001FF8012032BD38B505000C0002F045FF43
:10026000002808D1DFF8242ADFF8241A200004F03F
:10027000C6FA002044E0DFF8A41B280004F027FAA7
:10028000002808D0DFF8941B280004F020FA406909
:10029000DFF88C1B0860DFF8001A280004F017FA5A
:1002A000002808D0DFF8F019280004F010FA40699F
:1002B000DFF8081C0860DFF8040C00683238B0F57D
:1002C000E17F08D9DFF85C2BDFF8C419200004F0C7
:1002D00096FA002014E0DFF8E40B0168DFF8400B29
:1002E000006803F030F8DFF8402BDFF8D00B00682F
:1002F0000A21B0FBF1F189B2052004F0D4FB012002
:1003000032BD80B50800DFF8B82BDFF8B81B04F069
:1003100076FA012002BD70B582B004000D0000A87D
:10032000002101800026DFF8A01B200004F0CFF997
:10033000002806D0DFF8901B200004F0C8F90669F9
:1003400000E000AE002E04D0300004F0D7FB4128BE
:1003500008D3DFF8782BDFF83819280004F04FFABB
:10036000002006E03100DFF8680B04F0F3FB04F036
:1003700040FC76BD10B50C0004F049FC00280FD0FD
:10038000DFF8500B006FDFF8501B884208D1DFF810
:10039000402BDFF8341B200004F031FA012006E086
:1003A00077A2DFF8241B200004F029FA002010BDFA
:1003B00070B5ADF5C46D0C00012503A804F09BFDDC
:1003C000050005F0D9F903AADFF8101B10A805F005
:1003D000EBFB02AA0321002005F029FA00280DD02A
:1003E000029805F0FBFB02000B00DFF8F41A03A8EB
:1003F00005F0DAFB03A910A805F017FC02AA0321F7
:10040000012005F014FA00280DD0029805F0E6FB53
:1004100002000B00DFF8CC1A03A805F0C5FB03A906
:1004200010A805F002FC02AA0021002005F0FFF947
:1004300000280DD0029805F0D1FB02000B00DFF878
:10044000A81A03A805F0B0FB03A910A805F0EDFB5E
:1004500002AA0021012005F0EAF900280DD0029837
:1004600005F0BCFB02000B00DFF8801A03A805F0C2
:100470009BFB03A910A805F0D8FB02AA01210020CC
:1004800005F0D5F900280DD0029805F0A7FB020071
:100490000B00DFF85C1A03A805F086FB03A910A87F
:1004A00005F0C3FB02AA0121012005F0C0F90028D4
:1004B0000DD0029805F092FB02000B00DFF8341A11
:1004C00003A805F071FB03A910A805F0AEFB02AA72
:1004D0000221002005F0ABF900280DD0029805F0AC
:1004E0007DFB02000B00DFF8101A03A805F05CFB8F
:1004F00003A910A805F099FB02AA0221012005F02A
:1005000096F900280DD0029805F068FB02000B0058
:10051000DFF8E81903A805F047FB03A910A805F0C8
:1005200084FB002620E00C2002AA96FBF0F100FBE1
:10053000116010F11001C9B20C2096FBF0F0C0B2AE
:1005400005F075F900280ED0029805F047FBCDE9BB
:1005500000013200DFF8A81903A805F025FB03A964
:1005600010A805F062FB761C182EDCDB10AADFF861
:100570002017200004F043F928000DF5C46D70BD6C
:100580000000000070B5ADF5007D05000C00DFF83F
:100590007419280004F09BF8002808D0DFF86419CB
:1005A000280004F094F84069DFF85C190860DFF86F
:1005B00058090068002803D0DFF84C0901210160C8
:1005C000DFF84819280004F082F8002808D0DFF886
:1005D0003C19280004F07BF84069DFF83419086002
:1005E000DFF82C090068002804D0DFF8240900682F
:1005F000062808D3DFF81C29DFF89416200004F041
:10060000FEF800206AE0DFF800090068002831D019
:100610000026DFF80419280004F059F800690600E4
:10062000002E04D0300004F069FA002808D1DFF869
:10063000EC28DFF85C16200004F0E1F800204DE023
:10064000300004F05BFAB0F5FA7F08D9DFF8D02863
:10065000DFF83C16200004F0D2F800203EE0300025
:1006600004F04CFA02003100DFF8A408006805F03D
:10067000E8FD33E0DFF8AC18280004F028F80500A6
:10068000280003F0D4FF0600B6F5FA7F08DDDFF896
:100690009028DFF8FC15200004F0B1F800201DE0E0
:1006A000002E08D1DFF88028DFF8E415200004F0E0
:1006B000A6F8002012E0002407E02100280003F043
:1006C000D3FF406900A96054641CB442F5DB3200DA
:1006D00000A9DFF83C08006805F0B3FD0DF5007DCA
:1006E00070BDF0B5ADF5017D05000C000026DFF80A
:1006F0001418280003F0EBFF002808D0DFF80418D6
:10070000280003F0E4FF4069DFF820180860DFF8F4
:100710001C080068002803D0DFF8100801210160E0
:10072000DFF8E817280003F0D2FF002808D0DFF830
:10073000DC17280003F0CBFF4069DFF8F4170860EE
:10074000DFF8EC070068002804D0DFF8E407006851
:10075000062808D3DFF8BC27DFF83415200004F0A2
:100760004EF800206CE00025DFF8C007006805F0B7
:10077000DBFD02000B00DFF88C17200004F024F8EA
:10078000DFF8A8070068002815D1DFF8A407006883
:10079000032804D0DFF89807006804280BD1002153
:1007A00000A804F0ACF80200DFF87817200004F08D
:1007B00000F8002044E000A9DFF87407006806F0A4
:1007C000F1F80600002E10D1002100A804F097F8DF
:1007D0000200DFF85017200003F0EBFF1AA2DFF849
:1007E0003817200004F00BF826E0DFF84007006817
:1007F000002809D000A80021315400AADFF81817FA
:10080000200003F0FCFF17E004F065F80500002766
:100810000AE000A8385C05F087FD04F00FF801003D
:10082000280003F085FF7F1CB742F2DB2A00DFF8C7
:10083000F416200003F0BDFF1F2006F003F930007E
:100840000DF5017DF0BD000000000000F0B583B0A3
:1008500004000D00DFF8E01B200003F038FF002843
:1008600008D0DFF8D41B200003F031FF4069DFF827
:10087000CC1B0860DFF8C40B0068002804D1DFF847
:10088000BC0B0121016008E0DFF8B00B0068032811
:1008900003D3DFF8A80B02210160DFF8A41B2000BE
:1008A00003F015FF002808D0DFF8941B200003F0A8
:1008B0000EFF4069DFF88C1B0860DFF8880B0068CA
:1008C000002803D0DFF87C0B01210160DFF8781BE2
:1008D000200003F0FCFE002808D0DFF86C1B20008D
:1008E00003F0F5FE4069DFF8641B0860DFF8601B69
:1008F000200003F0ECFE002808D0DFF8541B200095
:1009000003F0E5FE4069DFF84C1B0860DFF8440B9C
:100910000068012804DBDFF83C0B0121016009E0DD
:10092000DFF8300B0068002804D5DFF8280B5FF0F3
:10093000FF310160DFF8201B200003F0C8FE002813
:1009400008D0DFF8141B200003F0C1FE4069DFF877
:100950000C1B0860DFF8040B0068002804D1DFF8E6
:10096000FC0A0121016008E0DFF8F00A00680A28AB
:1009700003D3DFF8E80A09210160DFF8E41A200058
:1009800003F0A5FE002808D0DFF8D41A200003F0F9
:100990009EFE4069DFF8701C0860DFF86C0C006890
:1009A0000A2803D2DFF8600C0A210160DFF8A40AEC
:1009B000006800280DD5DFF8840A0068012803D1FB
:1009C000072004F060F802E0082004F05CF8012041
:1009D0005AE1DFF85015200003F079FE07003800D7
:1009E00003F025FE0600092E07DBDFF8202CA849BE
:1009F000280003F004FF002046E1002507E029005D
:100A0000380003F031FE406900A968546D1CB542FE
:100A1000F5DBDFF8280A0068012862D1DFF8F00B67
:100A20000068401CDFF8E81B0860DFF8E40B006892
:100A30000A2803DBDFF8D80B00210160DFF8040A85
:100A40000068002816D0DFF8C80B00681421DFF812
:100A5000C42B01FB002004210172DFF8B40B0068F5
:100A60001421DFF8B02B01FB0020DFF8E019096842
:100A7000416015E0DFF8980B00681421DFF8942B33
:100A800001FB002000210172DFF8840B00681421B3
:100A9000DFF8802B01FB0020DFF8B0190968016046
:100AA000DFF86C0B00681421DFF8682B01FB0020D5
:100AB00000214172DFF8580B00681421DFF8542B35
:100AC00001FB00208672320000A9DFF8440B0068A9
:100AD0001423DFF8405B03FB00500B3006F0A5F851
:100AE00061E0DFF8380B0068401CDFF8301B08605D
:100AF000DFF8280B00680A2803DBDFF8200B002151
:100B00000160DFF840090068002816D0DFF80C0B00
:100B100000681421DFF8082B01FB0020042101727A
:100B2000DFF8F80A00681421DFF8F42A01FB00203E
:100B3000DFF818190968416015E0DFF8E00A00687D
:100B40001421DFF8DC2A01FB002000210172DFF80C
:100B5000CC0A00681421DFF8C82A01FB0020DFF866
:100B6000EC1809680160DFF8B40A00681421DFF8A6
:100B7000B02A01FB002000214172DFF8A00A0068C2
:100B80001421DFF89C2A01FB00208672320000A9A4
:100B9000DFF8880A00681423DFF8845A03FB00504A
:100BA0000B3006F042F8DFF87C1A200003F08FFDCE
:100BB000002808D0DFF86C1A200003F088FD406997
:100BC000DFF8641A0860DFF8600A0068002803D0C4
:100BD000DFF8540A01210160DFF84C0A00680028A0
:100BE00005D0DFF858080068C0B206F053FCDFF803
:100BF0006408006800282BD0DFF84008006802284D
:100C000012D1DFF8280ADFF8541809680160DFF80C
:100C1000202ADFF8F40900680A21B0FBF1F189B25B
:100C2000082003F040FF11E0DFF8080ADFF82C1875
:100C300009680160DFF8002ADFF8CC0900680A21A2
:100C4000B0FBF1F189B2072003F02DFF01201BE07A
:100C5000DFF8E807006802280BD1DFF8C009006858
:100C60001421DFF8BC2901FB0021022006F015FB4E
:100C70000AE0DFF89C0900681421DFF8982901FBDD
:100C80000021012006F009FBFEBD0000FCF600007B
:100C900000080100080801006C0601006001002046
:100CA00010080100CC300020D4F90000FCF3000053
:100CB0002DE9F04385B005000C00602005F0C2FE70
:100CC000DFF87417280003F002FD002808D0DFF8D1
:100CD0006817280003F0FBFC4069DFF86019086022
:100CE000DFF858090068002804D1DFF85009012115
:100CF000016008E0DFF844090068032803D3DFF847
:100D00003C0902210160002503F0E5FD05000026F5
:100D1000DFF828090068022804D100A806F092FA3A
:100D2000060003E000A806F04DF90600002E0FD1E2
:100D300000220023DFF8301C200003F045FDDFF81F
:100D4000042CDFF8281C200003F059FD002061E08E
:100D500003F0CBFD07005FF0000803F0BCFD804608
:100D60005FF000090DE000A819EB0000C07A05F063
:100D7000DBFA03F063FD0100404603F0D9FC19F1F2
:100D800001099DF80A008145EDDB424665493800BE
:100D900003F00FFD9DF80800002812D00022DFF8B4
:100DA000D03BDFF89C16380003F00EFD019805F0EB
:100DB000BBFA02000B00DFF89016380003F004FDC8
:100DC00010E000220023DFF87816380003F0FCFC66
:100DD000009805F0A9FA02000B00DFF86C16380045
:100DE00003F0F2FC3900280003F0A2FC701E012879
:100DF0008EDA701E05F08EFA02000B00DFF8681B19
:100E0000200003F0E1FC2A00DFF8C41C200003F0FE
:100E1000D0FC012005B0BDE8F08300007806010099
:100E200064010020FCF900009F3300002DE9F0412F
:100E30000C00DFF8AC1B03F04AFC050003F04BFD8F
:100E40000600280003F0F3FB0700002F08D1DFF8AD
:100E50001C2CDFF8181B200003F0D1FC002029E037
:100E60005FF000080CE0C0B206F044FC05F05CFA4C
:100E700003F0E4FC0100300003F05AFC18F1010813
:100E8000B84510DA4146280003F0EEFB4069011E28
:100E90001729E8D3DFF8102CDFF8D01A200003F070
:100EA000AEFC002006E03200DFF8281C200003F032
:100EB00080FC0120BDE8F0815C0100206801002079
:100EC00060040100840601001808010080F500009C
:100ED0002500002000000020D5A6A249200801001E
:100EE000DCFF0000C4FE0000E8FA000024FA000065
:100EF0000CFB00004CFA0000E4FD000030FB000099
:100F000030020100900601006C0100202808010059
:100F10007001002054FB00008404010078FB0000F5
:100F2000E0FE0000940401009CFB0000740100201E
:100F3000780100202DE9F04F87B004008846DFF8E3
:100F4000A01A200003F0C3FB002808D1DFF8882B8B
:100F5000DFF8181A404603F052FC002066E2DFF882
:100F6000801A200003F0B3FB0590059803F05FFBA7
:100F700004900498002808D1DFF8F02ADFF8EC1973
:100F8000404603F03CFC002050E20498052808DBB2
:100F9000DFF8482BDFF8D419404603F030FC00207E
:100FA00044E25FF07E595FF0000A5FF0000B00251D
:100FB0000026002773E000A850F82700E821DFF89A
:100FC000C82D01FB0029300006F0CEFB04F006FE20
:100FD0000022DFF80C3B06F0EFFB82468B4600A8B0
:100FE00050F82700E821DFF8A02D01FB002090F841
:100FF000C800401E05F08EF952465B4606F004FD1F
:1010000006F0D4FDC9F8D80000A850F82700E82160
:10101000DFF8742D01FB002900A850F82700E82113
:10102000DFF8642D01FB0020D0F8D80006F006FEA2
:1010300089F8D400DFF8AC1A200003F048FB002840
:1010400006D1DFF8A41A200003F041FB002825D0C8
:1010500000A850F82700E821DFF82C2D01FB00291B
:1010600000A850F82700E821DFF81C2D01FB002024
:1010700090F8C80006F082FB00A951F82710E8227A
:10108000DFF8043D02FB0131D1F8CC1006F0F8FD89
:10109000DFF8581A06F060FEC9F8D0007F1C0498EB
:1010A000874280F2AB813900059803F0DDFA406990
:1010B00000A941F8270000A850F82700042803DB06
:1010C00000A8032140F8271000A850F827000028A6
:1010D00003D500A8002140F82710DFF80C1A2000E3
:1010E00003F0F5FA0500002D4AD0280003F09FFA1E
:1010F0008146B9F1000F39D0B9F1C80F01DB5FF0BB
:10110000C8095FF0000A01E01AF1010ACA4517DABE
:101110005146280003F0A8FA4069B0F5805F06DA6E
:101120005146280003F0A0FA40690028ECD5DFF80A
:10113000C029DFF83818404603F061FB002075E154
:101140005FF0000A10E000A850F82700E821DFF85F
:10115000382C01FB002B5146280003F085FA40692A
:101160002BF81A001AF1010ACA45ECDB00A850F866
:101170002700E821DFF8102C01FB002080F8C89040
:1011800000A850F82700E821DFF8FC2B01FB002025
:10119000D0F8CC90DFF84C19200003F098FA002822
:1011A0000AD0DFF84019200003F091FA0200D2E9DA
:1011B000060106F0FBFC81464846DFF8D41B06F02A
:1011C00049FE01D2DFF8CC9B4846DFF8CC1B06F085
:1011D00053FE01D8DFF8C49B00A850F82700E8218F
:1011E000DFF8A42B01FB0020D0F8DCA091A12000A7
:1011F00003F06DFA002805D08EA1200003F067FAF5
:10120000D0F814A0BAF1000F01D55FF0000A47F240
:101210003150824501DB47F2305A00A850F82700D0
:10122000E821DFF8642B01FB0020D0F8E0B0DFF804
:10123000701B200003F04BFA002806D0DFF8601B7B
:10124000200003F044FAD0F814B0BBF1000F01D530
:101250005FF0000B47F23150834501DB47F2305B12
:1012600000A850F82700E821DFF81C2B01FB002024
:1012700090F8E450DFF82C1B200003F028FA002837
:1012800005D0DFF8201B200003F021FA4569002D6E
:1012900000D00125DFF8101B200003F018FA002809
:1012A00005D0DFF8041B200003F011FA4669002E78
:1012B00000D500264FF4B470864205DB4FF4B470BD
:1012C00096FBF0F100FB116602209AFBF0F010EBA8
:1012D0000B0044F26821884208DA44F6206100A835
:1012E00050F82700C0B207F0C3F80CE002209AFBC8
:1012F000F0F010EB0B0000F6B83100A850F8270012
:10130000C0B207F0B5F8DFF8DC17200003F0DFF912
:10131000002809D000A850F82700E821DFF8682A43
:1013200001FB0020C0F8CC9042A1200003F0CFF9CF
:10133000002809D000A850F82700E821DFF8482A43
:1013400001FB0020C0F8DCA0DFF8541A200003F0F5
:10135000BEF9002809D000A850F82700E821DFF8DE
:10136000282A01FB0020C0F8E0B0DFF87C1720003D
:1013700003F0ADF9002815D000A850F82700E821A7
:10138000DFF8042A01FB00200021C0F8D81000A8D3
:1013900050F82700E821DFF8F02901FB00200021A8
:1013A00080F8D410DFF8001A200003F090F900282C
:1013B0003FF440AE00A850F82700E821DFF8C82924
:1013C00001FB002090F8C8000128BFF4F4AD00A88C
:1013D00050F82700E821DFF8B02901FB00200021A8
:1013E000C0F8D81000A850F82700E821DFF89829A5
:1013F00001FB0020002180F8D4101BE6002711E03B
:10140000DFF8A019200003F062F9002809D000A835
:1014100050F82700E821DFF8702901FB002080F850
:10142000E4507F1C04988742EADB012007B0BDE846
:10143000F08F0000767070009C0601007C01002097
:10144000A80601008001002030080100D0300020F3
:10145000A4040100D8300020B4040100840100205D
:10146000B40601002DE9F04188B006000C00DFF859
:101470007015300003F02BF9002808D1DFF858264A
:10148000DFF8E814200003F0BAF90020B8E0DFF834
:101490005015300003F01BF905005FA1300003F088
:1014A00016F9002808D1DFF87C2BDFF8C0142000E3
:1014B00003F0A5F90020A3E057A1300003F007F9DD
:1014C0000600280003F0B3F80700002F08D1DFF86A
:1014D0009C25DFF89814200003F091F900208FE09C
:1014E000052F08DBDFF8F425DFF88014200003F077
:1014F00086F9002084E0300003F099F8002808D134
:10150000DFF8242BDFF86414200003F078F90020C2
:1015100076E0052808DBDFF8142BDFF850142000F4
:1015200003F06DF900206BE0874208D0DFF8002B54
:10153000DFF83814200003F062F9002060E05FF06B
:10154000000801E018F10108B8452DDA41462800ED
:1015500003F08AF8406904A941F8280004A850F86B
:101560002800042808D3DFF8CC2ADFF80014200074
:1015700003F045F9002043E04146300003F074F8E1
:10158000406900A941F8280000A850F8280047F257
:1015900031518842D6D3DFF8A02ADFF8D0132000DB
:1015A00003F02DF900202BE05FF0000815E000A803
:1015B00050F8280000F6B83104A850F82800C0B24E
:1015C00006F056FF00A850F8281004A850F828008C
:1015D000C0B206F034FD18F10108B8450FDA00A8D2
:1015E00050F8280044F268218842E0D244F6206195
:1015F00004A850F82800C0B206F03AFFE2E7012044
:1016000008B0BDE8F081000088010020F4FF000070
:10161000B4300020802A0020766F6C00B8300020A3
:10162000482B0020C4040100D430002050010020C9
:10163000577300004C010020157300008C0100203E
:101640002DE9F04FCFB004000D005FF00009DFF886
:10165000EC19200003F03BF8002807D1DFF8E0295F
:10166000C249280003F0CBF8002068E1DC492000E3
:1016700003F02DF8002807D1DFF85C24BB492800CF
:1016800003F0BDF800205AE1DFF8B019200003F0A4
:101690001EF84669D249200003F019F883465FF02E
:1016A00000095FF0000A584602F0C1FF0700002F52
:1016B00007D1DFF8B823AD49280003F0A0F80020D7
:1016C0003DE11B2F07DBDFF87C29A849280003F048
:1016D00096F8002033E15FF0000A5FF000095FF048
:1016E000000801E018F10108B84515DA41465846EE
:1016F00002F0BAFF406934A941F8280034A850F834
:101700002800001E1A28EDD3DFF83C29974928004D
:1017100003F075F8002012E1B0A1200002F0D7FF1D
:10172000002807D0ADA1200002F0D1FF4069DFF80A
:101730001C190860DFF814090068401E4B2803D309
:10174000DFF808094B210160002E59D0DFF800199D
:10175000200002F0BCFF002808D0DFF8F4182000B9
:1017600002F0B5FF4069DFF8201D0860DFF8180DB2
:101770000068401EDFF8DC18884207D3DFF8D8285D
:101780007A49280003F03BF80020D8E0DFF8CC18B5
:10179000200002F09CFF8246BAF1000F07D1DFF86B
:1017A000C0287249280003F02AF80020C7E05046FC
:1017B00002F03DFF8146B9F11B0F07DBDFF8A428DB
:1017C0006A49280003F01BF80020B8E0B9F1010FC6
:1017D00007DADFF894286549280003F010F80020A4
:1017E000ADE05FF00008C8453ADA4146504602F0E5
:1017F0003BFF406900A941F8280018F10108F2E711
:10180000DFF86818200002F062FF8146B9F1000F8E
:1018100007D1DFF85C285549280002F0F0FF0020CE
:101820008DE0484602F003FF8246BAF101001A2813
:1018300007D3DFF840284D49280002F0E0FF0020E0
:101840007DE05FF0000809E04146484602F00CFFE9
:1018500040691AA941F8280018F10108D045F3DBC6
:101860005FF001095FF000080BE01AA850F828109B
:1018700034A850F8280003F088FE00FB09F918F19D
:101880000108B84555DA34A850F82800182822DB9A
:10189000002E12D034A850F828001928EFDB4FF49E
:1018A000FA710D00DFF8E00B006805F05DFF29001C
:1018B00003F071FC00FB09F9E1E71AA850F82810C1
:1018C000C9B234A850F828001838C0B203F0FDFCA3
:1018D00000FB09F9D3E741A1200002F0F8FE00283F
:1018E00009D0DFF86807016834A850F8280003F031
:1018F00035FD00FB09F9002EB7D0DFF854172000A2
:1019000002F0E5FE002809D0DFF87C0B016834A85E
:1019100050F8280003F05AFD00FB09F900A850F820
:10192000281034A850F8280003F0D9FD00FB09F96D
:10193000A5E7B9F1000F01D05FF0010948464FB0AB
:10194000BDE8F08F0C0001001CB50C0000A805F0EC
:1019500045F900208DF8040000AADFF8301B2000B4
:1019600002F04DFF012016BDC00601000008010075
:101970000000F03FF0B583B00400DFF8141B200036
:1019800002F0A5FE0600300002F051FE070000251F
:1019900007E02900300002F067FE406900A96854A2
:1019A0006D1CBD42F5DB0E49200002F090FE45693A
:1019B000DFF8E01A200002F08AFE4669DFF8D81A44
:1019C000200002F084FE426900ABD2B23100C9B2FD
:1019D0002800C0B203F050FBFEBD00006F63700032
:1019E000380801002DE9F04192B005000C0005A86F
:1019F000342106F095FDDFF8A41A280002F067FEF6
:101A00004669DFF8901A280002F061FE4769DFF8A6
:101A1000881A280002F05BFED0F8148000AB424622
:101A2000D2B23900C9B23000C0B203F0A6FA002821
:101A300001D1002016E000250BE000A82A5CDFF8A9
:101A4000601A02A804F0B0F802A905A804F0EDF8A5
:101A50006D1C4545F1D305AADFF8341A200002F0C9
:101A6000CEFE012012B0BDE8F0810000C0FB0000F6
:101A700080B5DFF8301A02F02AFE4069DFF8F81C62
:101A80000860012002BD10B5DFF8F01C02F01FFE57
:101A9000446944F6206006F086FC200080B206F01F
:101AA000DAFC012010BD000004FE000030B589B052
:101AB0000C0000A803F01FFA050003F05DFE00AA69
:101AC000DFF8BC1C200002F09AFE280009B030BDEF
:101AD000CC0601004008010024FE0000FCFE0000CE
:101AE0000080764008080100D404010000007A4418
:101AF00028F7000070B58EB005000C000026A3A1E9
:101B0000280002F0E4FD002804D0A0A1280002F083
:101B1000DEFD0669002E00F08A80300002F0EEFF44
:101B2000002800F0848030786138C0B21A2812D2C0
:101B300030786138DFF84C1C0860300002F0DEFFBE
:101B400004281CD3DFF86029DFF8081C200002F00D
:101B500056FE002016E130784138C0B21A2805D26E
:101B600030784138DFF81C1C0860E6E7DFF83829D8
:101B7000DFF8E01B200002F042FE002002E130000E
:101B800002F0BCFF022824D170783038C0B20A2895
:101B900016D270783038DFF8F01B0860DFF8E80BF9
:101BA0000068102831D3DFF8E00B0F210160DFF867
:101BB000DC2BDFF8A01B200002F021FE0020E1E07A
:101BC000DFF8CC2BDFF88C1B200002F018FE002081
:101BD000D8E0300002F092FF0328DFD1B07830382F
:101BE000C0B20A2808D27078312805D1B0782638DA
:101BF000DFF8941B0860D1E7DFF8982BDFF8541B5F
:101C0000200002F0FCFD0020BCE0DFF8780B00684B
:101C100005280CD3DFF86C0B00210160DFF8782B6E
:101C2000DFF8301B200002F0EAFD0020AAE00026C9
:101C3000DFF8681B280002F04AFD002805D0DFF815
:101C40005C1B280002F043FD0669DFF8541B3000DE
:101C500006F06AFC002804D1DFF8480B002101607F
:101C60000AE0DFF8441B300006F05EFC002803D1D8
:101C7000DFF8300B01210160DFF8301B280002F093
:101C800026FD002808D0DFF8241B280002F01FFDE5
:101C90004069DFF81C1B0860DFF8140B006800289F
:101CA00003D0DFF80C0B0121016006A8DFF8041B4C
:101CB000202206F06BFC01A8DFF8FC1A142206F0C3
:101CC00065FCDFF8E00A0068002829D0DFF8B80AD0
:101CD000006806A931F81000ADF8000010208DF85A
:101CE000030003208DF8020000A9DFF8980A0068BD
:101CF00001AA52F8200006F075FCDFF8B40A026869
:101D0000D2B2DFF8840A006806A931F81010DFF8B3
:101D1000740A006801AB53F8200006F0E5FC30E0DF
:101D2000DFF8640A006806A931F81000ADF8000079
:101D300004208DF8030003208DF8020000A9DFF8CD
:101D4000440A006801AA52F8200006F04BFCDFF8B4
:101D5000380A006806A931F81010DFF8280A006870
:101D600001AA52F8200006F0A3FC002800D00120B0
:101D700004F0D0FA02000B00DFF8301A200002F065
:101D800023FD01200EB070BD50250020696F0000BA
:101D9000ADC52737ACC527370100FA430000FA4329
:101DA00048080100500801005808010010B504005F
:101DB000DFF8081A200002F08AFC002808D0DFF8BB
:101DC000FC19200002F083FC4069DFF8F419086078
:101DD000DFF8EC090068022803D0DFF8E4090121EC
:101DE0000160DFF8E019200002F071FC002808D043
:101DF000DFF8D019200002F06AFC4069DFF8C8194A
:101E00000860DFF8C40900680F2804D2DFF8B809B9
:101E10000A2101607BE0DFF8B00900681B2804D2CA
:101E2000DFF8A4091421016071E0DFF89C09006863
:101E30002A2804D2DFF890092121016067E0DFF849
:101E400088090068382804D2DFF87C093221016053
:101E50005DE0DFF874090068492804D2DFF86809FA
:101E60003E21016053E0DFF8600900685A2804D27F
:101E7000DFF854095321016049E0DFF84C0900689C
:101E8000712804D2DFF84009642101603FE0DFF8E7
:101E900038090068AA2804D2DFF82C097D210160E6
:101EA00035E0DFF824090068B0F5BB7F04D8DFF81F
:101EB0001809FA2101602AE0DFF80C090068B0F582
:101EC0001C7F05D8DFF800094FF4FA7101601EE0AD
:101ED000DFF8F408006840F20731884205D2DFF8E5
:101EE000E80840F2EE21016011E0DFF8DC0800684C
:101EF0004FF46171884205D2DFF8CC084FF4487185
:101F0000016004E0DFF8C0084FF47A710160DFF887
:101F1000B0080068012817D1DFF8AC080068DFF8C6
:101F2000AC188969884226D0DFF89C08016889B21C
:101F3000012004F081FEDFF89408DFF88C180968AE
:101F4000816102F056FE16E0DFF87C080068DFF8D9
:101F50007C18C96988420ED0DFF86C08016889B224
:101F6000022004F069FEDFF86408DFF85C180968F5
:101F7000C16102F03EFE012010BD10B50400DFF883
:101F80005018200002F0A3FB002808D0DFF840180A
:101F9000200002F09CFB4069DFF8A41D0860DFF818
:101FA000A00D0068002803D1DFF8940D0121016025
:101FB000DFF88C0D0068062803D3DFF8840D0521B7
:101FC0000160DFF80018200002F081FB002808D033
:101FD000DFF8F017200002F07AFB4069DFF8F41711
:101FE0000860DFF8F00700686E2803D2DFF8E40726
:101FF0006E210160DFF8DC070068DFF8DC1788423B
:1020000004D3DFF8D007DFF8D4170160DFF8C40786
:102010000168DFF82C0D0068C0B203F08FFE0120CC
:1020200010BD000018FF000044FE00002400010065
:1020300054F700003C00010034FF0000D806010006
:1020400064FE000050FF00005400010094010020D5
:10205000E406010040420F00B0F50000F006010068
:10206000E4F40000E4FB000084FE000060080100CE
:10207000E0F5000080F700002DE9F041D4B0040045
:102080000D00DFF85C17200002F021FB070038008C
:1020900002F0CDFA8046B8F1050F0BD0B8F1000F71
:1020A00008D0DFF84027DFF8AC16280002F0A7FBC5
:1020B0000020D7E1002627E03100380002F0D4FAF2
:1020C0004069DFF8081711EB86014860DFF8FC066D
:1020D00010EB860040686E2805D2DFF8F00610EBA2
:1020E00086006E214160DFF8E40610EB8600406850
:1020F000DFF8E416884206D3DFF8D00610EB86003E
:10210000DFF8D8164160761C4645D5DBDFF8D816D7
:10211000200002F0DCFA0700380002F088FA80465E
:10212000B8F1020F0BD0B8F1000F08D0DFF8BC26D1
:10213000DFF82016280002F062FB002092E1002662
:1021400007E0DFF8880610EB86004FF47A718161B2
:10215000761C464580F2BC803100380002F084FADB
:102160004069DFF8681611EB86018861DFF85C06CC
:1021700010EB860080690F2806D2DFF8500610EBBE
:1021800086000A218161E3E7DFF8400610EB860054
:1021900080691B2806D2DFF8340610EB8600142174
:1021A0008161D5E7DFF8240610EB860080692A28D4
:1021B00006D2DFF8180610EB860021218161C7E7FF
:1021C000DFF8080610EB86008069382806D2DFF8B1
:1021D000FC0510EB860032218161B9E7DFF8EC05E0
:1021E00010EB86008069492806D2DFF8E00510EB85
:1021F00086003E218161ABE7DFF8D00510EB860059
:1022000080695A2806D2DFF8C40510EB86005321F6
:1022100081619DE7DFF8B40510EB860080697128C5
:1022200006D2DFF8A80510EB8600642181618FE7F4
:10223000DFF8980510EB86008069AA2806D2DFF83F
:102240008C0510EB86007D21816181E7DFF87C053C
:1022500010EB86008069B0F5BB7F06D8DFF86C050F
:1022600010EB8600FA21816172E7DFF8600510EB60
:1022700086008069B0F51C7F07D8DFF8500510EBA9
:1022800086004FF4FA71816162E7DFF8400510EBD8
:102290008600806940F20731884207D2DFF82C05BA
:1022A00010EB860040F2EE21816151E7DFF81C055A
:1022B00010EB860080694FF461718842BFF441AF32
:1022C000DFF8080510EB86004FF4487181613FE7A5
:1022D000DFF8701A200002F0FAF9002808D0DFF8C1
:1022E000641A200002F0F3F94069DFF8E014087086
:1022F000DFF8D8040078002803D0DFF8D0040121EB
:102300000170DFF8441A200002F0E1F9002808D03B
:10231000DFF8341A200002F0DAF94069DFF8AC1473
:102320004870DFF8A8044078002803D0DFF89C0448
:1023300001214170DFF8141A200002F0C8F90028CA
:1023400008D0DFF8081A200002F0C1F94069DFF870
:102350007C148870DFF874048078401EC0B20E28A8
:1023600003D2DFF868040F218170DFF86004807801
:10237000012803D2DFF8540400218170DFF8D0195E
:10238000200002F0A4F9002808D0DFF8C4192000CA
:1023900002F09DF94069DFF83414C870DFF82C04AE
:1023A000C078042803D3DFF824040321C170DFF8C8
:1023B000A419200002F08BF9002808D0DFF8941946
:1023C000200002F084F94069DFF800140862DFF8A9
:1023D000FC03006ADFF88019884204D3DFF8EC03BD
:1023E000DFF878190162DFF8E403006A4FF47A71CC
:1023F000884204D2DFF8D4034FF47A710162DFF827
:102400006019200002F063F9002808D0DFF85019A5
:10241000200002F05CF94069DFF8B013C866DFF80D
:10242000AC03C06EB0F57A7F04D9DFF8A0034FF497
:102430007A71C166E548C06E0A2802D2E3480A21D3
:10244000C166DFF82029C349280002F0D8F900A8A6
:1024500002F0A2FB00AADFF8BC1A280002F0CFF9B4
:1024600002F0C7FB54B0BDE8F08110B58AB00C0093
:1024700000A806F0A7F900AADFF89C1A200002F0D5
:10248000BEF901200AB010BD90010020FC06010039
:102490006808010070080100780801003808010090
:1024A000800801000807010008FC00002DE9F04F3A
:1024B00089B004000D00012601208DF814000127C9
:1024C0005FF001085FF001095FF0010A5FF0010BA6
:1024D0007B2007907B200690B849200002F0F7F897
:1024E000002835D0B549200002F0F1F84669F6B26F
:1024F000012E00D00226DFF8241A200002F0E7F8AF
:1025000000282ED0DFF8141A200002F0E0F840690D
:102510008DF814009DF81400002802D001208DF8D9
:1025200014009DF81400002824D1002004900020FD
:1025300003900020029000200190002000900023D2
:10254000002200213000C0B204F026FF0120FDE08F
:10255000DFF8CC29DFF8CC19280002F050F9002070
:10256000F4E0DFF8C429DFF8BC19280002F047F9CD
:102570000020EBE0DFF8B419200002F0A8F80028F2
:1025800050D0DFF8A819200002F0A1F84769FFB287
:10259000002F00D00127DFF89819200002F097F8EB
:1025A000002848D0DFF88819200002F090F8406930
:1025B0000790DFF88019200002F089F8002843D046
:1025C000DFF87019200002F082F8D0F814805FFA6A
:1025D00088F8B8F1000F01D05FF00108DFF8581952
:1025E000200002F074F8002837D0DFF84C192000E2
:1025F00002F06DF8D0F814905FFA89F9B9F1000F84
:1026000001D05FF00109DFF83419200002F05FF813
:1026100000282BD0DFF82419200002F058F8406978
:10262000069031E0DFF81829DFF8F818280002F0EA
:10263000E6F800208AE0DFF80C29DFF8E818280027
:1026400002F0DDF8002081E0DFF8FC28DFF8D41884
:10265000280002F0D4F8002078E0DFF8F028DFF856
:10266000C418280002F0CBF800206FE0FFB2002F62
:1026700008D1DFF8DC28DFF8AC18280002F0BFF83A
:10268000002063E007980690DFF8C818200002F0E9
:102690001EF800280ED0DFF8BC18200002F017F852
:1026A000D0F814A05FFA8AFABAF1000F0FD05FF0E9
:1026B000010A0CE0FFB2002F08D1DFF89C28DFF8F8
:1026C0006418280002F09BF800203FE0C246DFF8C3
:1026D0008C18200001F0FBFF00280ED0DFF87C18DA
:1026E000200001F0F4FFD0F814B05FFA8BFBBBF1CF
:1026F000000F0FD05FF0010B0CE0FFB2002F08D1EC
:10270000DFF85C28DFF81C18280002F078F80020B9
:102710001CE0CB465FFA8BFBCDF810B05FFA8AFA6B
:10272000CDF80CA0069802905FFA89F9CDF80490D4
:102730005FFA88F8CDF80080079BFFB23A009DF859
:1027400014103000C0B204F027FE012009B0BDE82B
:10275000F08F00000008010010B50C0006F076F9BB
:10276000C0B203F0E1FD02000B00DFF8F817200013
:1027700002F02AF8012010BD58010020880801004D
:10278000E4040100980100209C01002044020100A3
:102790002CFC0000ACF700005802010014070100F7
:1027A00090080100DC30002098080100A00801001A
:1027B000A0010020A4FE00006C0201009C060100A4
:1027C000A401002020070100A80100200000002033
:1027D00028080100B001002081841E0080841E00B2
:1027E0006C00010074FA0000840001009CFA0000F3
:1027F00030B58BB00C004CA2DFF86C17200001F054
:10280000FEFF01A805F0DEFF01AADFF80C1720008B
:1028100001F0F5FF01A806F028FB01AADFF84C172C
:10282000200001F0ECFFDFF84827DFF84817200010
:1028300001F0E5FF06F014FD0200DFF83C1701A8E7
:1028400003F0B2F901AADFF83417200001F0D7FF36
:1028500001A806F02AFD01AADFF82417200001F0E4
:10286000CEFFDFF8200790F85D0003F05DFD020069
:102870000B00DFF81417200001F0A6FFDFF80C07AB
:10288000806EDFF80C17884207D1DFF80827DFF8E1
:102890000817200001F0B3FF05E024A2DFF8F816C6
:1028A000200001F0ACFFDFF8E40690F824007A285D
:1028B00031D03DD37C2806D01DD37E2813D00AD337
:1028C0007F2820D034E0DFF8D426DFF8D4162000AB
:1028D00001F095FF33E0DFF8CC26DFF8C4162000C6
:1028E00001F08DFF2BE0DFF8C026DFF8B4162000E2
:1028F00001F085FF23E0DFF8B426DFF8A4162000FE
:1029000001F07DFF1BE0DFF8A826DFF89416200019
:1029100001F075FF13E0DFF89C26DFF88416200035
:1029200001F06DFF0BE000BF646171006C6F770018
:10293000DFF88426DFF86816200001F060FF00222F
:10294000DFF87836DFF87816200001F03DFF00222E
:10295000DFF86836DFF86C16200001F035FF002242
:10296000DFF86436DFF86416200001F02DFF002246
:10297000DFF84836DFF85816200001F025FF002266
:10298000DFF83836DFF84C16200001F01DFF00227A
:10299000DFF84436DFF84416200001F015FF00226E
:1029A000DFF83C36DFF83C16200001F00DFFDFF8C1
:1029B0003806006803F0B8FC02000B00DFF82C16A4
:1029C000200001F001FFDFF82806006803F0ACFCEE
:1029D00002000B00DFF81C16200001F0F5FEDFF806
:1029E0001806007803F0A0FC02000B00DFF80C16BC
:1029F000200001F0E9FE0022DFF80436DFF80416BB
:102A0000200001F0E1FEDFF8000690F8E40003F09A
:102A10008BFC02000B00DFF8F415200001F0D4FE5F
:102A2000DFF8E40590F8CC0103F07EFC02000B0017
:102A3000DFF8DC15200001F0C7FEDFF8CC0590F8C8
:102A4000B40203F071FC02000B00DFF8C81520008F
:102A500001F0BAFEDFF8B00590F89C0303F064FCC7
:102A600002000B00DFF8B015200001F0ADFE0022DF
:102A7000DFF8A835DFF8A815200001F0A5FEDFF883
:102A8000A405006803F046FC02000B00DFF898156F
:102A9000200001F099FEDFF8F404407803F044FCD4
:102AA00002000B00A849200001F08EFEDFF8DC04D4
:102AB000807803F039FC02000B00A449200001F0EB
:102AC00083FEDFF8C804C07803F02EFC02000B0080
:102AD0009F49200001F078FEDFF8B004406803F061
:102AE00023FC02000B00DFF84415200001F06CFE0F
:102AF000DFF89804806803F017FC02000B00DFF891
:102B00003015200001F060FEDFF88004C06803F09B
:102B10000BFC02000B00DFF81C15200001F054FE36
:102B2000DFF86804006903F0FFFB02000B00DFF828
:102B30000815200001F048FEDFF85004406903F05A
:102B4000F3FB02000B00DFF8F414200001F03CFE60
:102B5000DFF83804806903F0E7FB02000B00DFF8C0
:102B6000E014200001F030FEDFF82004C06903F01B
:102B7000DBFB02000B00DFF8CC14200001F024FE88
:102B8000DFF80804006A03F0CFFB02000B00714974
:102B9000200001F019FEDFF8F403C06E03F0C4FB5F
:102BA00002000B006E49200001F00EFE00AA032176
:102BB000002002F03CFE002809D0009803F00EF837
:102BC00002000B00DFF88014200001F0FDFD00AAD8
:102BD0000321012002F02BFE002809D0009802F00A
:102BE000FDFF02000B00DFF86414200001F0ECFD93
:102BF00000AA0021002002F01AFE002809D0009847
:102C000002F0ECFF02000B00DFF84414200001F09A
:102C1000DBFD00AA0021012002F009FE002809D0F6
:102C2000009802F0DBFF02000B00DFF82814200000
:102C300001F0CAFD00AA0121002002F0F8FD0028E1
:102C400009D0009802F0CAFF02000B00DFF8081458
:102C5000200001F0B9FD00AA0221002002F0E7FDEA
:102C6000002809D0009802F0B9FF02000B00DFF83D
:102C7000EC13200001F0A8FD00AA0221012002F0BF
:102C8000D6FD002809D0009802F0A8FF02000B0032
:102C9000DFF8CC13200001F097FD002520E00C2088
:102CA00000AA95FBF0F100FB115010F11001C9B220
:102CB0000C2095FBF0F0C0B202F0B9FD00280ED058
:102CC0002A00DFF8A01301A802F06EFF009802F0BE
:102CD00085FF02000B0001A9200001F075FD6D1CAD
:102CE000182DDCDBDFF88023DFF88013200001F0F3
:102CF00086FDDFF87423DFF87813200001F07FFDF4
:102D0000DFF86423DFF86C13200001F078FDDFF8B2
:102D10006823DFF86813200001F071FDDFF86023FD
:102D2000DFF86013200001F06AFDDFF85C23DFF8B4
:102D30005C13200001F063FD01200BB030BD0000EA
:102D4000AC0100202C070100F40401008002010006
:102D5000040501009C000100811A0600801A06008B
:102D60009402010050FC000070B505000C00C84939
:102D7000280001F0ACFC002800F08B80C44928003A
:102D800001F0A5FC0669C349300005F0CDFB002821
:102D900040F08680C049280001F099FC002806D048
:102DA000BD49280001F093FC4069BC490860BB485C
:102DB0000068102802D3B9480F210160B7480068A5
:102DC000002802D1B54801210160B549280001F071
:102DD0007EFC002806D0B249280001F078FC40694A
:102DE000B0490860AF480068002802D0AD48012112
:102DF0000160AD49280001F06AFC002806D0AA490C
:102E0000280001F064FC4069A8490860A7480068F0
:102E1000A749884202D3A548A6490160A348006893
:102E20000A2802D2A1480A2101609A49300005F01F
:102E30007BFB002842D1A0489849096801709E4850
:102E4000002141609C489749096801729A48974956
:102E50000968C160984800210174974801214174B4
:102E600095480021416194480021816192498B4835
:102E70000068C0B206F0B8FA884800684FF4805184
:102E8000484310F5003006F0C9F88C480121017064
:102E90003EE08B4A2349200001F0B1FC002038E0DD
:102EA0008849300005F040FB00283FF473AF844AA6
:102EB0001C49200001F0A3FC00202AE07E48407C51
:102EC000002806D1804A1749200001F098FC002014
:102ED0001FE07A48002101707748774949694160CD
:102EE0007548012101747448002141747248002121
:102EF000816171497048007806F076FA6E48406842
:102F000003F012FA02000B007049200001F05CFC93
:102F1000012070BD14050100A8080100240501006E
:102F200074FC00000008010098FC00003807010054
:102F3000B008010044070100A8020100B808010020
:102F4000D8F7000004F8000030F8000018F5000081
:102F50005CF800005007010010F60000BC02010000
:102F60004CF500005C0701006807010074070100D0
:102F70006004010084060100C0080100340501005E
:102F80008007010074000020D00201000000002032
:102F900078460200C80801004405010064050100EC
:102FA00054050100E4020100F8020100740501006B
:102FB0000C03010084050100940501000000594044
:102FC00020030100340301000088A34048030100EE
:102FD0005C0301007003010000002440A40501000F
:102FE000882A9141B4050100540100208C0701009A
:102FF0005801002098070100C5010020C405010008
:1030000000408F40A40701005025002084030100E8
:1030100098030100AC030100C003010000002E4032
:103020006CFF00003C09010088FF0000B4000100B3
:10303000CC000100E4000100FC00010014010100CB
:103040002C01010044010100D4030100E803010048
:10305000FC03010010040100240401005C010100D4
:103060007401010038040100B0070100D00801001C
:10307000D4050100E405010004060100F405010087
:10308000140601004C040100BC0701008C01010082
:1030900014070100D8080100C8070100B40100208E
:1030A000D4070100B801002024060100BC01002063
:1030B000015C2605005C2605183000200631002042
:1030C00040F60000E0080100BCFC0000E808010038
:1030D000C0B2002804D0DFF888030121017003E0AA
:1030E000DFF87C03002101707047DFF8740300787B
:1030F000704730B589B04FF47A754FF4FA740121F6
:1031000040F6410006F030FB4FF40050ADF80000EF
:1031100018208DF8030003208DF8020000A9DFF8C5
:10312000440305F05FFA0121DFF83C0305F0E5FAFE
:10313000DFF83803ADB290FBF5F080B2411CA4B2C9
:1031400061434FF47A72B1FBF2F4ADF80800472006
:10315000ADF804000020ADF80A000020ADF806002C
:1031600001A9DFF80C0306F07DFB7020ADF810001C
:103170000120ADF812000020ADF81800ADF816409F
:1031800004A9DFF8EC0206F0CBFB0821DFF8E0022F
:1031900006F04FFC0021DFF8D80206F032FC0021D7
:1031A000DFF8CC0206F002FC0121DFF8C40206F0D1
:1031B0000BFC0120FFF78CFF09B030BD80B5022069
:1031C00001F061FC4FF40050ADF8000010208DF8C4
:1031D000030003208DF8020000A9A24805F002FABE
:1031E00001BD70B588B005000C00FFF77EFF002818
:1031F0004CD09E48B0FBF5F6B6B2701C4FF4FA7195
:1032000048434FF47A71B0FBF1F54FF40050ADF83C
:10321000000018208DF8030003208DF8020000A99B
:10322000904805F0DFF9ADF808604720ADF80400DC
:103230000020ADF80A000020ADF8060001A98C4876
:1032400006F010FB7020ADF810000120ADF8120060
:103250000020ADF81800ADF8165004A9844806F017
:103260005FFB0821824806F0E4FB0021804806F05D
:10327000C8FB01217E4806F099FB01217C4806F03D
:10328000A3FB200006F02DFCFFF798FF08B070BDEF
:1032900070B588B005000C00FFF727FF002850D05C
:1032A0007248B0FBF5F6B6B2701C4FF4FA714843A1
:1032B0004FF47A71B0FBF1F54FF40050ADF8000017
:1032C00018208DF8030003208DF8020000A965483E
:1032D00005F088F9ADF808604720ADF8040000203B
:1032E000ADF80A000020ADF8060001A9604806F01C
:1032F000B9FA7020ADF810000120ADF812000020DE
:10330000ADF81800ADF8165004A9594806F008FBAE
:103310000821574806F08DFB0021554806F071FB47
:103320000121534806F042FB0121514806F04CFBB5
:10333000504A0A20B4FBF0F0411C89B2022001F08F
:10334000B2FB08B070BD3FB505000C0000A84B49AA
:10335000102205F01BF9012D00DA0125052D00DBF7
:10336000042500A810EB850050F8040C44490860BF
:10337000002000E0401C4FF47A71884207DA40498F
:10338000096831F9101047F6FF729142F2D13D49B8
:1033900008603D48002101603C4804603FBD10B515
:1033A000394800683649096831F91000002845D0CD
:1033B000354800683249096831F9100001281EDBE0
:1033C000314800682E49096831F9100064222E49FD
:1033D00009682B4B1B6833F91110642391FBF3F13F
:1033E000491C2A4B1B6893FBF1F190FBF2F302FBA3
:1033F0001300214A52F82000FFF74AFF1EE022483E
:1034000000681F49096831F91000404264221F49D1
:1034100009681D4B1B681A4C246834F913305B4251
:10342000642493FBF4F35B1C594390FBF2F302FB1F
:103430001300114A52F82000FFF72AFF12480068D3
:10344000401C11490860104800680E49096888420C
:1034500005DB052001F017FB0B480021016010BDC2
:10346000C401002000180140C000160040420F00B7
:10347000002C0140BD31000064F000007404010024
:10348000A0300020983000209C300020480100200F
:1034900070B504000D00002C01D0002D01D10120D9
:1034A0001BE0AC4203D1002017E0641C6D1C2078A7
:1034B00006F04CFB0600287806F048FB864204D153
:1034C00020780028F1D1002007E0207806F03EFBAC
:1034D0000400287806F03AFB201A70BDF8B5040005
:1034E0000D0000260027002C01D1002011E0200053
:1034F00001F004FB461C3000296888470700002FB4
:1035000001D1002005E032002100380003F08DFBDE
:103510003800F2BD10B50100282009688847040072
:10352000002C04D028220021200006F019FB2000E6
:1035300010BD38B50400002525E02568E068C00509
:1035400005D4A068002802D0A068FFF7F2FFE06869
:10355000C00507D42069002804D02069DFF8201AAC
:1035600049688847E068800507D4206A002804D0AD
:10357000206ADFF80C1A496888472000DFF8001A33
:10358000496888472C00002CD7D131BD2E207047C8
:10359000F0B591B006000F00002400250020009037
:1035A000FFF7F4FF0021002F02D03968002901D174
:1035B00000205FE0002106E0BA683B68D2188A5C10
:1035C00001ABCA54491C3F291BD2002F19D0BA683D
:1035D0008A187B689A4214D2BA683B68D2188A5C0F
:1035E0002B3AE9D0921EE7D0521E07D0921E092A2C
:1035F000E2D9153AE0D0203ADED002E001AA8854A0
:10360000E0E701A800220A5400A901A806F0B2FAD6
:1036100004000D0001A80099884201D1002029E092
:10362000C6E9064520002900DFF8942ADFF8943A1D
:1036300006F0A4FA03D87FF00040706111E020008A
:1036400029007FF00102DFF8803A06F0AFFA03D2DA
:103650005FF00040706104E02000290006F0BEFA2F
:1036600070610820F060B8680099081801A9401A34
:10367000B860012011B0F0BD70B50400002500262F
:10368000002C02D02068002801D1002059E0606899
:10369000002805D0A0686268904201D3002050E065
:1036A00011F1004F01D300204BE0A068401C4118ED
:1036B0006068884203D3A0682168401841E020690F
:1036C000002801D000203CE0B1F1804F07D311F178
:1036D000004F02D27FF0004602E0002031E04E00B1
:1036E000206A00280FD031002068226A9047050028
:1036F000002D22D12068E169884700206060002009
:10370000206000201DE03000A16988470500002DE1
:1037100008D12068E16988470020606000202060AF
:1037200000200EE0002D05D0A068421C2168280072
:1037300003F07BFA2068E169884766602560A0682D
:10374000401970BD38B504000020002C02D020685C
:10375000002800D107E0A06821684018A56801F0A2
:10376000CDF94019A06031BD2DE9F043804689466E
:1037700014001D002000290031F0004142464B4654
:1037800033F0004306F012FA04D246464F4637F0B3
:10379000004703E026002F0037F000474046494627
:1037A00022002B0006F046FA31F0004102000B0027
:1037B00014001D000020DFF8001A32003B0004F066
:1037C00023F922002B0006F0D9F901D8012000E0EE
:1037D0000020C0B2BDE8F0832DE9F0478AB08A46E8
:1037E0005FF00008D0E9064500275FF0000902A855
:1037F0001C2104F095FEFFF7C9FE06000020002101
:10380000CDE90001BAF1000F01D100205FE02000F6
:10381000290006F0CFFA022805D02000290006F082
:10382000C9FA012806D1DFF8941902A802F0BCF900
:1038300007001EE022002B00DFF8841902A802F026
:10384000B3F9070000AA23A102A806F0CFFA0128C5
:1038500007D122002B00DDE90001FFF785FF0028DA
:1038600007D122002B00DFF85C1902A802F09CF9B6
:103870000700381E1A2801D3002028E0791C504682
:10388000FFF7FAFE8046B8F1000F01D100201EE0DC
:103890005FF0000906E002A819F8000009F8080026
:1038A00019F10109B94509D202A819F80000F6B2C8
:1038B000B042F0D12E2009F80800F1E7002009F805
:1038C0000800DAF808003818CAF8080001200AB021
:1038D000BDE8F087256C67000021002200231A0054
:1038E00006E0135C303B5918032A00D20901521C30
:1038F000042A18D2135C303BDBB20A2BF1D3135CE1
:10390000413BDBB2062B03D2135C373B5918EBE784
:10391000135C613BDBB2062B03D2135C573B591897
:10392000E2E7002000E0080070472DE9F8430D00B1
:103930001600002100270400002000225FF000088C
:103940005FF000092B1B062B02DA0020BDE8F28392
:10395000A01CFFF7C1FF0700B7F55C40B0F5806F12
:10396000F3D3B7F55840B0F5806F1FD204F20601CB
:1039700000205FF00C086A1A062AE6DB08785C284B
:1039800002D14878752800D0DFE7881CFFF7A4FF34
:10399000B0F55C41B1F5806FD7D2B905890D8005CE
:1039A000800D50EA812010F5803102E05FF00608BA
:1039B0003900802902D20120421E1EE0B1F5006FBD
:1039C00003D202205FF0C009F6E7B1F5803F03D2D1
:1039D00003205FF0E009EFE7B1F5881F03D2042070
:1039E0005FF0F009E8E7B0E7D2B2336811F0BF0446
:1039F00054F08004D4548909521ED2B2012AF3D261
:103A0000C0B2022804D359EA01013268117003E000
:103A100011F07F0132681170C0B231684018306017
:103A20004046C0B292E72DE9F04182B006000C009A
:103A3000A0682168401810F10108A06821684018AA
:103A4000471C002000900025A0682168405C2228C7
:103A50000ED0002D02D0280061698847B8F1000F10
:103A600003D02068B8EB0000A0600020BDE8F6811C
:103A70000021002002E0401C7F1C7F1C2168791A75
:103A8000626891420CD23978222909D039785C29B0
:103A9000F3D1791C2268891A62689142EBD3D8E786
:103AA0002168791A6268914202D23978222900D0BD
:103AB000CFE7A16822688918791A091A481C216978
:103AC00088470500002DC4D0009508E0009898F8BC
:103AD0000010017018F101080098401C0090B845D2
:103AE00056D298F800005C28F0D10220B7EB08010C
:103AF0000129AEDB98F80110222936D02F2934D0C5
:103B00005C2932D062290AD0662912D06E2917D0DA
:103B100072291CD0742921D075292ED037E0009944
:103B200008220A700099491C0091C0B210EB0808E5
:103B3000D5E700990C220A700099491C0091F4E71E
:103B400000990A220A700099491C0091EDE700993A
:103B50000D220A700099491C0091E6E7009909229C
:103B60000A700099491C0091DFE798F80110009A4B
:103B700011700099491C0091D7E700AA390040460E
:103B8000FFF7D3FEC0B200283FF463AFCDE760E794
:103B90000098002101701020F06035612068381A0B
:103BA000A060A068401CA06001205FE72DE9F843F9
:103BB00004000800002600275FF000095FF00008FD
:103BC0000025002801D100209FE0002C0DD1032109
:103BD000FFF752FD0700002F01D1002095E0B0A1B2
:103BE000380000F0B7FF01208FE0260004E03178B4
:103BF000202900D26D1D761C317800290CD0317837
:103C00000839022906D9091F012903D9163901D01B
:103C10003A39ECD16D1CEEE7311B15EB010818F1B8
:103C20000301FFF729FD0700002F01D100206CE000
:103C3000002D10D12220387042462100781C02F05D
:103C4000F4FF18EB07002221417018EB0700002158
:103C50008170012059E02220387017F101092600F7
:103C60000AE03278DFF85C1B484601F09DFF19F14D
:103C70000409761C19F10109307800283CD030780D
:103C8000202809D33078222806D030785C2803D049
:103C9000307889F80000ECE75C2089F8000019F121
:103CA00001093078082813D0092821D00A2817D014
:103CB0000C2811D00D2817D0222805D05C28D0D18F
:103CC0005C2089F80000D4E7222089F80000D0E7C2
:103CD000622089F80000CCE7662089F80000C8E778
:103CE0006E2089F80000C4E7722089F80000C0E760
:103CF000742089F80000BCE718EB0700222141700E
:103D000018EB0700002181700120BDE8F28380B527
:103D10000069FFF74BFF02BD002802D001680029AF
:103D200001D100201BE0002803D081684268914245
:103D300003D314E08168491C8160002808D08168A1
:103D40004268914204D281680268895C2129F1D3DA
:103D500081684268914202D18168491E8160704742
:103D600010B50400002C05D02068002802D0A068FF
:103D7000002801D0002013E0002C10D0A068001D06
:103D8000616888420BD203227EA1A0682368C01814
:103D900006F03EF8002802D1A068C01CA0602000F8
:103DA00010BD70B504000D001600002C01D10020DC
:103DB00008E0200000F0A2FE411C33002A00200091
:103DC00000F001F870BD2DE9F04188B004000F004B
:103DD00015001E0000A81C2104F0A2FB5FF00008E3
:103DE000664800210160654800214160002C01D037
:103DF000002F10D1B8F1000F02D04046FFF799FB19
:103E0000002C48D020000021029A019B9A4235D212
:103E1000029A110038E0009401970020029004A853
:103E200057498CC98CC00C390C385548FFF772FBC8
:103E30008046B8F1000FDDD000A8FFF791FFFFF733
:103E40006BFF0100404600F09FF80028D2D0002E02
:103E50000CD000A8FFF760FF02980199884204D2B5
:103E600002980099405C002800D0C3E7002D03D0E1
:103E7000029800994018286040460DE0019A002AF7
:103E800002D0019A521E1100002D01D00A182A609A
:103E90003A4AC2E90001002008B0BDE8F081000004
:103EA0002222000080B500220021FFF77AFF02BD28
:103EB000F0B589B005000E0017000024242200216F
:103EC00000A805F04DFEDFF86C09006839688847E6
:103ED0000090DFF8600900680190059606A80ECFF3
:103EE0000EC00C3F0C38009800280DD10098002817
:103EF00002D0009879688847002C02D020007968A9
:103F00008847002009B0F0BD00A9280000F0DEF8C5
:103F10000028EBD000A8FFF715FCB86800280AD0ED
:103F20000298411C0098BA6890470400002CDDD02C
:103F30000020009019E00298401C3968884704006E
:103F4000002CD3D001980299491C884201D2019AD1
:103F500001E00298421C0099200002F066FE0298DF
:103F6000002101550098796888472000CAE780B58C
:103F7000034A0021FFF79CFF02BD000088300020AB
:103F80003C010020EFBBBF0038B505000C00002C41
:103F900002D02068002801D1002090E0002C14D02D
:103FA0006068A168091D88420FD304228349A06874
:103FB0002368C01805F02CFF002806D10420E86013
:103FC000A068001DA060012079E0002C15D0606879
:103FD000A168491D884210D30522DFF85C18A0684B
:103FE0002368C01805F014FF002806D10120E860FE
:103FF000A068401DA060012061E0002C17D060681F
:10400000A168091D884212D30422DFF89018A06825
:104010002368C01805F0FCFE002808D10220E860E3
:1040200001206861A068001DA060012047E0002C0D
:104030000DD0A0686168884209D2A0682168405C00
:10404000222804D121002800FFF7EDFC37E0002CE6
:1040500014D0A0686168884210D2A0682168405CD2
:104060002D2806D0A0682168405C3038C0B20A28EC
:1040700004D221002800FFF78BFA20E0002C0DD09D
:10408000A0686168884209D2A0682168405C5B280A
:1040900004D12100280000F097F810E0002C0DD08A
:1040A000A0686168884209D2A0682168405C7B28CA
:1040B00004D12100280000F05CF900E0002032BDAE
:1040C0000000C0FFFFFFDF41FFFFDFC170B504004C
:1040D0000D000020002C01D0002D01D1002069E04E
:1040E000207BC0B2C0B201281BD0022827D00428F0
:1040F0000AD0082831D010284CD020284FD0402892
:1041000052D080282ED054E005212800FFF7B4FAC1
:10411000002801D100204DE0284900F01BFD0120BE
:1041200048E006212800FFF7A7FA002801D1002067
:1041300040E0DFF8041700F00DFD01203AE0052112
:104140002800FFF799FA002801D1002032E0DFF8BB
:104150004C1700F0FFFC01202CE029002000FFF7A5
:104160003BFB27E000262069002801D1002021E048
:10417000206900F0C3FC461C31002800FFF77CFAE0
:10418000002801D1002015E03200216902F04DFD28
:1041900001200FE029002000FFF7B9FD0AE0290007
:1041A000200000F08CF805E02900200000F081F9E3
:1041B00000E0002070BD00000000B03C00090100DC
:1041C0000809010010090100F8B504000D000026DF
:1041D0000027E8684FF47A71884201D300200DE08F
:1041E000E868401CE860A8682968405C5B2806D045
:1041F000002E02D03000FFF79CF90020F2BDA86825
:10420000401CA8602800FFF787FD002D16D0A86885
:104210006968884212D2A8682968405C5D280DD17F
:10422000E868401EE860002E00D077602020E06043
:10423000A660A868401CA8600120DFE7002D03D01D
:10424000A8686968884203D3A868401EA860CFE7C1
:10425000A868401EA86015F11000FFF75BF9002860
:10426000C6D0002E02D10600370002E03860476059
:104270000700A868401CA8602800FFF74DFD290032
:104280003800FFF781FE0028B2D02800FFF744FD78
:10429000002D08D0A8686968884204D2A8682968F7
:1042A000405C2C28D7D0002D08D0A86869688842C7
:1042B00004D2A8682968405C5D28B1D098E770B541
:1042C00002000C00002000269568002C01D100207F
:1042D0004EE001212000FFF7CFF9002801D1002096
:1042E00046E05B210170A068401CA060E068401CB3
:1042F000E0600EE02C210170401C6169002902D0B1
:1043000020210170401C00210170A0683018A060BD
:104310002D68002D1BD021002800FFF7D7FE0028B4
:1043200001D1002024E02000FFF70CFA28680028C3
:10433000EED06069002801D0022600E00126711C41
:104340002000FFF799F90028D4D1002010E00221C5
:104350002000FFF791F9002801D1002008E05D213D
:104360000170401C00210170E068401EE0600120E7
:1043700070BDF8B504000D0000260027E8684FF472
:104380007A71884201D3002013E0E868401CE8609D
:10439000002D08D0A8686968884204D2A8682968F6
:1043A000405C7B2806D0002E02D03000FFF7C1F819
:1043B0000020F2BDA868401CA8602800FFF7ACFCF4
:1043C000002D16D0A8686968884212D2A8682968AA
:1043D000405C7D280DD1E868401EE860002E00D0CA
:1043E00077604020E060A660A868401CA8600120BB
:1043F000DFE7002D03D0A8686968884203D3A86866
:10440000401EA860CFE7A868401EA86015F1100004
:10441000FFF780F80028C6D0002E02D10600370032
:1044200002E0386047600700A868401CA8602800C8
:10443000FFF772FC29003800FFF7F5FA0028B2D028
:104440002800FFF769FC3869386200203861002DC8
:1044500008D0A8686968884204D2A8682968405CC6
:104460003A2800D09FE7A868401CA8602800FFF702
:1044700053FC29003800FFF787FD002893D028005F
:10448000FFF74AFC002D08D0A8686968884204D26A
:10449000A8682968405C2C28B8D0002D08D0A868EE
:1044A0006968884204D2A8682968405C7D2892D057
:1044B00079E770B502000C00002000269568002CFA
:1044C00001D10020B2E06069002801D0022600E09E
:1044D0000126711C2000FFF7CFF8002801D1002031
:1044E000A4E07B210170401CE168491CE160616926
:1044F000002902D00A210170401CA0683018A06079
:1045000011E02968002902D02C210170401C61694A
:10451000002902D00A210170401C00210170A0680E
:104520003018A0602D68002D5CD06069002814D080
:10453000E1682000FFF7A0F8002801D1002075E015
:10454000002103E009220270401C491CE2689142EC
:10455000F8D3A068E1680818A0602100286AFFF776
:1045600025FB002801D1002060E02000FFF7EAF8D9
:104570006069002801D0022600E0012631002000F9
:10458000FFF77AF8002801D100204FE03A210170AE
:10459000401C6169002902D009210170401CA068FB
:1045A0003018A06021002800FFF790FD002801D1FD
:1045B00000203BE02000FFF7C5F86069002801D02B
:1045C000012000E000202968002901D0012100E03D
:1045D00000210E18711C2000FFF74EF8002890D122
:1045E000002023E06069002802D0E068411C00E060
:1045F00002212000FFF740F8002801D1002015E03B
:104600006169002909D0002103E009220270401CE1
:10461000491CE268521E9142F7D37D210170401C73
:1046200000210170E068401EE060012070BD0022A2
:104630000021002801D1002006E0826801E0491C29
:104640001268002AFBD1080070470022002801D11F
:10465000002008E0826801E0491E1268002A01D0AB
:104660000029F9D11000704780B5002901D500203C
:1046700001E0FFF7EAFF02BD38B50C000025002875
:1046800001D0002C01D1002020E08568002A0DD047
:10469000002D13D0286A002810D0296A200003F0CA
:1046A00043FF00280AD02D68F2E72D68002D05D0C1
:1046B000296A2000FEF7ECFE0028F6D1002D02D07A
:1046C000286A002801D1002000E0280032BD80B512
:1046D0000022FFF7D1FF02BD01604860704738B586
:1046E00004000D000020002D03D0002C01D0AC42AE
:1046F00001D100201BE0A068002804D1A5606D60F6
:104700000020286012E04168002907D02900406895
:10471000FFF7E2FFA068456008E000680168002933
:10472000FBD12900FFF7D8FFA0684560012032BD0A
:1047300080B5FFF7D4FF02BD70472DE9F0410400BA
:10474000080015001E00069900275FF00008002CE5
:1047500005D0002803D0002D01D0AC4201D10020AB
:1047600025E0002908D0FFF7E7FF0700E8684FF4CD
:10477000007151EA00080AE03100FEF7AFFE0700C1
:10478000002F01D1002012E0E86830F40078E868DA
:10479000800505D4286A002802D0286A71688847F5
:1047A0002F62C5F80C8029002000FFF798FFBDE8B4
:1047B000F08180B500230093DFF8B831FFF7BDFF2B
:1047C00002BD00001809010070B582B004000D00A0
:1047D0001000190000F032F8060000200090DFF809
:1047E0009431320029002000FFF7A7FF002801D0F4
:1047F000300003E03000FEF79CFE002076BD70B56F
:1048000082B004000D00100000F04AF806000020FD
:104810000090DFF86031320029002000FFF78DFFA3
:10482000002801D0300003E03000FEF782FE0020B7
:1048300076BD0000400901002009010070B50400A8
:104840000D00DFF83001FEF765FE0600002E22D0D5
:104850000820F060C6E9064520002900DFF818218D
:10486000DFF8183105F08AF903D87FF00040706155
:1048700011E0200029007FF00102DFF8043105F08B
:1048800095F903D25FF00040706104E02000290038
:1048900005F0A4F97061300070BD00002809010026
:1048A00038B50400DFF8CC00FEF734FE0500002D1B
:1048B0000FD01020E860DFF8BC102000FEF70EFEDD
:1048C00028612869002804D12800FEF732FE002064
:1048D00000E0280032BD80B5DFF89800FEF71AFE30
:1048E000002801D02021C16002BD80B5DFF884001E
:1048F000FEF710FE002801D04021C16002BD2DE965
:10490000F84304000D00002600275FF000085FF068
:104910000009002D01D4002C01D1002023E0FFF775
:10492000DAFF8146002605E039004046FFF7D4FE55
:10493000B846761CB9F1000F14D0AE4212D254F82A
:10494000260001F0E7FCFFF779FF0700002F04D1F4
:104950004846FEF7EEFD002005E0002EE4D1C9F840
:104960000870E5E74846BDE8F28380B5014949682B
:10497000884701BD3C0100200000C0FFFFFFDF4170
:10498000FFFFDFC100B585B00121082004F0FCFE67
:1049900032208DF8000001208DF8010007208DF8ED
:1049A000020001208DF8030000A805F04CFA42F245
:1049B0001070ADF808004720ADF804000020ADF8F5
:1049C0000A000020ADF8060001A9474804F04AFF9C
:1049D0000121454805F038F80021434805F011F859
:1049E00001220121404805F000F800200CE03F4979
:1049F000002221F810203E49002221F810203D49D4
:104A0000002241F82020401C0F28F0DB012136480D
:104A100004F0CCFF05B000BD10B50121324805F00F
:104A200017F800282ED0002404E0200080B205F002
:104A3000C5FB641C0F2C1CDA2C4830F8140000282D
:104A4000F7D02D480068294931F81410B0FBF1F275
:104A500001FB1200264931F814108842E9D125489B
:104A600050F824000028E0D0224850F82400804765
:104A7000DFE721480068401C1F49086001211A48EF
:104A800004F0FDFF10BDC0B21849002221F810202B
:104A9000C0B21749002221F81020C0B215490022E7
:104AA00041F82020704710B4C0B2104B23F810100A
:104AB000114B1B6889B2B3FBF1F401FB143389B2CB
:104AC000CB185B1E89B2B3FBF1F401FB1431C0B209
:104AD000074B23F81010C0B2064941F8202010BC43
:104AE0007047054800687047000C004038300020CF
:104AF00058300020A42F0020F830002000F10103DE
:104B0000810704D010F8011B89B18107FAD102682E
:104B1000B2F10131914311F0803F04BF50F8042FEE
:104B2000F6E710F8011B11B110F8011BFBE7C01AE2
:104B3000704750F8041B61B150F8042BD30744BFF1
:104B4000A9F101039A18002342F8043B091FFAD186
:104B5000EFE770475FEA000C830706D011F8013BCE
:104B600000F8013BB3B18307F8D10A68B2F1013311
:104B700023EA020313F0803F02BF40F8042B51F8F0
:104B8000042FF3E711F8013B00F8013B13B111F8D2
:104B9000013BF9E76046704700B58BB0A649C96E86
:104BA0000A91A549096A0991A349C9690891A249CD
:104BB00089690791A049496906919F490969059149
:104BC0009D49C96804919C49896803919A4949683B
:104BD00002919949C978019197498978009196493C
:104BE0004B7895490A78954900F0DEFF01200BB01B
:104BF00000BD80B590489249016774218E4805F048
:104C0000DFFA002801D0012000E0002002BD80B5BD
:104C10007421894805F01BFB002801D0012000E029
:104C2000002002BD80B58448012101708248002126
:104C300041708148002181707F480021C1700020AF
:104C400006E07D4911EB80015FF4E1324A60401CCF
:104C50000528F6DB002006E0774911EB80014FF4D0
:104C6000FA728A61401C0228F6DB734875490162BA
:104C700071487C2180F824106EA17348FFF76AFF09
:104C80006D48002181666C483221C1666A486C49D2
:104C90000167012002BD80B56748006F68498842FE
:104CA0001FD0FFF7B4FF002819D06348006F644994
:104CB00088420BD16048006A6449884206D25E4847
:104CC000C06E0A3840F2DF31884206D3FFF7AAFFF0
:104CD000FFF78FFF5E4801F0DDFA012002E00020BF
:104CE00000E0012002BD70B59AB00400E4B20D2CC2
:104CF00000D30C2457485249416602F074FC050069
:104D000002F071FC060002F06EFCEDB2F6B215EB9B
:104D10000621C0B211EB004502F065FC15EB006006
:104D20004C490866E4B24FF4805000FB04F010F5E3
:104D3000005004F073F96822E4B24FF4805000FB95
:104D400004F010F50051434804F0B7F90020189022
:104D50006822E4B24FF4805000FB04F010F50051DB
:104D600000A804F054FA3B48006E1899884201D11B
:104D7000012000E000201AB070BD80B5C0B20D283F
:104D800000D30C206822C0B24FF48051484310F584
:104D90000051304804F03BFA2E48406E28498842C2
:104DA00001D1012000E0002002BD80B521A12948E9
:104DB000FFF7D0FE1FA12848FFF7CCFE25480021B1
:104DC00080F83C1023481E2180F83D1019A123488B
:104DD000FFF7C0FE1F48002180F85C101D4800212D
:104DE00080F85D101B48002101661A4800214166C9
:104DF000012002BD80B51748406E1149884217D086
:104E00000020FFF7BAFF002808D1154801F042FA48
:104E1000FFF7CBFF0020FFF766FF09E00D4890F891
:104E20005D00401C0B4981F85D000020FFF75BFF2F
:104E3000012002BD00000000000000208CEE0000F8
:104E4000D5A6A249801A060025000020811A060076
:104E500068F300007400002092000020B2000020DF
:104E6000D0F60000314909680843304908607047AE
:104E70002E49096831EA00002C49086070472B4828
:104E80000068704710B5B2B029490968084000248D
:104E9000002802D111E04010641C002802D001005B
:104EA000C907F8D5FFF71DFE03002200214900A81D
:104EB00000F07AFE00A801F072F932B010BD80B5A2
:104EC000012005F01DFA002806D05FF00040FFF732
:104ED000C9FF012005F026FA01BD80B5082005F0C4
:104EE0000FFA002806D05FF00040FFF7BBFF082054
:104EF00005F018FA01BD10B50400FFF7C0FF0C491A
:104F000009680140002084F82000002005E011F02D
:104F10000102303202554908401C2028F7DB0448C2
:104F20000068FFF7A5FF012010BD0000C43000207D
:104F300054010020DCF0000030B4FF2200250023E3
:104F400012E0DBB21D5C254115F00105D2B295EAF5
:104F5000D2155200EDB2002D01D092F03102641C46
:104F6000E4B2082CEDD35B1CDBB28B4201DA0024E7
:104F7000F6E71000C0B230BC7047F0B59BB005003A
:104F800016001C0000A8DFF85C2B136803600027E4
:104F9000EDB2002D00D00125F6B2022E01D201267D
:104FA0000AE0F6B2042E01D2022605E0F6B2082E7F
:104FB00001D2042600E00826F6B2012E03D100201B
:104FC0008DF8010010E0F6B2022E03D110208DF80A
:104FD000010009E0F6B2042E03D120208DF8010073
:104FE00002E030208DF801008DF8021002210DF151
:104FF0000100FFF7A1FF8DF80300EDB2002D07D1EE
:1050000001F07BFC042200A9052001F01AF906E05A
:1050100001F00EFA042200A9022001F012F9F6B202
:10502000701C7D21484380B204F04DFDEDB2002D8F
:1050300004D101A801F06EFC070003E001A801F013
:1050400006FA0700002F14D0791E01A8FFF774FF9D
:1050500001A9791811F8011CC0B2814207D1F6B23A
:10506000320001A9200001F0E0FD781E02E00020DE
:1050700000E000201BB0F0BDF0B59DB004001500AD
:1050800000A8DFF8642AB2E8C010A0E8C0100C3A0B
:105090000C380026E4B2002C00D00124EDB2022D21
:1050A00001D201250AE0EDB2042D01D2022505E06E
:1050B000EDB2082D01D2042500E00825EDB2012D46
:1050C00003D180208DF8010010E0EDB2022D03D154
:1050D00090208DF8010009E0EDB2042D03D1A0204D
:1050E0008DF8010002E0B0208DF801008DF802106B
:1050F000002004E000A94118C25CCA70401CEDB257
:10510000A842F7DBEDB2A91C0DF10100FFF714FF77
:10511000EDB200A96918C870E4B2002C08D101F002
:10512000ECFBEDB22A1D00A9052001F08AF807E08A
:1051300001F07EF9EDB22A1D00A9022001F081F8EC
:10514000FA2004F0C0FCE4B2002C04D103A801F062
:10515000E1FB060003E003A801F079F90600002E48
:1051600016D0711E03A8FFF7E7FE03A9711811F806
:10517000011CC0B2814209D19DF80C00002802D167
:1051800080208DF80C009DF80C0002E0002000E06B
:1051900000201DB0F0BD70B588B006000C00DFF82F
:1051A0005409012101700020FDF792FF002C01D16C
:1051B000012405E04FF47A70844201D340F2E734D1
:1051C0003000DFF8341902F057FE0DD8DFF82C0953
:1051D000310002F0C1FD02F031FD0500ADB2681CE6
:1051E00044080020ADF804003000DFF8141902F084
:1051F00043FE0ED8DFF80C09310002F0ADFD02F0DD
:105200001DFD0500ADB2681C44080820ADF804007F
:105210000EE0DFF8F408310002F09EFD02F00EFD12
:105220000500ADB2681C44084FF46160ADF804009D
:10523000012140F6410004F097FA4FF40060ADF808
:10524000000018208DF8030003208DF8020000A94B
:10525000DFF8B80803F0C6F90121DFF8900803F081
:105260004CFAADF808500020ADF80A000020ADF867
:10527000060001A9DFF8780804F0F4FA7020ADF810
:1052800010000120ADF812000020ADF81800ADF8B4
:10529000164004A9DFF8580804F0FFFA0821DFF8E7
:1052A000500804F0BCFB0021DFF8440804F0A9FB1F
:1052B0000121DFF83C0804F079FB0121DFF8300818
:1052C00004F082FB012008B070BD38B504000D0069
:1052D000EDB2002D01D0002500E00125E4B2002C44
:1052E00003D0DFF8100800210170DFF8080800780B
:1052F000002803D00020FDF7EBFE02E00120FDF7BF
:10530000E7FEE4B2002C04D04FF40060ADF80000DA
:1053100003E04FF40070ADF8000010208DF803009A
:1053200003208DF8020000A9DFF8E00703F05AF926
:10533000E4B2002C08D02A00D2B24FF40061DFF8AA
:10534000CC0703F0D1F907E02A00D2B24FF4007184
:10535000DFF8B80703F0C8F9012032BD30B583B0DB
:1053600001240C2290FBF2F5080000F0D3FFDFF8D7
:10537000A027DFF8A03702F01FFA0022DFF89837E5
:1053800002F042FB0022DFF8943704F0D9FF04F06A
:1053900025FCC0B2402800D33F20002102E000AA33
:1053A0008854491C0829FADB00AB08220021280098
:1053B000C0B2FFF761FE444300AB0422082128007D
:1053C000C0B2FFF759FE444320003EBD30B583B064
:1053D00001250C2290FBF2F40C2290FBF2F302FB6D
:1053E0001300E12903DA03208DF800006DE0B1F528
:1053F000897F03DC13208DF8000066E0B1F5A27F01
:1054000003DC23208DF800005FE0B1F5BB7F03DCF7
:1054100033208DF8000058E0B1F5E17F03DA432036
:105420008DF8000051E040F22620814203DA53203B
:105430008DF8000049E04FF42F70814203DA6320B9
:105440008DF8000041E04FF46170814203DA73206F
:105450008DF8000039E040F24C40814203DA8320AD
:105460008DF8000031E0B1F5C86F03DA93208DF8B4
:1054700000002AE040F6B830814203DAA3208DF81C
:10548000000022E041F28830814203DAB3208DF837
:1054900000001AE041F65830814203DAC3208DF84B
:1054A000000012E042F22830814203DAD3208DF866
:1054B00000000AE043F69820814203DAE3208DF8E9
:1054C000000002E0F3208DF8000000AB012257211C
:1054D0002000C0B2FFF7D0FD454328003EBD2DE9B6
:1054E000FF410600080001240C2196FBF1F50C2178
:1054F00096FBF1F201FB1266642801DB632002E0F7
:10550000012800DA012000F005FF0022DFF8103644
:1055100002F052F90022DFF80C3602F075FA04F0BE
:105520005DFB8DF8080002AB012216F12001C9B223
:105530002800C0B2FFF7A0FD4443082096FBF0F717
:10554000082096FBF0F808FB106800AB012217F169
:105550005001C9B22800C0B2FFF70FFD44439DF8C7
:105560000000012111FA08F108438DF8000000AB9A
:10557000012217F15001C9B22800C0B2FFF77CFD2B
:105580004443200004B0BDE8F0812DE9F04385B02C
:10559000070088460C2097FBF0F40C2097FBF0F1F5
:1055A00000FB1177082097FBF0F5082097FBF0F936
:1055B00009FB1079012600AB012215F15001C9B297
:1055C0002000C0B2FFF7D9FC4643B8F1000F15D058
:1055D000FF208DF8080002AB012217F12001C9B2AB
:1055E0002000C0B2FFF748FD46439DF800000121AE
:1055F00011FA09F108438DF8000007E09DF800005A
:10560000012111FA09F188438DF8000000AB012255
:1056100015F15001C9B22000C0B2FFF72DFD46437D
:10562000300005B0BDE8F08330B583B0002400251C
:1056300000208DF8000000AB012261210020FFF75F
:105640001BFD0400002C01D1002090E000AB0122E2
:1056500061210120FFF710FD0400002C2ED1002055
:1056600085E000A900224254401C0828F9DB00AB69
:10567000082220212800C0B2FFF7FEFC444300AB03
:10568000042228212800C0B2FFF7F6FC4443002082
:105690008DF8000000AB022250212800C0B2FFF7B5
:1056A000EBFC4443E8208DF8000000AB01226421AC
:1056B0002800C0B2FFF7E0FC44436D1C022D55DA10
:1056C00017208DF8000000AB012260212800C0B235
:1056D000FFF7D2FC4443642004F003FA00208DF865
:1056E000000000AB012261212800C0B2FFF7C4FC1A
:1056F000444383208DF8000000AB0122572128008D
:10570000C0B2FFF7B9FC4443002003E000A93F22E8
:105710004254401C0828F9DB00AB08220021280075
:10572000C0B2FFF7A9FC444300AB042208212800C3
:10573000C0B2FFF7A1FC4443002003E000A90F2200
:105740004254401C0828F9DB00AB08224021280005
:10575000C0B2FFF791FC444300AB0422482128006B
:10576000C0B2FFF789FC444300207EE720003EBD25
:1057700080B5FFF759FF01BD80B503208DF800000B
:1057800000AB012260210020FFF776FC00AB012274
:1057900060210120FFF770FC012002BD7CB50400F0
:1057A0000026012500AB012200210020FFF7E5FBC8
:1057B000002814D09DF80000C00711D500AB0222CC
:1057C0007D210020FFF7D9FB002806D09DF80000BE
:1057D0009DF8011010EB012602E0002500E00025F5
:1057E00000AB012270210120FFF7C7FB002816D073
:1057F0009DF80000C00713D500AB02227D210120D7
:10580000FFF7BBFB002808D09DF800009DF80110B1
:10581000090511EB0030861902E0002500E00025A3
:10582000FFF7AAFF002D00D02660280076BD2DE9E5
:10583000FF4106000F00140001255FF00008F6B2DA
:10584000002E00D00126B81FC0B20A2801D21027AE
:1058500003E0FFB21C2F00D31B278DF8087002ABAA
:10586000012262213000C0B2FFF706FC45435FF021
:10587000000800AB012271213000C0B2FFF77DFBB0
:105880004543002D08D09DF80000400704D418F1CE
:105890000108B8F1650FECDBB8F1650F01DB002002
:1058A00084E000AB012273213000C0B2FFF765FB3A
:1058B0004543FFB2002F08D0022F26D015D3042F66
:1058C00044D032D3052F51D060E09DF8000000F0A5
:1058D0002BFD954A954B02F097F8954A954B04F0AD
:1058E0002FFD02F063F920605FE09DF8000000F0FA
:1058F0001BFD914A914B02F087F8914A914B04F0BD
:105900001FFD02F053F920604FE09DF8000000F009
:105910000BFD8D4A8D4B02F077F88D4A8D4B04F0CC
:105920000FFD02F043F920603FE09DF8000000F019
:10593000FBFC894A894B02F067F85FF03332884BF1
:1059400004F0FEFC02F032F920602EE09DF8000029
:1059500000F0EAFC834A844B02F056F8834A844BF9
:1059600004F0EEFC02F022F920601EE09DF8000039
:1059700000F0DAFC704A714B02F046F8704A714B45
:1059800004F0DEFC02F012F920600EE09DF8000049
:1059900000F0CAFC684A694B02F036F8684A694B65
:1059A00004F0CEFC02F002F92060280004B0BDE84B
:1059B000F08180B500AA00210020FFF738FF002801
:1059C0001AD000986B4902F057FA04D800986A4937
:1059D00002F040FA04D3694800F05CFC00207EE04D
:1059E00000AA00210120FFF722FF002809D1644806
:1059F00000F050FC002072E0624800F04BFC0020F8
:105A00006DE000985B4902F037FA04D800985A49D3
:105A100002F020FA04D35C4800F03CFC00205EE079
:105A200000AA01210020FFF702FF002827D00098DC
:105A3000564902F021FA04D80098554902F00AFAB2
:105A400011D30098534902F017FA04D8009852492C
:105A500002F000FA07D3009800F0C0F802000B0033
:105A60004E4800F017FC00AA02210020FFF7DFFEDD
:105A7000002809D1434800F00DFC00202FE04148E8
:105A800000F008FC00202AE00098454902F0F4F9F3
:105A900004D80098434902F0DDF904D3374800F0F8
:105AA000F9FB00201BE000AA02210120FFF7BFFE46
:105AB000002810D000983A4902F0DEF904D8009886
:105AC000384902F0C7F904D32F4800F0E3FB002067
:105AD00005E0012003E02A4800F0DCFB002002BDC5
