:020000040800F2
:10000000B8170020450100086506000857050008DC
:10001000610600088D010008690D0008000000005D
:100020000000000000000000000000002908000897
:10003000010200080000000011070008B1090008D3
:100040005F0100085F0100085F0100085F01000810
:100050005F0100085F010008030200085F0100085B
:100060005F0100085F0100085F0100085F010008F0
:100070005F0100085F0100085F0100085F010008E0
:100080005F0100085F0100085F0100085F010008D0
:100090005F0100085F0100085F0100085F010008C0
:1000A0005F0100085F0100085F0100085F010008B0
:1000B0005F0100085F0100085F0100085F010008A0
:1000C0005F0100085F0100085F0100085F01000890
:1000D0005F010008150A00085F0100085F010008C1
:1000E0008D0200085F0100085F0100085F01000841
:1000F0005F0100085F0100085F0100085F01000860
:100100005F0100085F0100085F0100085F0100084F
:100110005F0100085F0100085F0100085F0100083F
:100120005F0100085F0100085F0100085F0100082F
:10013000DFF80CD000F018F8004800478D0D0008DB
:10014000B81700200648804706480047FEE7FEE74C
:10015000FEE7FEE7FEE7FEE7FEE7FEE7FEE7FEE777
:10016000B509000831010008064C074D06E0E068BB
:1001700040F0010394E8070098471034AC42F6D3EE
:10018000FFF7DAFFD00D0008F00D000800BFFEE712
:1001900000F0805111B10349086001E00249486054
:1001A00070470000040402400000024021B10268D0
:1001B00042F00102026004E002684FF6FE731A404A
:1001C0000260704710B50022026847F6F0739A4348
:1001D0000C6A8B6823430C6923434C6923438C6965
:1001E0002343CC6923434C6A23438C6A23431A4339
:1001F0000260CB6843600B6883604B68C36010BDCE
:10020000704710B5012000F099F820B100F0F4F922
:10021000012000F08DF810BD0EB500F023F801218B
:10022000052000F087FA0120ADF8080004208DF8C1
:100230000B0002A90A4800F0FFF80021084600F070
:10024000DBF80120009000208DF8040008208DF8D4
:10025000050001208DF80600684600F083F80EBD09
:100260000008014008B54FF4C06000F047FA0620CE
:100270008DF8000000208DF801008DF802000120AB
:100280008DF80300684600F001FA08BD10B54FF480
:10029000005000F053F848B14FF4005000F048F817
:1002A00000F0AAF94FF4005000F042F84FF400506B
:1002B00000F03EF810BD00000EB500F025F8012159
:1002C000112000F037FA4FF40050ADF80800042078
:1002D0008DF80B0002A90B4800F0AEF80D210220AA
:1002E00000F08AF84FF40050009000208DF80400D0
:1002F00008208DF8050001208DF80600684600F002
:1003000031F80EBD0010014008B54FF4C06000F098
:10031000F5F928208DF8000001208DF801008DF8F6
:1003200002008DF80300684600F0B0F908BD000037
:100330000149086070470000140401400146002094
:100340000022074B1B6803EA0102054B14331B68AC
:100350000B4013B10AB1012000E0002070470000FB
:1003600000040140002123498279002A3AD00A463C
:10037000126803689A430B461A600A1D12680368E4
:100380009A430B1D1A60027911440A6803681A43E4
:100390000A60184A0832126803689A43154B0833FA
:1003A0001A601A1D126803689A43124B0C331A60C4
:1003B0004279102A0ED11A1F126803681A430D4B96
:1003C00008331A601A1D126803681A43094B0C336C
:1003D0001A600DE00749427911440A6803681A431C
:1003E0000A6005E0027911440A6803689A430A60CA
:1003F000704700000004014030B500228B071C0F3D
:100400000F2303FA04F20B4B8C1053F82430934360
:10041000084C8D1044F8253023468C1053F82430B6
:100420008C07240F00FA04F42343024C8D1044F887
:10043000253030BD080001402DE9F041024600257D
:100440000026002000230024002791F803C00CF0B0
:100450000F0591F803C00CF0100CBCF1000F03D095
:1004600091F802C04CEA050591F800C0BCF1000FFC
:1004700031D0146800202BE04FF0010C0CFA00F38F
:10048000B1F800C00CEA03069E4220D183004FF071
:100490000F0C0CFA03F7BC4305FA03FC4CEA040406
:1004A00091F803C0BCF1280F06D14FF0010C0CFAF3
:1004B00000FCC2F814C00AE091F803C0BCF1480F78
:1004C00005D14FF0010C0CFA00FCC2F810C0401C22
:1004D0000828D1D31460B1F800C0BCF1FF0F34DD9F
:1004E000546800202EE000F1080C4FF0010808FAD3
:1004F0000CF3B1F800C00CEA03069E4221D1830040
:100500004FF00F0C0CFA03F7BC4305FA03FC4CEA5E
:10051000040491F803C0BCF1280F05D100F1080CC8
:1005200008FA0CF8C2F8148091F803C0BCF1480F27
:1005300007D100F1080C4FF0010808FA0CF8C2F8D6
:100540001080401C0828CED35460BDE8F081416182
:1005500070470161704700BFFEE7000008B5012148
:10056000042000F0E7F80120ADF8000004208DF829
:10057000030069460148FFF75FFF08BD000801401E
:1005800008B50121082000F0D5F80120ADF80000E1
:1005900010208DF8030003208DF8020069461548ED
:1005A000FFF74AFF2020ADF8000010208DF803006F
:1005B00003208DF8020069460E48FFF73DFF022038
:1005C000ADF8000010208DF8030003208DF8020024
:1005D00069460848FFF730FF01210648FFF7B9FFD9
:1005E00020210448FFF7B5FF02210248FFF7B1FFC1
:1005F00008BD0000000C014010B520211748FFF78E
:10060000A6FF02211548FFF7A4FF01211348FFF7B9
:10061000A0FF4FF47A7000F0A7F901210F48FFF70F
:1006200096FF20210D48FFF794FF02210B48FFF7AA
:1006300090FF4FF47A7000F097F902210748FFF716
:1006400086FF01210548FFF784FF20210348FFF7BB
:1006500080FF4FF47A7000F087F910BD000C014064
:1006600000BFFEE7704708B54FF4A06000F046F801
:1006700025208DF8000001208DF801008DF8020082
:100680008DF80300684600F001F808BD70B5002140
:1006900000230F22C47804B3154C246804F4E064EA
:1006A000C4F5E064210AC1F10403CA40447804FAA5
:1006B00003F184781440214309010E4C0678A155BA
:1006C000047804F01F050124AC4005786D11AD00DD
:1006D00005F1E025C5F8004109E0047804F01F05A4
:1006E0000124AC40044D0678761145F8264070BDD3
:1006F0000CED00E000E400E080E100E0024901438D
:10070000024A1160704700000000FA050CED00E09D
:100710007047000029B1064A52690243044B5A61EE
:1007200004E0034A52698243014B5A61704700005A
:100730000010024029B1064A92690243044B9A61B3
:1007400004E0034A92698243014B9A6170470000BA
:100750000010024030B500210022002400232D4D5E
:100760006D6805F00C0121B1042905D0082923D1B9
:1007700005E0294D056022E0274D05601FE0254D6D
:100780006D6805F47012234D6D6805F48034022500
:1007900005EB92421CB9214D554305600BE01D4D00
:1007A0006D6805F400351DB11C4D5543056002E030
:1007B000194D5543056002E0174D056000BF00BFAD
:1007C000144D6D6805F0F0010909154D6B5C056865
:1007D000DD4045600F4D6D6805F4E061090A104D7C
:1007E0006B5C4568DD4085600A4D6D6805F46051BD
:1007F000C90A0B4D6B5C4568DD40C560054D6D68F1
:1008000005F44041890B074D6B5CC568B5FBF3F5FA
:10081000056130BD0010024000127A0000093D0061
:100820001400002024000020704710B500F002F8EA
:1008300010BD00000CB50020019000903348006806
:1008400040F480303149086000BF3048006800F44F
:10085000003000900198401C0190009818B9019850
:10086000B0F5A06FF1D12948006800F4003010B154
:100870000120009001E0002000900098012843D161
:100880002348006840F010002149086008460068CD
:1008900020F0030008600846006840F0020008608D
:1008A0001A48406819494860084640684860084648
:1008B000406840F4806048600846406820F47C103E
:1008C00048600846406840F4E81048600846006800
:1008D00040F08070086000BF0C48006800F00070B5
:1008E0000028F9D00948406820F003000749486013
:1008F0000846406840F00200486000BF0348406876
:1009000000F00C000828F9D10CBD000000100240D6
:100910000020024030B50146B1F1807F01D30120B3
:1009200030BD21F07F40401E4FF0E0225061501753
:100930000F22002807DA13071D0E094B00F00F04E1
:10094000241F1D5503E013071C0E064B1C5400BF4B
:1009500000204FF0E0229061072010610020DFE7C7
:1009600018ED00E000E400E031B5104800684FF4F5
:100970007A71B0FBF1F52846FFF7CCFF002408E0C0
:1009800000BF4FF0E020006900F480300028F8D06C
:10099000641C00988442F3D34FF0E020006920F0FB
:1009A00001004FF0E021086138BD00000000002088
:1009B0007047000010B51348006840F0010011496D
:1009C000086008464068104908400E4948600846DB
:1009D00000680E4908400B4908600846006820F48A
:1009E000802008600846406820F4FE0048604FF40C
:1009F0001F008860FFF719FF4FF00060044908608E
:100A000010BD0000001002400000FFF8FFFFF6FEDE
:100A100008ED00E010B540F22551274800F0AFF88E
:100A2000002847D0244800F065F92449087008469A
:100A30000178214800F063F920480078312804D07B
:100A400032280FD0332827D119E020211C48FFF786
:100A50007EFD02211A48FFF77CFD01211848FFF7AF
:100A600078FD26E001211648FFF771FD202114488A
:100A7000FFF76FFD02211248FFF76BFD19E002211D
:100A80000F48FFF764FD01210D48FFF762FD2021AB
:100A90000B48FFF75EFD0CE020210948FFF759FDE8
:100AA00002210748FFF755FD01210548FFF751FDD9
:100AB00000BF00BF10BD000000380140280000202A
:100AC000000C014021B1828942F40052828104E08D
:100AD00082894DF6FF731A408281704700B585B058
:100AE00001210420FFF726FE01218803FFF722FEE3
:100AF0004FF40070ADF8100018208DF8130003209B
:100B00008DF8120004A91748FFF796FC4FF4806097
:100B1000ADF8100004208DF8130004A91148FFF768
:100B20008BFC4FF4E13000900020ADF80400ADF8EC
:100B30000600ADF80800ADF80C000C20ADF80A0076
:100B40006946094800F06AF8FFF78DFD012240F27E
:100B50002551054800F03DF801210348FFF7B2FF99
:100B600005B000BD00080140003801401AB1838A79
:100B70000B43838202E0838A8B438382704770B584
:100B80000246002400230025002040F66A16B142E8
:100B900000D100BFC1F3421501F01F03012606FA80
:100BA00003F3012D02D19689334006E0022D02D1D4
:100BB000168A334001E0968A33400C12012606FA69
:100BC00004F41688344013B10CB1012000E0002079
:100BD00070BDF0B50346002400260025002040F635
:100BE0006A17B94200D100BF1846C1F3421401F0A0
:100BF0001F06012707FA06F5012C01D10C3004E08D
:100C0000022C01D1103000E014301AB107682F43D4
:100C1000076002E00768AF430760F0BD2DE9F047C9
:100C200086B005460E460024A24600BFA146002716
:100C3000B08900B100BF2F462C8A4CF6FF700440EB
:100C4000F08804432C82AC894EF6F3100440B0883F
:100C500031890843718908430443AC81AC8A4FF65B
:100C6000FF400440B0890443AC8201A8FFF772FD45
:100C70001F48874202D1DDF810A001E0DDF80CA08A
:100C8000A88900F4004040B10AEBCA0000EB0A104A
:100C900031684900B0FBF1F807E00AEBCA0000EB4D
:100CA0000A1031688900B0FBF1F86420B8FBF0F05D
:100CB00004012009642101FB1089A88900F4004087
:100CC00040B1322000EBC900B0FBF1F000F00700AA
:100CD000044308E0322000EB09106421B0FBF1F07E
:100CE00000F00F0004432C8106B0BDE8F08700003F
:100CF0000038014001468888C0F308007047C1F3FE
:100D0000080282807047000000B58BB001210846C0
:100D1000FFF700FD1248009041F28830019010204A
:100D2000029041F2883003900020049006908020C9
:100D300005900020079008904FF400500990002083
:100D40000A9069460748FFF73DFA4FF40010FFF795
:100D50001FFA01210348FFF729FA0BB000BD00007C
:100D6000043801404400024000BFFEE702E008C82A
:100D7000121F08C1002AFAD170477047002001E015
:100D800001C1121F002AFBD17047000000BF0020E4
:100D900003E00D4A1054411C88B241F28831884268
:100DA000F7DBFFF7EDFBFFF7D9FBFFF735FAFFF7AE
:100DB00083FAFFF793FEFFF7A7FF01228021034884
:100DC000FFF7D4FE00BFFEE72C00002000380140F2
:100DD000F00D0008000000202C0000006C0D000841
:100DE0001C0E00082C0000208C1700007C0D000851
:100DF00000A24A04000000000000000001020304F9
:100E000006070809000000000102030401020304B0
:0C0E1000060708090204060800000000A4
:0400000508000131BD
:00000001FF
