:020000040800F2
:1000000008070020CD0100085B1400087F130008DA
:1000100059140008D302000801180008000000006D
:100020000000000000000000000000005F14000855
:10003000D5020008000000005D14000861140008EB
:10004000E7010008E7010008E7010008E7010008F0
:10005000E7010008E7010008E7010008E7010008E0
:10006000E7010008E7010008E7010008E7010008D0
:10007000E7010008E7010008E7010008E7010008C0
:10008000E7010008E7010008E7010008E7010008B0
:10009000E7010008E7010008E7010008E7010008A0
:1000A000E7010008E7010008E7010008E701000890
:1000B000E7010008E7010008E7010008E701000880
:1000C000E7010008E7010008E7010008E701000870
:1000D000E7010008E5170008E7010008E70100084C
:1000E000E7010008E7010008E7010008E701000850
:1000F000E7010008E7010008E7010008E701000840
:10010000E7010008E7010008E7010008E70100082F
:10011000E7010008E7010008C5140008E70100082E
:10012000E7010008E7010008E7010008E70100080F
:1001300000F002F800F03AF80AA090E8000C8244BF
:100140008344AAF10107DA4501D100F02FF8AFF29C
:10015000090EBAE80F0013F0010F18BFFB1A43F0A5
:10016000010318472C1700004C170000103A24BF59
:1001700078C878C1FAD8520724BF30C830C144BF0C
:1001800004680C607047000000230024002500264E
:10019000103A28BF78C1FBD8520728BF30C148BFEA
:1001A0000B6070471FB51FBD10B510BD00F058F8AB
:1001B0001146FFF7F7FF01F035FB00F076F803B4C6
:1001C000FFF7F2FF03BC00F07DF80000094880470C
:1001D00009480047FEE7FEE7FEE7FEE7FEE7FEE729
:1001E000FEE7FEE7FEE7FEE704480549054A064B41
:1001F00070470000C1140008310100080801002008
:100200000807002008030020080300204FF0000228
:1002100000B5134694469646203922BFA0E80C50FC
:10022000A0E80C50B1F12001BFF4F7AF090728BFD7
:10023000A0E80C5048BF0CC05DF804EB890028BF53
:1002400040F8042B08BF704748BF20F8022B11F07C
:10025000804F18BF00F8012B7047704770477047F8
:10026000754600F02BF8AE4605006946534620F06F
:100270000700854618B020B5FFF7B6FFBDE820405F
:100280004FF000064FF000074FF000084FF0000B52
:1002900021F00701AC46ACE8C009ACE8C009ACE805
:1002A000C009ACE8C0098D46704710B50446AFF3ED
:1002B00000802046BDE81040FFF781BF004870472E
:1002C000A400002001491820ABBEFEE72600020072
:1002D0007047FEE7704772B6FEE710B590F8211040
:1002E0000022022905D00421816380F8202001200A
:1002F00010BD01680B6823F00E030B6001680B68EA
:1003000023F001030B6090F84030C46B012101FA27
:1003100003F3636080F8211080F82020104610BDA0
:100320002DE9F05F90F821100024022903D0042168
:100330008163012485E001680A6822F00E020A60E8
:1003400001680A6822F001020A603F4E3E4FB21572
:10035000DFF8F4C0DFF8F090DFF8ECA0DFF8E8B0E9
:10036000DFF8E4E00168783F13011502ACF1640C9A
:10037000A9F15009AAF13C0AABF1280BAEF1140E19
:100380004FF48018B14227D9B9420ED0614512D03E
:1003900049451DD0514518D0594518D0714501D156
:1003A000424615E0294EB14201D1012210E0274E0C
:1003B0001436B14201D110220AE0244E2836B1424F
:1003C00006D0224A3C32914201D11A4600E02A4628
:1003D0001E49091F0A602BE0B94213D0614517D0AE
:1003E000494522D051451DD059451DD0714501D1F7
:1003F00042461AE0B14202D14FF0807215E0134E2E
:10040000B14201D1012210E0104E1436B14201D1A7
:1004100010220AE00D4E2836B14206D00B4A3C327B
:10042000914201D11A4600E02A46074980394A60C4
:10043000012180F82110002180F82010416B01B1CA
:1004400088472046BDE8F09F800002400804024033
:1004500070B5044600F010F90546601C02D004484F
:100460000078044400F008F9401BA042FAD370BDA4
:10047000040000202DE9F84FDFF8C8910024A9F10D
:10048000040B23460F2709F1040AABF1040ED1E057
:100490000125A54006EA0502AA4276D1DFF8A8C1E7
:1004A0004E68A6EB0C0866452BD00DDC032E34D02D
:1004B00005DC36B3012E19D0022E2FD11BE0112EF0
:1004C00016D0122E2AD119E0B8F5881F19D006DCF3
:1004D000B8F5803F15D0B8F5801F1FD111E0B8F5F1
:1004E000001F0ED0B8F5041F18D10AE0CB6815E044
:1004F000CB681B1D12E0CB6808330FE0CB680C33D0
:100500000CE08B682BB1012B4FF0080303D0456141
:1005100004E0042302E0056100E00023FF2A01D883
:10052000064601E000F104064FEA840501D9A5F171
:100530002005D6F8008007FA05FC28EA0C0803FA23
:1005400005F548EA0508C6F800804D68ED0070D54D
:100550003E4DAE6946F00106AE61AD6924F003067A
:1005600005F0010500953A4D06EB050CDCF8085046
:10057000A607360F07FA06F825EA0805DFF8D48043
:10058000404503D14FF0000825E052E0DFF8C88075
:10059000404502D14FF001081DE0DFF8C080404522
:1005A00002D14FF0020816E0DFF8B480404502D1D6
:1005B0004FF003080FE0DFF8AC80404502D14FF068
:1005C000040808E0DFF8A080404502D14FF005089C
:1005D00001E04FF0060808FA06F848EA0508CCF8EA
:1005E00008804D68D9F80060ED024D4601D51643EC
:1005F00000E096432E604D68DAF80060AD02554683
:1006000001D5164300E096432E604D68DBF800608C
:10061000AD035D4601D5164300E096432E604D685C
:10062000DEF80060ED03754601D5164300E0964301
:100630002E60641C0A681646E2407FF429AFBDE8CC
:10064000F88F000008040140000011100010024063
:100650000000014000080140000C01400010014072
:100660000014014000180140001C01400AB1016162
:1006700070470904FBE700000148806870470000EC
:1006800004000020024881680278114481607047AC
:1006900004000020074810B5016841F01001016016
:1006A000032000F09FF80F2000F006F800F050F84B
:1006B000002010BD0020024030B505461F4887B01D
:1006C000C16941F01001C161C06906A900F01000C4
:1006D000009001A800F02EF90498B0B100F04AF99A
:1006E00040001749174AB0FBF1F11748491E026054
:1006F000416040F2E7320021C0E90321816081615D
:1007000000F010FB040003D015E000F033F9E8E737
:100710000D4800F035FB04000DD1362000F034F810
:10072000102D07D200222946362000F03BF807485A
:10073000056000E0012407B0204630BD00100240F3
:1007400040420F00001000405C0000200800002024
:100750000B4808B5816941F001018161816901F0AF
:1007600001010091C16941F08051C161C06900F08F
:10077000805000900348416821F0E061416008BD6D
:100780000010024000000140002809DB00F01F02B9
:10079000012191404009800000F1E020C0F80011E3
:1007A00070470000F0B40E4B1B680C46C3F30223E5
:1007B000C3F10705042D00D90425191D072901D20D
:1007C000002300E0DB1E012606FA05F1491E214048
:1007D00099409E40761E16403143F0BC01F011B89E
:1007E0000CED00E0064900F0070208684FF6FF0331
:1007F000184040EA0220034A104308607047000096
:100800000CED00E00000FA052DE9F0470F46050069
:1008100061D0434E306800F00700B84209D230681A
:1008200020F0070038433060306800F00700B8421D
:1008300051D128683B4C810712D5400703D5606829
:1008400040F4E06060602878000703D5606840F4F9
:10085000605060606068A96820F0F0000843606044
:100860002878C00728D06868012810D0216802289D
:1008700010D0890700292EDA616821F003010143B5
:100880006160FFF7F9FE804641F288390DE021688A
:100890008903EFE78901EDE7FFF7EEFEA0EB080122
:1008A000494502D90320BDE8F0876068696800F017
:1008B0000C00B0EB810FEFD1306800F00700B842B8
:1008C0000BD9306820F0070038433060306800F002
:1008D0000700B84201D00120E5E72878400705D598
:1008E0006068E96820F4E0600843606028780007E9
:1008F00006D56068296920F4605040EAC100606054
:1009000000F058F86168084AC1F30311515CC8400F
:100910000649086006480068FFF7CEFE0020C2E7DF
:10092000002002400010024076180008100000204D
:10093000080000200F2202600C4A536803F00303F2
:100940004360536803F0F0038360536803F4E0638B
:10095000C36052684FF4E06303EAD20202610448C4
:10096000006800F0070008607047000000100240B7
:10097000002002400448054900684968044AC1F360
:100980000221515CC8407047100000200010024056
:10099000861800080448054900684968044AC1F3FC
:1009A000C221515CC8407047100000200010024076
:1009B000861800080E4A51680E4801F00C03042BFB
:1009C00011D0082B0FD10C48C1F38343C903C05C7D
:1009D0000AD55168084AC1F34041921E515C054A4C
:1009E0005043B0FBF1F070470449484370470000A2
:1009F0000010024000127A006618000800093D004D
:100A00002DE9F84F040070D02078C04DC00749D0C0
:100A10006868C0F38100012807D06868C0F38100CE
:100A2000022809D16868C00306D52868800339D533
:100A300060680028E7D035E06068B0F5803F0BD0F3
:100A400010B1B0F5A02F11D0286820F480302860B4
:100A5000286820F4802002E0286840F48030286074
:100A6000606890B1FFF708FE06460AE0286840F487
:100A700080202860F0E700BFFFF7FEFD801B6428A0
:100A800073D828688003F7D50CE0FFF7F5FD06461C
:100A900005E000BFFFF7F0FD801B6428F0D8286850
:100AA0008003F7D420789A4E80074FF001094FF069
:100AB000000839D5686810F00C0F07D06868C0F3DB
:100AC0008100022809D16868C00306D4286880071D
:100AD00014D52069012808D110E02069B0B1C6F80A
:100AE0000090FFF7C9FD074605E00AE1FFF7C4FDE6
:100AF000C01B0228C4D828688007F7D52868616918
:100B000020F0F80040EAC10028600DE0C6F800803F
:100B1000FFF7B2FD074604E0FFF7AEFDC01B022859
:100B200023D828688007F7D4207800072CD5794887
:100B3000A169D9B1C0F80090FFF79EFD074604E017
:100B4000FFF79AFDC01B02280FD8686A8007F7D507
:100B500071484FF4FA510068B0FBF1F0009000BF0B
:100B60000098411E0091FAD20EE080E0C0F80080AB
:100B7000FFF782FD074604E0FFF77EFDC01B022859
:100B800075D8686A8007F7D42078400760D5E8698F
:100B90000027C00008D4E86940F08050E861E869A7
:100BA000012700F0805000905C480168C90513D40B
:100BB0000168834641F480710160FFF75DFD824664
:100BC00006E000BFFFF758FDA0EB0A0064284ED8EE
:100BD000DBF80000C005F5D5E06801280AD008B1AF
:100BE000052813D0286A20F001002862286A20F026
:100BF000040002E0286A40F001002862E06841F247
:100C0000883B98B1FFF738FD82460BE0286A40F038
:100C100004002862EEE700BFFFF72EFDA0EB0A01FB
:100C200059455AD8286A8007F6D50CE0FFF724FD0D
:100C3000824605E0FFF720FDA0EB0A0159454CD89C
:100C4000286A8007F6D41FB1E86920F08050E86177
:100C5000E06988B36968C1F38101022944D00228A0
:100C6000C6F8608004D0FFF707FD044638E034E0A2
:100C7000FFF702FD074604E0FFF7FEFCC01B022859
:100C80002BD828688001F7D4206AB0F5803F05D1C1
:100C90006868A16820F4003008436860D4E908015E
:100CA0000843696821F4741108436860C6F86090CD
:100CB000FFF7E2FC044606E025E000BFFFF7DCFC9E
:100CC000001B022809D828688001F7D51BE000BF67
:100CD000FFF7D2FC001B022802D90320BDE8F88FE1
:100CE00028688001F4D40EE00128F7D06868226AF1
:100CF00000F48031914204D1616A00F4701088429E
:100D000001D00120EAE70020E8E7000000100240DF
:100D10000000424280044242100000200070004067
:100D20007047704710B5040003D094F83D0010B12F
:100D300007E0012010BD002084F83C00204600F0B0
:100D40001EF8022084F83D00211D206800F0C0FB41
:100D5000012084F8460084F83E0084F83F0084F8BF
:100D6000400084F8410084F8420084F8430084F88D
:100D7000440084F8450084F83D00002010BD704711
:100D800090F83D10012901D001207047022180F820
:100D90003D100168CA6842F00102CA6000680E494D
:100DA00088420ED00D4988420BD0B0F1804F08D058
:100DB0000B49884205D00B49884202D00A49884233
:100DC00004D1816801F00701062903D0016841F0D0
:100DD0000101016000207047002C014000340140F7
:100DE0000004004000080040000C0040704770B54F
:100DF0000446006801694FF00005C943890715D40E
:100E0000C168C943890711D4E91E01610120207717
:100E1000206880698007204602D0FFF7E7FF04E0E2
:100E200000F098F8204600F096F8257720680169D0
:100E3000C943490717D4C168C943490713D46FF0A0
:100E400004010161022020772068806910F4407F4E
:100E5000204602D0FFF7CAFF04E000F07BF82046EE
:100E600000F079F8257720680169C943090716D48D
:100E7000C168C943090712D46FF008010161042059
:100E800020772068C0698007204602D0FFF7AEFFB8
:100E900004E000F05FF8204600F05DF82577206858
:100EA0000169C943C90617D4C168C943C90613D427
:100EB0006FF010010161082020772068C06910F4EC
:100EC000407F204602D0FFF791FF04E000F042F897
:100ED000204600F040F8257720680169C943C9071A
:100EE00008D1C168C943C90704D1891E01612046E0
:100EF00000F032F820680169C943090609D4C168C5
:100F0000C943090605D46FF0800101612046FFF74F
:100F100007FF20680169C943490609D4C168C9436C
:100F2000490605D46FF040010161204600F01EF82B
:100F300020680169C94389060BD4C168C943890681
:100F400007D46FF0200101612046BDE87040FFF733
:100F5000E8BE70BD7047704700680349884201D100
:100F6000FFF790BB704700000010004070477047CB
:100F700070470000F8B5016804460868CA684B6904
:100F800010F00F0F4FF0000559D003F0010602F4E6
:100F90009077374365D0C10705D0D10503D5616C83
:100FA00041F001016164410705D5D90703D0616CA7
:100FB00041F002016164810705D5D90703D0616C56
:100FC00041F004016164010707D502F020013143BB
:100FD00003D0616C41F008016164616C00293AD072
:100FE000800604D5900602D5204600F0E6FA206877
:100FF0004069616CC0F38010090700D460B32046DB
:1010000000F0B4FA20684069400621D52068143009
:1010100050E8001F21F0400140E80012002AF5D1FD
:10102000E06BA8B16D494163E06BFFF779F90028E7
:1010300011D0E06B416B01B0BDE8F040084783067A
:101040000FD593060DD52046BDE8F84000F0B5BA9F
:101050002046FFF78DFFF8BD2046FFF789FF656446
:10106000F8BD266B2023012E7CD1C6067AD5D60684
:1010700078D508684868009048694FF00206400635
:1010800040D5E16B086840680004000CE8D0A28DF0
:101090008242E5D9E085886920282DD020680C306F
:1010A00050E8001F21F4807140E80012002AF5D1B9
:1010B0002068143050E8001F21F0010140E80012C0
:1010C000002AF5D12068143050E8001F21F04001BB
:1010D00040E80012002AF5D184F8423025632068E8
:1010E0000C3050E8001F21F0100140E80012002AE7
:1010F000F5D1E06BFFF7F1F86663A08DE18D401A42
:1011000081B22AE0A08DE18D401A81B2E08D0028E5
:10111000A6D00029A4D022680C3252E8000F20F497
:10112000907042E80007002FF5D12068143050E895
:10113000002F22F0010240E80027002FF5D184F8AB
:101140004230256320680C3050E8002F22F0100256
:1011500040E80023002BF5D166632046FFF707FF28
:10116000F8BDFFE705062BD5150629D594F84100F3
:101170002128F5D1A068B0F5805F01D12069B0B118
:10118000206A411C2162216800784860E08C401E82
:101190000004000CE084E3D12068C16821F08001E4
:1011A000C1602068C16841F04001C160D8E7206A91
:1011B0000088C0F308004860206A801C2062E5E7D0
:1011C0004006CDD55006CBD5CA68204622F0400255
:1011D000CA6084F8413000F0D1F8C1E75D1500081D
:1011E00070B5040004D094F84100002510B106E069
:1011F000012070BD84F84050204600F023F82420E0
:1012000084F841002068C16821F40051C160204683
:1012100000F034FA2068016921F4904101612068EE
:10122000416921F02A0141612068C16841F40051FF
:10123000C1606564202084F8410084F84200656341
:10124000002070BD30B585B0002400940194029454
:1012500003940068184988422CD11848816941F4E8
:1012600080418161816901F480410491816941F08B
:10127000040181618069124D00F0040004904FF474
:1012800000700090022001900320039069462846D8
:10129000FFF7F0F82815CDE90004694628460294C6
:1012A000FFF7E8F8002211462520FFF77BFA2520FA
:1012B000FFF76AFA05B030BD003801400010024067
:1012C0000008014090F84230202B01D002207047E6
:1012D00021B11AB10023036300F02CBA012070473A
:1012E00070472DE9F843044690F841001F46164622
:1012F0000D46202802D00220BDE8F8837DB176B1EA
:1013000000206064212084F84100FFF7B5F9A6842D
:101310008046E684A068B0F5805F02D003E001203B
:10132000EAE7206910B12E4600250EE000260CE009
:101330008021204600F019FAA0B9AEB116F8010BD1
:1013400021684860E08C401EE084E08C43464FF00A
:10135000000200970028EBD14FF04001204600F03A
:1013600004FA30B10320C7E735F8020BC0F30800D8
:10137000E6E7202084F841000020BDE77047FEE743
:1013800070B586B000241F48009401940294039421
:10139000816941F010018161816901F010010491BE
:1013A000816941F004018161816901F004010491C6
:1013B000816941F0080181618069134E00F00800E5
:1013C0000490002223213046FFF750F97014CDE934
:1013D000000469460D480294FFF74CF80125CDE959
:1013E000005469460A480294FFF744F82320CDE9E7
:1013F00000050220CDE9024069463046FFF73AF881
:1014000006B070BD00100240000C01400010014009
:10141000000801400E4810B50C4901604FF4E1315D
:101420004160002181600C22C160C0E90412816129
:10143000C161FFF7D5FE08B1FEF74DFFBDE81040D2
:10144000012204490248FFF73DBF00000038014077
:101450001400002000000020FEE7FEE77047704700
:10146000704730B58FB028216846FEF7CFFE1421B3
:101470000AA8FEF7CBFE01210804CDE900100024E4
:10148000029402250491CDE907504FF4E010099031
:101490006846FFF7B5FA08B172B6FEE70F20CDE94E
:1014A0000A054FF48060CDE90C4002210AA80E9491
:1014B000FFF7AAF9002801D072B6FEE70FB030BDE1
:1014C000704700000148FFF792BC00005C0000205C
:1014D000F0B502681C4B1D4D1D4E1E4F1E4C4FF0AB
:1014E000804C984209D0A04207D0604505D0A84260
:1014F00003D0B04201D0B84204D122F0700E4A6845
:1015000042EA0E02984209D0A04207D0604505D0B9
:10151000A84203D0B04201D0B84203D122F44075B2
:10152000CA682A434D6922F080022A4302608A6811
:10153000C2620A688262984201D0A04201D1096960
:10154000016301214161F0BD002C01400004004015
:1015500000080040000C00400034014010B5406A13
:101560000021C185C184FFF703FD10BD01680C3166
:1015700051E8002F22F4907241E80023002BF5D1AE
:101580000168143151E8002F22F0010241E80023E4
:10159000002BF5D1016B012909D101680C3151E80B
:1015A000002F22F0100241E80023002BF5D120216A
:1015B00080F8421000210163704708B590F842108E
:1015C000222901D0022008BD82684FF480539A423C
:1015D00001D1016921B1816A9A421BD04AB10AE066
:1015E0000268816A5268C2F308020A80816A891C13
:1015F00008E0026972B10268526802F07F020A7064
:10160000816A491C8162C18D491E0904090CC1858A
:1016100003D01BE002685268F1E70168CA6822F053
:101620002002CA600168CA6822F48072CA60016838
:101630004A6922F001024A61202180F8421000210B
:101640004163026B012A03D0FFF74AFE002008BD68
:10165000016301680C3151E8002F22F0100241E8CB
:101660000023002BF5D101680A68D20602D50A686A
:1016700049680091818DFFF77AFCE7E770B5044671
:1016800000680169E26821F4405111430161216958
:10169000A0680843616908432168CA6841F20C6385
:1016A0009A430243CA6020684169A26921F44071EB
:1016B000114341611E492068884202D1FFF76AF94F
:1016C00001E0FFF757F900EBC00101EB0012606881
:1016D00064218000B2FBF0F3B3FBF1F36FF0180666
:1016E0007343B2FBF0F5B2FBF0F605EB8305322352
:1016F00003EB0515B5FBF1F5B6FBF1F605F0F005CA
:1017000005EB0615B2FBF0F6B2FBF0F0B0FBF1F022
:101710006FF01802504306EB800003EB0010B0FBA3
:10172000F1F0216800F00F002844886070BD0000CF
:101730000038014081628285C285002141642221F6
:1017400080F84210016921B10168CA6842F48072D0
:10175000CA6001684A6942F001024A610068C168D2
:1017600041F02001C160002070472DE9F04198460A
:1017700017460E460446069D27E0681C25D02DB16D
:10178000FEF77AFFA0EB0800A8421ED920680C30B3
:1017900050E8001F21F4D07140E80012002AF5D172
:1017A0002068143050E8001F21F0010140E80012C9
:1017B000002AF5D1202084F8410084F8420000205E
:1017C00084F840000320BDE8F0812068006836EA14
:1017D000000004D00020B842CFD00020F3E7012061
:1017E000F9E70000054800680168C943890602D48A
:1017F0004168C9B241600148FFF7BCBB140000203A
:10180000FEE70907090E002804DB00F1E02080F85C
:101810000014704700F00F0000F1E02080F8141D64
:1018200070470000FEF736FFFFF71BFEFFF7A8FD2D
:10183000FFF7F0FD4FF47A730F2205A10848FFF778
:1018400050FD40F6B8342046FEF702FEFBE70000EC
:1018500041495F417373697374616E74210D0A00AD
:1018600014000020010202030405060708090A0B00
:101870000C0D0E0F1010000000000000000001020F
:101880000304060708090000000001020304000029
:10189000B018000800000020140000006C010008CF
:1018A000C418000814000020F40600008801000895
:1018B0000000000001000000100000000000000017
:0418C0000024F4000C
:0400000508000131BD
:00000001FF
