:020000040800F2
:100000003006002065010008F7190008A91600084D
:10001000F5190008C7020008491B0008000000008D
:10002000000000000000000000000000FF190008B0
:10003000D502000800000000FD190008011A0008A0
:100040007F0100087F0100087F0100087F01000890
:100050007F0100087F0100087F0100087F01000880
:100060007F0100087F0100087F010008C902000825
:100070007F0100087F0100087F0100087F01000860
:100080007F0100087F0100087F0100087F01000850
:100090007F0100087F0100087F0100087F01000840
:1000A0007F0100087F0100087F0100087F01000830
:1000B0007F0100087F0100087F0100087F01000820
:1000C0007F0100087F0100087F0100087F01000810
:1000D0007F0100087F0100087F0100087F01000800
:1000E0007F0100087F0100087F0100080000000078
:1000F0000000000000000000000000000000000000
:1001000000000000000000007F0100087F010008DF
:100110007F0100087F0100087F0100087F010008BF
:100120007F0100087F0100087F0100087F010008AF
:100130007F01000800000000000000007F010008AF
:100140007F0100087F0100087F0100087F0100088F
:10015000DFF80CD000F07AF800480047891B00084F
:10016000300600200648804706480047FEE7FEE7C5
:10017000FEE7FEE7FEE7FEE7FEE7FEE7FEE7FEE757
:100180008D1A0008510100082DE9F05F0546002096
:1001900092469B4688460646814640241BE02846F8
:1001A00041464746224600F020F853465A46C01AB8
:1001B000914110D311461846224600F038F82D1A06
:1001C00067EB01084F4622460120002100F02FF87E
:1001D00017EB00094E41201EA4F10104DFDC484664
:1001E00031462A464346BDE8F09F202A04DB203AE8
:1001F00021FA02F00021704721FA02F3D040C2F147
:1002000020029140084319467047D2B201E000F83D
:10021000012B491EFBD270470022F6E710B51346AA
:100220000A4604461946FFF7F0FF204610BD202A73
:1002300004DB203A00FA02F1002070479140C2F13D
:10024000200320FA03F3194390407047064C074DF2
:1002500006E0E06840F0010394E807009847103496
:10026000AC42F6D3FFF778FFD81B0008F81B000854
:1002700070B5044600688168C943C90717D1816811
:1002800021F00101816000F0E5FB05460AE000BFB6
:1002900000F0E0FB401B022804D920688068C043BE
:1002A000C00706D020688068C043C007F0D0002097
:1002B00070BDA06A40F01000A062E06A40F001004A
:1002C000E062012070BDFEE7014800F06BB900005C
:1002D00040000020704772B6FEE70000F8B5002429
:1002E000009490F824202546012A12D0012280F89B
:1002F00024204A681F23072A0DD20668776B521EF6
:1003000002EB820293409F430B6893401F43776345
:1003100019E00220F8BD06680D2A0AD2376BD21FF9
:1003200002EB820293409F430B6893401F43376365
:1003300009E0F76A0D3A02EB820293409F430B6893
:1003400093401F43F7620A68072306680A2A0AD304
:10035000F7680A3A02EB420293409F438B6893404E
:100360001F43F76008E0376902EB420293409F4366
:100370008B6893401F4337610A68102A01D0112A05
:1003800020D1124B02689A4217D193681B0219D4EC
:10039000936843F4000393600968102912D10C4953
:1003A0000C4A0968B1FBF2F101EB8101490000E060
:1003B000491E00910029FBD104E0816A41F020012F
:1003C0008162012480F824502046F8BD00240140B9
:1003D0000C00002040420F002DE9F0414FF00007D3
:1003E00004003D467ED0A06A002628B9E66284F863
:1003F0002460204600F07EF82046FFF739FFA16A0E
:1004000001F01001014304D0A06A40F01000A06286
:1004100068E0A16A21F4885141F00201A16262689A
:10042000E169237B0A4347EA43010A43A1684FF489
:100430008077B94208D0012906D0002194F814C071
:10044000BCF1010F02D00AE03946F7E7F3B1A36A25
:1004500043F02003A362E36A43F00103E3622368ED
:10046000D3F804C02CF4694C4CEA010CC3F804C066
:1004700023689968DFF870C001EA0C0111439960A4
:10048000A168B9420BD0012909D00CE0DFF85CC0AB
:10049000A3690CEB43330B4343F40061DFE7218A8C
:1004A0000D05A5F580152168CB6A23F470032B4355
:1004B000CB62216889680E4B1940914208D1E662EF
:1004C000A16A21F0020141F00101A162BDE8F081C1
:1004D000A06A20F0020040F01000A062E06A40F044
:1004E0000100E0620120F1E7FDF7E1FF00E0FFFF1E
:1004F000FE0E1FFF70B586B00025064600950195DB
:10050000029503950068214988423CD120498869B9
:1005100040F400708861886900F400700490886974
:1005200040F004008861886900F004000490886944
:1005300040F0080088618869032400F008000490F6
:10054000FF20CDE900046946124800F08DF90094BF
:1005500069461148019400F087F9114C0F48C4E92D
:1005600000058020C4E902504000206180006061E5
:100570002020C4E90605204600F038F908B1FFF74D
:10058000AAFE3462666206B070BD0000002401401D
:100590000010024000080140000C01400800024029
:1005A000400000202DE9F05FC16B0A6801680B680C
:1005B000046C4FF0040808FA04F8844D844E854F0B
:1005C000DFF814C2DFF81492DFF814A2DFF814B2D7
:1005D000DFF814E218EA020F65D05FEA437862D5CB
:1005E0000A68920603D40A6822F004020A60DFF85F
:1005F000F0814FF48062016808F1140813011402BD
:10060000414524D9A9420DD0B1420FD0B9421AD0E8
:10061000614515D0494515D0514501D1120312E06D
:10062000594501D104220EE0714501D140220AE072
:100630006D4D1435A94206D06B4A2832914201D142
:100640001A4600E022466749091F0A6029E0A942CC
:1006500013D0B14215D0B94220D061451BD04945D5
:100660001BD0514502D14FF4800217E0414502D121
:100670004FF0806212E0594501D104220EE071452D
:1006800001D140220AE0584D1435A94206D0564AFD
:100690002832914201D11A4600E022464B490839DE
:1006A0004A60C16A71E04FF0020808FA04F818EADB
:1006B000020F70D05FEA83786DD50A68920606D47F
:1006C0000A6822F00A020A60012180F82110DFF88E
:1006D00010814FF40072016808F11408130114022C
:1006E000414524D9A9420DD0B1420FD0B9421AD008
:1006F000614515D0494515D0514501D1120312E08D
:10070000594501D102220EE0714501D120220AE0B3
:10071000354D1435A94206D0334A2832914201D1D1
:100720001A4600E022462F49091F0A6029E0A94223
:1007300013D0B14215D0B94220D061451BD04945F4
:100740001BD0514502D14FF4001217E0414502D1B0
:100750004FF0007212E0594501D102220EE07145BE
:1007600001D120220AE0204D1435A94206D01E4AAC
:100770002832914201D11A4600E022461349083935
:100780004A60002180F82010816A00291CD0BDE851
:10079000F05F0847FFE70825A540154214D01A0767
:1007A00012D50A6822F00E020A6090F84020C36B4E
:1007B000012101FA02F25A60816380F821100021C0
:1007C00080F82010016BE0E7BDE8F09F08000240D0
:1007D0001C00024030000240440002405800024029
:1007E0006C000240080402401C04024030B560B1B5
:1007F0001A4B026814219A4209D2194B1344B3FBD5
:10080000F1F18900016417490AE0012030BD134B62
:100810005B421344B3FBF1F1890001640F490839CD
:10082000C163022180F82110136843F6F0718B43F5
:10083000F0E901142143D0E902452C432143046926
:1008400021434469214384692143194311600021F4
:100850004163012242770177084630BD0804024017
:10086000F8FFFDBF000002402DE9F84FDFF8B89116
:10087000002409F1040A0AF1040B23460F270BF1A7
:10088000040EC9E00125A5402A40AA427DD1674E49
:10089000D1F804C0ACEB0608B44532D014DCBCF18E
:1008A000030F3AD009DCBCF1000F2AD0BCF1010FD4
:1008B0001CD0BCF1020F31D11DE0BCF1110F17D0DB
:1008C000BCF1120F2AD119E0B8F5881F19D006DC47
:1008D000B8F5803F15D0B8F5801F1FD111E0B8F5ED
:1008E000001F0ED0B8F5041F18D10AE0CB6815E040
:1008F000CB681B1D12E0CB6808330FE0CB680C33CC
:100900000CE08B682BB1012B4FF0080303D045613D
:1009100004E0042302E0056100E00023FF2A01D87F
:10092000064601E000F104064FEA840501D9A5F16D
:100930002005D6F8008007FA05FC28EA0C0803FA1F
:1009400005F548EA0508C6F800804D68ED0062D557
:10095000374DAE6946F00106AE61AD6924F003067D
:1009600005F001050095334D06EB050CDCF8085049
:10097000A607360F07FA06F825EA0805DFF8B8805B
:10098000404503D14FF0000817E044E0DFF8AC80A9
:10099000404502D14FF001080FE0DFF8A480404548
:1009A00002D14FF0020808E0DFF89880404502D1FC
:1009B0004FF0030801E04FF0040808FA06F848EA8F
:1009C0000508CCF808804D68D9F80060ED034D4665
:1009D00001D5164300E096432E604D68DAF80060BA
:1009E000AD03554601D5164300E096432E604D6891
:1009F000DBF80060ED025D4601D5164300E096434A
:100A00002E604D68DEF80060AD02754601D51643D4
:100A100000E096432E60641C0D682A46E5407FF492
:100A200031AFBDE8F88F0000000401400000111054
:100A3000001002400000014000080140000C01408D
:100A400000100140001401400AB10161704709041F
:100A5000FBE70000014880687047000000000020AC
:100A600002488168027811448160704700000020CC
:100A7000074810B5016841F010010160032000F043
:100A80006DF80F2000F006F800F024F8002010BDEB
:100A90000020024070B50D4D04464FF47A7128785D
:100AA000B1FBF0F00A490968B1FBF0F000F0D8FCA6
:100AB00048B9102C07D200222146501E00F02EF813
:100AC00000206C6070BD012070BD0000000000209F
:100AD0000C000020094808B5816941F001018161DD
:100AE000816901F001010091C16941F08051C1614A
:100AF000C06900F08050009008BD00000010024066
:100B0000002809DB00F01F0201219140400980000C
:100B100000F1E020C0F8001170470000F0B40E4B67
:100B20001B680C46C3F30223C3F10705042D00D94B
:100B30000425191D072901D2002300E0DB1E012630
:100B400006FA05F1491E214099409E40761E164046
:100B50003143F0BC00F0F9BF0CED00E0064900F0B5
:100B6000070208684FF6FF03184040EA0220034AD4
:100B700010430860704700000CED00E00000FA052B
:100B80002DE9F843044600785B4DC0074FF001099A
:100B900051D0E8690026C00008D4E86940F08050D0
:100BA000E861E869012600F0805000905348016830
:100BB000C90512D40168804641F480710160FFF7D5
:100BC00049FF074605E000BFFFF744FFC01B64284C
:100BD00077D8D8F80000C005F6D5286A10F4407020
:100BE0001ED0A18801F44071814219D0286A44497D
:100BF00020F44070C1F8009000220A602862C0070B
:100C00000ED0FFF727FF074641F2883805E000BF06
:100C1000FFF720FFC11B414553D8286A8007F7D54D
:100C2000286A616820F44070084328621EB1E869B0
:100C300020F08050E8612078800705D56868A168B9
:100C400020F44040084368602078400705D5E86AF2
:100C5000E16820F400300843E8622078000705D5F9
:100C6000E86A216920F480200843E862E86A80038A
:100C700002D4E86A400333D52868C00028D4286825
:100C8000400105D5E86AA16900F0F000884225D14D
:100C9000E86AA16920F0F0000843E862E86A616947
:100CA00020F470400843E8621649C1F87090FFF7DD
:100CB000D1FE064608E004E0FFF7CCFE801B642866
:100CC00002D90320BDE8F88328688000F4D507E046
:100CD000E86A616900F47040884201D00120F1E7C0
:100CE0002078C00605D56868E16920F480000843D3
:100CF00068600020E6E7000000100240007000403D
:100D00004004424200004242704700002DE9F04793
:100D10000F46050061D0434E306800F00700B8422E
:100D200009D2306820F0070038433060306800F0A6
:100D30000700B84251D128683B4C810712D54007C3
:100D400003D5606840F4E06060602878000703D550
:100D5000606840F4605060606068A96820F0F0004E
:100D6000084360602878C00728D06868012810D040
:100D70002168022810D0890700292EDA616821F045
:100D8000030101436160FFF765FE804641F2883947
:100D90000DE021688903EFE78901EDE7FFF75AFECF
:100DA000A0EB0801494502D90320BDE8F08760683F
:100DB000696800F00C00B0EB810FEFD1306800F0F3
:100DC0000700B8420BD9306820F007003843306084
:100DD000306800F00700B84201D00120E5E728782C
:100DE000400705D56068E96820F4E060084360606A
:100DF0002878000706D56068296920F4605040EA29
:100E0000C100606000F03EF86168084AC1F3031158
:100E1000515CC8400649086006480068FFF73AFE82
:100E20000020C2E70020024000100240BE1B000864
:100E30000C0000200400002001490120C864704714
:100E4000000042420448054900684968044AC1F369
:100E50000221515CC84070470C0000200010024085
:100E6000CE1B00080448054900684968044AC1F3DC
:100E7000C221515CC84070470C00002000100240A5
:100E8000CE1B0008F0B523A289B00FCA04AC84E8D9
:100E90000F0024A10FC98DE80F0026494A68264893
:100EA00002F00C03042B2FD0082B2DD104A8C2F381
:100EB0008343C45CD00329D5C86A00F00F001DF835
:100EC0000020C86AC00316D5C86AC96AC0F30310F7
:100ED000C1F30321401C891CA0FB0223A1FB0416C3
:100EE000154F0025A1FB070C06FB07C601FB05619A
:100EF000FFF74AF903E010486043B0FBF2F09DF8B9
:100F00001D10A14200D1400809B0F0BD0B4860435C
:100F1000FAE70000000004050607080900000000C9
:100F2000000D00000102030405060708090A0B0C66
:100F30000D0E0F100010024000127A0000093D0053
:100F400010B5044CA068000603D5FFF7DDFE802035
:100F5000A07210BD001002402DE9F84F040070D0BF
:100F60002078F14DC00749D06868C0F3810001289E
:100F700007D06868C0F38100022809D16868C003FF
:100F800006D52868800339D5A0680028E7D035E069
:100F9000A068B0F5803F0BD010B1B0F5A02F11D0F4
:100FA000286820F480302860286820F4802002E03F
:100FB000286840F480302860A06890B1FFF74AFDAF
:100FC00006460AE0286840F480202860F0E700BF69
:100FD000FFF740FD801B642876D828688003F7D58A
:100FE0000CE0FFF737FD064605E000BFFFF732FDD6
:100FF000801B6428F0D828688003F7D42078CB4E73
:1010000080074FF001094FF000073AD5686810F0EB
:101010000C0F07D06868C0F38100022809D1686806
:10102000C00306D42868800715D56069012808D157
:1010300011E06069B8B1C6F80090FFF70BFD80467B
:1010400006E042E1FFF706FDA0EB08000228C3D846
:1010500028688007F6D52868A16920F0F80040EAE2
:10106000C10028600DE03760FFF7F4FC804605E022
:10107000FFF7F0FCA0EB08000228ADD82868800735
:10108000F6D4207800072ED5A948E169E9B1C0F867
:101090000090FFF7DFFC804606E000BFFFF7DAFCB8
:1010A000A0EB0800022897D8686A8007F6D5A14807
:1010B0004FF4FA510068B0FBF1F0009000BF0098C7
:1010C000411E0091FAD20EE0B0E00760FFF7C2FCCB
:1010D000804605E0FFF7BEFCA0EB0800022889D897
:1010E000686A8007F6D42078400763D5E8694FF036
:1010F0000008C00009D4E86940F08050E861E86960
:101100004FF0010800F0805000908B480168C9053D
:1011100012D40168834641F480710160FFF79AFCA4
:10112000824605E0FFF796FCA0EB0A0064287DD814
:10113000DBF80000C005F5D5206901280AD008B108
:10114000052813D0286A20F001002862286A20F0C0
:10115000040002E0286A40F001002862206941F2A0
:10116000883B98B1FFF776FC82460BE0286A40F096
:1011700004002862EEE700BFFFF76CFCA0EB0A0159
:10118000594553D8286A8007F6D50CE0FFF762FC72
:10119000824605E0FFF75EFCA0EB0A01594545D801
:1011A000286A8007F6D4B8F1000F03D0E86920F070
:1011B0008050E861E06AD0B36968C90307D56968FF
:1011C000C1F38101022902D1E96AC9037DD4022851
:1011D00008D0E86A20F48030E862B766FFF73AFC8E
:1011E00080463BE02868C00005D5E86A616B00F0E6
:1011F000F000884269D1B766FFF72CFC804605E015
:10120000FFF728FCA0EB0800642874D828680001C8
:10121000F6D4E86A616B20F0F0000843E862E86AFF
:10122000216B20F470600843E86201E063E018E09D
:10123000C6F86890FFF70EFC804605E0FFF70AFC51
:10124000A0EB0800642856D828680001F6D508E00D
:10125000FFF700FCA0EB080064284CD828680001C8
:10126000F6D4206A90B36968C1F38101022949D09C
:101270000228376603D0FFF7EDFB04463EE0FFF798
:10128000E9FB074605E000BFFFF7E4FBC01B0228AF
:1012900031D828688001F7D4606AB0F5803F09D161
:1012A000E86A61680843E862E86AE16820F00F00D4
:1012B0000843E862D4E909010843696821F474111C
:1012C00008436860C6F8609001E028E029E0FFF775
:1012D000C1FB044605E000BFFFF7BCFB001B022872
:1012E00009D828688001F7D51BE000BFFFF7B2FBE3
:1012F000001B022802D90320BDE8F88F286880016E
:10130000F4D40EE00128F7D06868626A00F48031F6
:10131000914204D1A16A00F47010884201D00120EA
:10132000EAE70020E8E70000001002400000424227
:10133000800442420C0000200070004070B50400A0
:1013400009D0606A002540B125616561A56294F805
:10135000510040B10CE0012070BD6068B0F5827FA3
:10136000F4D0E561F2E784F85050204600F040F8F0
:10137000022084F851002068016821F040010160DA
:10138000A088218900F4827001F404410843A189F6
:1013900001F400610843217C01F002010843217D32
:1013A00001F001010843218B01F400710843217F02
:1013B00001F03801084394F8201001F0800108433F
:1013C000218D01F40051084321680860A0690421BF
:1013D00001EA1040216848602068C16921F4006179
:1013E000C1616565012084F85100002070BD0000D6
:1013F00030B585B0002400940194029403940068F1
:101400001449884223D11448C16941F40041C161A3
:10141000C16901F400410491816941F008018161D1
:1014200080690E4D00F008000490282000900220F2
:1014300001900320039069462846FFF715FA102013
:10144000CDE90004694628460294FFF70DFA05B07D
:1014500030BD0000003C004000100240000C014084
:1014600010B5401EB0F1807F01D3012010BD4FF0B8
:10147000E02460610F21601700F067FB0020A0618D
:1014800007202061002010BD70B5040004D094F83E
:101490003D00002510B106E0012070BD84F83C50ED
:1014A000204600F023F8242084F83D002068C1681D
:1014B00021F40051C160204600F0EAFA2068016979
:1014C00021F4904101612068416921F02A014161C4
:1014D0002068C16841F40051C1602564202084F86F
:1014E0003D0084F83E00002070BD0000F0B585B0DE
:1014F00000240094019402940394D0F800C0604842
:101500005E4F0515022103225E4BC614BC4516D161
:10151000C76947F40027C761C76907F40027049724
:10152000876947F0100787618069CDE9005100F0B5
:101530001000CDE9032069461D46184695E0DFF806
:1015400048E1524FF44529D1C56945F48015C5617C
:10155000C56905F480150495856945F01005856118
:10156000856905F010050495856945F020058561BC
:101570008069039200F020000490B814CDE90001C6
:1015800069461846FFF770F90420CDE90004694662
:1015900038460294FFF768F905B0F0BD3C4B9C4516
:1015A0001FD1836943F480438361836903F48043DB
:1015B0000493836943F0040383618069354E00F02E
:1015C000040004904FF40070CDE9000103926946D5
:1015D0003046FFF749F9CDE9005469463046029498
:1015E000D8E72D4B9C4527D1C36943F40033C36131
:1015F000C36903F400330493836943F020038361D8
:101600008069039200F0200004902020CDE90001C1
:1016100069463846FFF728F94020CDE900046946BD
:1016200038460294FFF720F91C48416841F0E06118
:1016300041F008014160AFE7194B9C45ACD1C3694B
:1016400043F48023C361C36903F480230493836953
:1016500043F0080383618069CDE9005100F0080080
:10166000CDE903200F4D69462846FFF7FDF8CDE987
:1016700000646946284602948CE70000004C004054
:1016800000100240001001400050004000140140D2
:1016900000380140000801400044004000000140C3
:1016A00000480040000C0140FEE70000FEB50024A9
:1016B0003E48009401943C49029401608915816080
:1016C0000125057304750A2606614FF46021446004
:1016D000C161FEF781FE08B1FEF7FDFDCDE90045D1
:1016E0000724694631480294FEF7F8FD08B1FEF779
:1016F000F2FD0095022569462C480195FEF7EEFDA6
:1017000008B1FEF7E8FD00950325694627480195D5
:10171000FEF7E4FD08B1FEF7DEFD009504256946FD
:1017200022480195FEF7DAFD08B1FEF7D4FD0095D9
:10173000052569461D480195FEF7D0FD08B1FEF765
:10174000CAFD00950625694618480195FEF7C6FDB5
:1017500008B1FEF7C0FDCDE9005469461348FEF715
:10176000BDFD08B1FEF7B7FD0094082469460F4897
:101770000194FEF7B3FD08B1FEF7ADFD0094092416
:1017800069460A480194FEF7A9FD08B1FEF7A3FDDA
:10179000CDE9004669460548FEF7A0FD002801D0C6
:1017A000FEF799FDFEBD000000240140100000205E
:1017B000094808B5416941F00101416140690022D1
:1017C00000F00100009011460B20FFF7A7F9BDE8DB
:1017D00008400B20FFF794B9001002402DE9F043B8
:1017E00085B00024294800940194029403948169EF
:1017F00041F040018161816901F0400104918169FA
:1018000041F004018161816901F004010491816961
:1018100041F008018161816901F008010491816949
:1018200041F020018161816901F020010491816909
:1018300041F0100181618069DFF8548000F01000F0
:10184000049000227E214046FFF7FEF8DFF8449026
:101850004FF47047002239464846FFF7F5F87E20DE
:1018600001250226CDE90005CDE90246694640463C
:10187000FEF7FAFF00970396CDE901546946484602
:10188000FEF7F2FF05B0BDE8F08300000010024053
:1018900000180140001401400F4810B50D490160C7
:1018A0004FF48271416000218160C1604FF4007289
:1018B0000161C0E90512C1610162416281620A21D0
:1018C000C162FFF73BFD002803D0BDE81040FEF7E2
:1018D00002BD10BD003C0040840000200C4810B543
:1018E0000A4901604FF4E1314160002181600C221E
:1018F000C160C0E904128161C161FFF7C5FD002824
:1019000003D0BDE81040FEF7E6BC10BD004C00401F
:10191000DC0000200C4810B50A4901604FF4E131A9
:101920004160002181600C22C160C0E90412816124
:10193000C161FFF7A9FD002803D0BDE81040FEF704
:10194000CABC10BD00500040200100200C4810B55A
:101950000A4901604FF4E1314160002181600C22AD
:10196000C160C0E904128161C161FFF78DFD0028EB
:1019700003D0BDE81040FEF7AEBC10BD00380140FA
:10198000640100200C4810B50A4901604FF4E131B0
:101990004160002181600C22C160C0E904128161B4
:1019A000C161FFF771FD002803D0BDE81040FEF7CC
:1019B00092BC10BD00440040A80100200C4810B5A6
:1019C0000A4901604FF4E1314160002181600C223D
:1019D000C160C0E904128161C161FFF755FD0028B3
:1019E00003D0BDE81040FEF776BC10BD00480040B3
:1019F000EC010020FEE7FFF7A3FAFEE7704770470F
:101A0000FFF72EB870B59CB038216846FEF704FC8D
:101A100014210EA8FEF700FC202113A8FEF7FCFB02
:101A2000012600243004CDE902040225CDE9085046
:101A30000096059601944FF4E010CDE90A0468463B
:101A4000FFF78AFA08B172B6FEE70F20CDE90E055E
:101A50004FF48060CDE9104002210EA81294FFF7E8
:101A600055F908B172B6FEE74FF400401590139592
:101A700013A8FFF785F808B172B6FEE7FFF7DCF9A7
:101A8000014806671CB070BD00004242704700006C
:101A900070B5044600680169E26821F440511143C1
:101AA00001612169A0680843616908432168CA6827
:101AB00041F20C639A430243CA6020684169A269FB
:101AC00021F44071114341611E492068884202D1CE
:101AD000FFF7C8F901E0FFF7B5F900EBC00101EB32
:101AE0000012606864218000B2FBF0F3B3FBF1F3F5
:101AF0006FF018067343B2FBF0F5B2FBF0F605EB9E
:101B00008305322303EB0515B5FBF1F5B6FBF1F6C2
:101B100005F0F00505EB0615B2FBF0F6B2FBF0F0B0
:101B2000B0FBF1F06FF01802504306EB800003EBBE
:101B30000010B0FBF1F0216800F00F00284488602D
:101B400070BD000000380140FEE70907090E0028BB
:101B500004DB00F1E02080F80014704700F00F0073
:101B600000F1E02080F8141D704702E008C8121F41
:101B700008C1002AFAD170477047002001E001C176
:101B8000121F002AFBD17047FEF772FFFFF73AFFE2
:101B9000FFF724FEFFF70CFEFFF788FDFFF70EFFAF
:101BA000FFF77AFEFFF79AFEFFF7B4FEFFF7CEFECF
:101BB000FFF7E8FEFFF7E6FEFFF7E4FEF8E70000B8
:101BC00000000000000001020304060708090000ED
:101BD0000000010203040000F81B000800000020C0
:101BE000100000006A1B0008081C000810000020FC
:101BF000200600007A1B0008010000001000000011
:081C0000000000000024F400C4
:04000005080001519D
:00000001FF
